:020000040800F2
:10000000101D002001010008453400088329000864
:1000100043340008930A0008F9500008000000006B
:100020000000000000000000000000001D39000872
:10003000D90A000800000000C9370008213900086B
:100040001B0100081B0100081B0100081B01000820
:100050001B0100081B0100081B0100081B01000810
:100060001B010008DD0A00081B0100081B01000835
:100070001B0100081B0100081B0100081B010008F0
:100080001B0100081B0100081B0100081B010008E0
:10009000915000081B0100081B010008ED0A000830
:1000A0001B0100081B0100081B010008FD390008A6
:1000B0001B0100081B0100081B0100081B010008B0
:1000C0001B0100081B0100081B0100081B010008A0
:1000D0001B0100081B0100081B0100081B01000890
:1000E0001B0100081B0100081B010008DFF80CD0F1
:1000F00000F092FC00480047015D0008101D002040
:100100000648804706480047FEE7FEE7FEE7FEE7B1
:10011000FEE7FEE7FEE7FEE7FEE7FEE7B53900088B
:10012000ED000008202A04DB203A21FA02F0002129
:10013000704721FA02F3D040C2F1200291400843F7
:100140001946704740EA01039B0703D009E008C93C
:10015000121F08C0042AFAD203E011F8013B00F88C
:10016000013B521EF9D27047F0B480EA0102D40F6D
:100170004200B2EB410F02D20246084611464A0045
:1001800042D0C30DDDB2C1F3C752AD1A202D35DA0E
:10019000C1F3160141F4000204B15242C5F1200638
:1001A00002FA06F12A411044B3EBD05F23D0C4B168
:1001B000012DA0EBC35009DCF0BC4FF0004202EA75
:1001C000C352DBB200F5000000F049BB400000F173
:1001D000807000EBC350A0F1807040EAD1704900FC
:1001E00009E0490841EAC071A0EBC35000F50000E6
:1001F000400800EBC350F0BC00F028BB6142012274
:1002000002EB4101001BF6E7F0BC704781F00041B2
:10021000AAE780F00040A7E780EA010210B502F0EB
:100220000043400022D04A001FD0010E01EB1261B2
:10023000C0F35600C2F3560240F4000042F400023C
:10024000A0FB022000047F39140400D0401C50EAB7
:10025000124001D44000491EC2B20C0604EBD0107B
:10026000401C4008802A02D003E0002010BD20F08E
:100270000100002900DA0020184310BD30B480EAE4
:10028000010202F0004530F0004221F0004013D09E
:1002900090B1C30DD40DC2F31601C0F31600E41AD9
:1002A00041F4000140F400027D34914201D3641C0A
:1002B00000E04900002C02DA30BC002070474FF407
:1002C00000000023914201D3891A034340084FEAFA
:1002D0004101F7D151B1914202D14FF0004105E007
:1002E00002D24FF0010101E06FF0010103EBC450B5
:1002F000284430BC00F0AABA420005D0C0F3C7526F
:100300005242914201DC0020704700EBC15070471F
:100310002DE9FE4F804681EA0300C00F0C46009095
:1003200021F0004123F00045B8EB0200A94105D2BD
:100330004046214690461C460B46024623F00040AC
:10034000104347D0270DC7F30A00C3F30A510290A8
:10035000401A019040286BDAC3F3130040F4801B6D
:100360000098924620B10023D2EB030A63EB0B0BFB
:1003700001985946C0F14002504600F046FA064640
:100380000D4650465946019A00F04EFA10EB08000F
:100390006141002487EA115284EAE7731A4340D08E
:1003A000009A62B3019A012A4FEA075215DC001B3A
:1003B00061EB02014FF0004202EA0752CDE9004230
:1003C000001C41F5801132462B4600F085FA03B03F
:1003D000BDE8F08F40462146F9E7001B61EB0201C2
:1003E000001C41F5801300185B412018A2F500178E
:1003F00047EB030140EAD570B6196D4111E06D0875
:100400004FEA360645EAC0754FEA0752001B61EB1A
:100410000201001C41F5801149084FEA3000001923
:10042000514132462B4603B0BDE8F04F00F045BACB
:100430000098012240000023D0EB020263EBE0733E
:10044000009821464FEAE074B8EB000061EB04012C
:10045000E9E783F000435BE781F0004158E72DE9CD
:10046000FE4F81EA030404F0004421F000410094AF
:100470004FF0000B23F0004350EA01045ED052EA33
:1004800003045BD0C3F30A54C1F30A552C44A4F20D
:10049000F3340194A0FB0254C1F3130141F4801121
:1004A000C3F3130343F4801301FB024400FB034E28
:1004B000840A970A44EA815447EA8357A4FB0768F1
:1004C00002958D0A05FB07854FEA932C04FB0C541B
:1004D0002705029D4FEA065847EA1637B5EB08058F
:1004E0006EEB070C870E920E47EA811742EA8312E1
:1004F000A7FB0201B6EB0B0164EB00042B0D43EAF2
:100500000C335E1844EB1C50DA465146E7FB0201FF
:10051000C5F313044FEA0B3343EA14534FEA043292
:10052000019C43EA0603A4F10C040294009CCDE96B
:1005300000B400F0D1F903B0BDE8F08F002001460F
:10054000F9E72DE9F04D81EA030404F0004B21F0B6
:10055000004514464FF0000A23F0004150EA05021E
:1005600020D054EA01021DD0C5F30A570246C5F354
:100570001303C1F31300C1F30A5640F4801543F48A
:100580008013A7EB0608101BD64608F2FD3873EB64
:10059000050002D308F1010801E092185B41B8F1AF
:1005A000000F03DA00200146BDE8F08D00204FF473
:1005B0008011064684460EE0171B73EB050705D332
:1005C000121B63EB050306434CEA010C49084FEA92
:1005D000300092185B4150EA0107EDD152EA030066
:1005E00012D082EA040083EA0501084305D0101BFB
:1005F000AB4106D20122002306E000224FF0004367
:1006000002E06FF0010253101AEB06004CEB0851A8
:1006100010EB0A0041EB0B01BDE8F04D00F04DB9C5
:1006200070B521F0004303430CD0C1F30A550024F8
:10063000D5EB040564EB0403D617AD1AB34102DB16
:100640000020014670BD201841EB025170BDC10F62
:1006500080EAE0700844CA079623002100F0FFB842
:1006600096230022114600F0FAB80EB540F233414D
:1006700002910021CDE900110A460B4600F02CF949
:1006800003B000BD00F0004220F00040C10DC0F3F7
:10069000160040F400007F2901DA002070479629F7
:1006A00003DCC1F19601C84001E096398840002A78
:1006B000F4D040427047C1F30A5210B5C1F31301A0
:1006C00040F2FF3341F480119A4201DA002010BD5C
:1006D00040F233439A42A2F2334203DC5242FFF724
:1006E00021FD10BD904010BD00F0004230F00040F0
:1006F0000AD0C10D01F56071C0F3160042EA015144
:10070000C2084007114370470020014670470000AF
:1007100030B5041E71F1000404DB4FF00044404288
:1007200064EB0101141E73F1000405DB1C464FF05D
:100730000043524263EB04038B4208BF824230BD48
:1007400030B5041E71F1000404DB4FF00044404258
:1007500064EB0101141E73F1000405DB1C464FF02D
:100760000043524263EB0403994208BF904230BDFC
:1007700001F0004330B421F0004150EA010206D0FC
:100780000A0DA2F56072C1F31301002A02DC30BC2D
:1007900000207047440F44EAC104C100E01830BC97
:1007A00000EBC25000F052B82DE9F05F0546002082
:1007B00092469B4688460646814640241BE02846D2
:1007C000414647462246FFF7ADFC53465A46C01AFB
:1007D000914110D311461846224600F016F82D1A02
:1007E00067EB01084F4622460120002100F00DF87A
:1007F00017EB00094E41201EA4F10104DFDC48463E
:1008000031462A464346BDE8F09F202A04DB203AC1
:1008100000FA02F1002070479140C2F1200320FA53
:1008200003F3194390407047202A06DBCB17203A88
:1008300041FA02F043EAE07306E041FA02F3D040E5
:10084000C2F1200291400843194670470029A8BF11
:100850007047401C490008BF20F00100704710B4E9
:10086000B0FA80FC00FA0CF050EA010404BF10BC9E
:10087000704749B1CCF1200421FA04F411FA0CF1CB
:1008800018BF012121430843A3EB0C01CB1D4FEA04
:1008900000614FEA102042BF002010BC704700EBFF
:1008A000C35010440029A4BF10BC7047401C49002D
:1008B00008BF20F0010010BC704710B5141E73F182
:1008C000000408DA401C41F1000192185B411A4310
:1008D00001D120F0010010BD2DE9F04D92469B465C
:1008E00011B1B1FA81F202E0B0FA80F22032904602
:1008F000FFF78BFF04460F4640EA0A0041EA0B016E
:1009000053465A46084313D0114653EA010019D002
:10091000C8F140025046FFF705FC05460E4650461A
:1009200059464246FFF771FF084305D0012004E015
:1009300020463946BDE8F08D0020054346EAE076C2
:100940002C4337430A986305E40AA0EB0800002211
:10095000FD0A44EA47540A3002D500200146E9E77F
:10096000010510196941DDE9084500196941BDE833
:10097000F04DA2E72DE9F04D00231A461B1A8A41DB
:1009800003DB00200146BDE8F08DC1F30A52C1F33C
:10099000130141F480154FF0000BD10702D100186C
:1009A0006D41521E0027044640F2FF11384601EB0C
:1009B000620A3E468046024600204FF48011FFF74F
:1009C000B1FBC2197141BB1846EB0100B4EB030C3B
:1009D00075EB000C04D3E41A65EB000517460E46D0
:1009E000241908F101006D4180463428E3DDF9192E
:1009F00046EB0600091BA84103D24FF0FF32134615
:100A000001E0002213461BEB070046EB0A51BDE84C
:100A1000F04DFFF752BF0000064C074D06E0E068BE
:100A200040F0010394E8070098471034AC42F6D335
:100A3000FFF760FB187000083870000870B58C185C
:100A400010F8015B15F0070301D110F8013B2A11E2
:100A500006D110F8012B03E010F8016B01F8016BCF
:100A60005B1EF9D12B0705D40023521E0DD401F8CB
:100A7000013BFAE710F8013BCB1A921C03E013F894
:100A8000015B01F8015B521EF9D5A142D8D30020C9
:100A900070BDFEE7002070470020704710B50022AF
:100AA0000449054803F0F4FA0449034803F0EAFA5C
:100AB000002010BD24150020980600203C110020C5
:100AC00010B50146034803F0DDFA024803F0BEFA10
:100AD000002010BD98060020704700000249012048
:100AE0000870082000F032B81A00002010B505F098
:100AF00043FB0849094B086007490A68821A1A60D3
:100B00000860074901200870BDE81040000200F0AD
:100B10001DB800006802002064020020600200206E
:100B20001800002070B5044600F000F90546601C6E
:100B300002D004480078044400F0F8F8401BA042BA
:100B4000FAD370BDB802002070470000044910B508
:100B50000A68024202D00860FFF7F6FF10BD0000ED
:100B6000140401402DE9F84FDFF890A100220AF1AA
:100B7000040B144601274FF00F090BF1040E00BFC0
:100B80000B6807FA04F52B40AB4274D1DFF870C153
:100B90004E68A6EB0C0866452BD00DDC032E34D036
:100BA00005DC36B3012E19D0022E2FD11BE0112EF9
:100BB00016D0122E2AD119E0B8F5881F19D006DCFC
:100BC000B8F5803F15D0B8F5801F1FD111E0B8F5FA
:100BD000001F0ED0B8F5041F18D10AE0CA6815E04E
:100BE000CA68121D12E0CA6808320FE0CA680C32E7
:100BF0000CE08A682AB1012A4FF0080203D045614F
:100C000004E0042202E0056100E00022FF2B01D88D
:100C1000064601E000F104064FEA840501D9A5F17A
:100C20002005D6F800C009FA05F82CEA080C02FAEB
:100C300005F54CEA050CC6F800C04D68ED0057D527
:100C4000304DAE6946F00106AE61AD6924F0030691
:100C500005F0010500952C4D06EB050CDCF808505D
:100C6000A6074FEA167809FA08F6B543274EB042B0
:100C700002D1002610E03BE0254EB04201D1012612
:100C80000AE0244EB04201D1022605E0224EB042D5
:100C900001D1032600E0042606FA08F62E43CCF81C
:100CA00008604D68DAF80060ED03554601D51E4333
:100CB00000E09E432E604D68DBF80060AD035D46AA
:100CC00001D51E4300E09E432E604D68DEF80060B3
:100CD000ED02754601D51E4300E09E432E604D682F
:100CE000AD020E4D2E6801D51E4300E09E432E60DE
:100CF000641C102CFFF444AFBDE8F88F00040140E1
:100D000000001110001002400000014000080140E6
:100D1000000C014000100140001401400C0401408F
:100D20000AB1016170470904FBE7000001488068CF
:100D300070470000B802002070B504001BD094F882
:100D40003D00002520B984F83C50204600F0E8FA28
:100D5000242084F83D002068016821F00101016031
:100D600000F048FF404A6168914201D83F4900E0E5
:100D70003F49884201D2012070BD3E492368B0FB43
:100D8000F1F159606368934206D94FF49673594361
:100D90004FF47A73B1FBF3F12368491C196261685F
:100DA000914210D84900401EB0FBF1F2521CC2F330
:100DB0000B02042A01D2042022E0B0FBF1F0401C17
:100DC000C0F30B001CE0A368CBB301EBC10202EB44
:100DD0000116421EB2FBF6F2521C42F4804212058A
:100DE00036D06BB301EBC10202EB0111401EB0FB28
:100DF000F1F0401CC0F30B0040F4804040F4004090
:100E00002168C861D4E90701084321680860D4E972
:100E10000310084321688860D4E90501084321686C
:100E2000C8602068016841F001010160256420204C
:100E300084F83D00256384F83E50002070BD00E03A
:100E400008E001EB4106421EB2FBF6F2521CC6E777
:100E50000120D5E701EB4101401EB0FBF1F0401C41
:100E6000C0F30B00CAE70000A086010080841E00CA
:100E700000093D0040420F002DE9FF4F81B0994627
:100E80008B4604464FF00108FFF750FF054694F8E3
:100E90003D0020287BD1192301224D492046009591
:100EA00001F065FE002872D194F83C0001286ED054
:100EB000012084F83C0020680168C90703D101685B
:100EC00041F0010101602068016821F400610160C6
:100ED000242084F83D00002626643E48E062202756
:100EE0002068016841F4807101604B4600224FF098
:100EF00001112046009501F03AFE002858D12168E2
:100F00000BF0FE000861FFF711FF216805464869F4
:100F10004969C0F3400094F83D20C1F380214FF0AF
:100F2000A00A12E0B9F1000F04D0FFF7FFFE411B49
:100F3000494501D984F83DA0216848694969C0F351
:100F4000400094F83D20C1F38021084301D1A02A3C
:100F5000E8D184F83D7020684169C943890717D4F6
:100F6000016841F4007101602068416980691923BA
:100F7000012217492046009501F0F9FDC0B984F817
:100F80003D7084F83C60002005B0BDE8F08F1DE0A6
:100F9000016841F40071016021686FF4806048616C
:100FA000192301220A492046009501F0E0FD08B10D
:100FB0000320E9E74146039808F1010881428FD3F5
:100FC00084F83D7084F83C600120DDE70220DBE717
:100FD000020010000000FFFF2DE9F84F1F46904669
:100FE0008A460446DDF82890FFF7A0FE054694F8EF
:100FF0003D0020287ED11923012278492046009502
:1010000001F0B5FD0028F5D194F83C00012871D01D
:10101000012084F83C0020680168C90703D10168F9
:1010200041F0010101602068016821F40061016064
:10103000222084F83D00102084F83E00002626641B
:10104000C4F8248067856648E062608D20852B4661
:101050004A465146204601F0A9FC28B1206C84F88C
:101060003C60042850D073E0208D5E4F68B10128A9
:1010700014D00228206801681ED041F4806101600C
:1010800020684169806900909AE02068416981691F
:101090000091016841F40071016091E020680168ED
:1010A00021F48061016072B6206841698169009114
:1010B000016841F400710AE041F40061016072B618
:1010C0002068416981690091016821F480610160B3
:1010D00062B675E0032850D801280CD002284B4690
:1010E0004FF0000239462046009512D001F03FFD36
:1010F00070BB13E070E02A464946204601F0ACFD83
:1011000028B1206C202823D00120BDE8F88F20686A
:101110004BE001F02CFDD8B972B61BE020680168E5
:1011200021F48061016072B620680169606A421C26
:1011300062620170208D401E2085608D401E60859A
:101140004B46002239462046009501F010FD08B1BB
:101150000320DAE72068016841F40071016020682B
:101160000169606A421C62620170208D401E208508
:10117000608D401E608562B6C9E72A464946204612
:1011800001F06AFD0028BCD120680169606A421C38
:1011900062620170208D401E2085608D401E60853A
:1011A00020684169C94349070AD40169606A421C41
:1011B00062620170208D401E2085608D401E60851A
:1011C000208D002886D1202084F83D0084F83E60E0
:1011D00084F83C60002098E7022096E702001000A7
:1011E0000000FFFF040001002DE9F84F1F46904664
:1011F0008A460446DDF82890FFF798FD064694F8E5
:101200003D0020287ED11923012243492046009623
:1012100001F0ADFC00287DD194F83C00012879D084
:10122000012084F83C0020680168C90703D10168E7
:1012300041F0010101602068016821F40061016052
:10124000212084F83D00102084F83E00002525640C
:10125000C4F8248067853148E062608D208533467C
:101260004A465146204601F011FC28B1206C84F812
:101270003C5004284CD00DE0206841698069009002
:1012800030E032464946204601F017FD28B1206C77
:10129000042838D00320BDE8F88F606A411C6162E1
:1012A000216800780861608D401E6085208D401E99
:1012B00080B2208521684A69D24352070BD450B1CD
:1012C000606A421C626200780861608D401E608521
:1012D000208D401E208532464946204601F020FCE4
:1012E0000028D4D1208D0028CBD154F83D0B0168C3
:1012F00041F400710160202004F81E09E57765774C
:101300000020C8E706E02068016841F40071016030
:101310000120C0E70220BEE7020010000000FFFF2E
:1013200000B500680C4985B0884212D1C0200090F9
:10133000122001900320039069460848FFF712FC31
:101340000748C16941F40011C161C06900F400108F
:10135000049005B000BD000000540040000C0140A6
:101360000010024002488168027811448160704791
:10137000B8020020074810B5016841F01001016073
:10138000032000F09DF8002000F006F800F024F89B
:10139000002010BD0020024070B50D4D04464FF4F2
:1013A0007A712878B1FBF0F00A490968B1FBF0F0D6
:1013B00000F075FE48B9102C07D200222146501EBD
:1013C00000F05EF800206C6070BD012070BD000070
:1013D000B8020020C4020020214808B5816941F00C
:1013E00001018161816901F001010091C16941F050
:1013F0008051C161C06900F080500090032000F06E
:101400005FF8002211466FF00B0000F039F800225F
:1014100011466FF00A0000F033F8002211466FF019
:10142000090000F02DF800221146501F00F028F8A6
:1014300000221146101F00F023F800221146901ED2
:1014400000F01EF800221146501E00F019F8054861
:10145000416821F0E06141F00071416008BD000089
:10146000001002400000014000F01F0201219140E5
:101470004009800000F1E020C0F800117047000032
:10148000F0B40E4B1B680C46C3F30223C3F10705EF
:10149000042D00D90425191D072901D2002300E0DD
:1014A000DB1E012606FA05F1491E214099409E40A7
:1014B000761E16403143F0BC01F0C5BF0CED00E0D4
:1014C000064900F0070208684FF6FF03184040EA9B
:1014D0000220034A10430860704700000CED00E052
:1014E0000000FA05BFF34F8F05480168054A01F473
:1014F000E06111430160BFF34F8F00BFFDE70000C3
:101500000CED00E00400FA0510B50C0605D501F05D
:101510007F0100EB4110283003E000EB411000F5A3
:101520000A7099B232B101228272C180190C018114
:10153000002010BD002282728180F9E7704700EB25
:101540004112D0F85C04D26B02F068BF00EB41128C
:10155000D0F85C04D2F83C2202F0B5BF10B50446C6
:101560000A460B0601F07F0004EB401101D528313B
:1015700001E001F50A710870D009487094F8280458
:10158000012809D0012084F82804206803F09CFB7E
:10159000002084F8280410BD022010BD70B50A4652
:1015A0000446090602F07F0003D504EB4011283100
:1015B00003E004EB421101F50A7100258D700870FB
:1015C000D009487094F82804012809D0012084F833
:1015D0002804206803F026FC84F82854002070BDFD
:1015E000022070BD01F00F0100EB4110B0F8440281
:1015F00080B2704770B504460D460E0601F07F00BC
:1016000004EB401101D5283101E001F50A710870A1
:10161000E80948700A61CB7094F82804012809D0C1
:10162000012084F82804206803F01EFA002084F8C2
:10163000280470BD022070BD70B50C4601F07F0516
:1016400000EB4511C1E98F230022C1F8442281F843
:10165000292281F8285201F50A716206006803F018
:101660003BFC002070BD70B50D460446090605F030
:101670007F0003D504EB4011283103E004EB451152
:1016800001F50A7101228A700870E809487094F81F
:101690002804012807D084F82824206803F0F7FBE9
:1016A000680602D006E0022070BD04F22C412068DA
:1016B00003F0B6FB002084F8280470BD70B50C461A
:1016C00001F07F0500EB4511C1E90F2300224A64B8
:1016D000012281F8292001F8285F6206006803F0E2
:1016E000FBFB002070BD10B50446006803F0D6FC7B
:1016F000000402D5204601F0B6FE206803F0CEFCBF
:1017000040050CD5206830F8441F21F48061018029
:10171000204600F0EDF80021204600F0FEF8206899
:1017200003F0BCFC400405D5206830F8441F21F4C8
:1017300080410180206803F0B1FC800405D5206859
:1017400030F8441F21F400510180206803F0A6FC0A
:10175000C00414D5206830F8401F21F00401018036
:10176000206830F8401F21F008010180204600F079
:10177000CCF8206830F8441F21F4805101802068A3
:1017800003F08CFC00051AD5206830F8401F41F0AA
:1017900008010180206830F8441F21F400610180B5
:1017A000206830F8401F41F004010180206803F0F8
:1017B00075FCC043C00402D5204600F0E3F8206861
:1017C00003F06CFC800508D5206830F8441F21F434
:1017D00000710180204600F09CF8206803F05EFC58
:1017E000C00505D5206830F8441F21F480710180C0
:1017F00010BD00002DE9F04186B004004FF0000557
:1018000004D094F82904002620B108E0012006B095
:10181000BDE8F08184F82864204600F04BF80320EE
:1018200084F82904206803F0F4FA04F1100114226A
:1018300088466846FEF786FC94E80F0003F042FAFB
:101840000021206803F03DFC5FF0010704EB451028
:1018500080F8297000F8285F8581C67006614661AE
:101860006D1C86610F2DF1D35FF0000004EB401179
:1018700081F8296281F82802888681F82B62C1F8F4
:101880003862C1F83C62401CC1F840620F28EDD3B9
:10189000142241466846FEF755FC94E80F0003F019
:1018A000A9FA84F8246084F82974206803F0A0FA67
:1018B0000020ACE708B500680B49884212D10B48FC
:1018C000C16941F40001C161C069002200F4000057
:1018D000009011461420FFF7D3FDBDE80840142006
:1018E000FFF7C2BD08BD0000005C004000100240D0
:1018F00010B504460121D0F85C0402F0CFFED4F804
:101900005C04BDE8104002F098BED0F85C0402F020
:10191000B3BED0F85C0402F0B5BE10B5044690F832
:10192000280401280BD0012084F8280484F824100E
:10193000206803F0C8FB002084F8280410BD0220B2
:1019400010BDD0F85C2400F22C41104602F0B9BE64
:1019500010B5044690F82804012810D0012084F81E
:10196000280401462046FFF7E9FD206803F03EFA0F
:10197000206803F086FB002084F8280410BD0220B4
:1019800010BD000010B50446D0F85C0402F0E6FE7D
:10199000A069002804D00348016841F006010160F5
:1019A00010BD000010ED00E02DE9F8430546007879
:1019B000354CC00754D0E0690026C00008D4E06967
:1019C00040F08050E061E069012600F08050009016
:1019D0002E480168C90512D40168804641F480711F
:1019E0000160FFF7A3F9074605E000BFFFF79EF986
:1019F000C01B642823D8D8F80000C005F6D5206A9B
:101A000010F4407021D0A98801F4407181421CD0AB
:101A1000206A1F49012220F440700A6000220A60F7
:101A20002062C00711D0FFF781F9074641F28838DC
:101A300008E000BFFFF77AF9C11B414502D9032036
:101A4000BDE8F883206A8007F4D5206A696820F42D
:101A50004070084320621EB1E06920F08050E061D0
:101A60002878800705D56068A96820F440400843BD
:101A700060602878C00605D56068E96820F48000B9
:101A8000084360600020DBE7001002400070004067
:101A9000400442422DE9F047DFF83C8105460E46FE
:101AA000D8F8000000F00700B0420CD2D8F80010BF
:101AB00021F007013143C8F80010D8F8000000F009
:101AC0000700B04263D12878444C800705D5606890
:101AD000A96820F0F000084360602878C00745D06E
:101AE0006868012816D02168022816D089070029C5
:101AF0004DDA616821F0030101436160FFF716F9D7
:101B00006968074641F2883001290FD002298146D1
:101B100019D027E021688903E9E78901E7E700BFD9
:101B2000FFF704F9C11B494501D918E081466068F7
:101B3000C0F381000128F3D118E000BFFFF7F6F8E9
:101B4000C11B49450BD86068C0F381000228F5D15C
:101B50000CE000BFFFF7EAF8C11B494502D903209A
:101B6000BDE8F087606810F00C0FF3D1D8F80010D2
:101B7000404601F00701B1420BD9016821F007018D
:101B800031430160006800F00700B04201D001203D
:101B9000E6E72878400705D56068E96820F4E0604A
:101BA000084360602878000706D56068296920F43A
:101BB000605040EAC100606000F03CF86168084A8B
:101BC000C1F30311515CC840064908600020FFF7CB
:101BD000E3FB0020C4E700000020024000100240A8
:101BE000106F0008C4020020014800687047000020
:101BF000C40200200448054900684968044AC1F34A
:101C00000221515CC8407047C4020020001002400D
:101C1000206F00080448054900684968044AC1F378
:101C2000C221515CC8407047C4020020001002402D
:101C3000206F000812A185B00FC98DE80F0014A015
:101C4000144A006804905168134801F00C03042BF7
:101C500010D0082B0ED1C1F38343C9031DF8030034
:101C60000AD5516804AAC1F34041515C0A4A504365
:101C7000B0FBF1F005B0704708494843FAE70000AF
:101C800002030405060708090A0B0C0D0E0F1010BD
:101C9000010200000010024000127A0000093D001D
:101CA0002DE9F84F04460078B94DC00748D0686860
:101CB000C0F38100012807D06868C0F381000228C2
:101CC00009D16868C00306D52868800338D56068E4
:101CD00000286FD034E06068B0F5803F0BD010B1C1
:101CE000B0F5A02F11D0286820F480302860286833
:101CF00020F4802002E0286840F48030286060688A
:101D000088B1FFF713F8064609E0286840F4802000
:101D10002860F0E7FFF70AF8801B642875D8286868
:101D20008003F7D50CE0FFF701F8064605E000BF99
:101D3000FEF7FCFF801B6428F0D828688003F7D4E6
:101D40002078944E80074FF001094FF000083BD5F2
:101D5000686810F00C0F07D06868C0F38100022893
:101D600009D16868C00306D42868800714D52069A3
:101D700001281FD110E02069B0B1C6F80090FEF72D
:101D8000D5FF074605E000BFFEF7D0FFC01B0228C5
:101D9000C4D828688007F7D52868616920F0F80062
:101DA00040EAC10028600FE0C6F80080FEF7BEFFE1
:101DB000074606E0E9E000BFFEF7B8FFC01B0228B7
:101DC00023D828688007F7D4207800072CD57248DC
:101DD000A169D9B1C0F80090FEF7A8FF074604E05A
:101DE000FEF7A4FFC01B02280FD8686A8007F7D54A
:101DF0006A484FF4FA510068B0FBF1F0009000BF60
:101E00000098411E0091FAD20EE080E0C0F80080F8
:101E1000FEF78CFF074604E0FEF788FFC01B022890
:101E200075D8686A8007F7D42078400760D5E869DC
:101E30000027C00008D4E86940F08050E861E869F4
:101E4000012700F08050009055480168C90513D45F
:101E50000168834641F480710160FEF767FF8246A6
:101E600006E000BFFEF762FFA0EB0A0064284ED830
:101E7000DBF80000C005F5D5E06801280AD008B1FC
:101E8000052813D0286A20F001002862286A20F073
:101E9000040002E0286A40F001002862E06841F294
:101EA000883B98B1FEF742FF82460BE0286A40F07B
:101EB00004002862EEE700BFFEF738FFA0EB0A013E
:101EC00059455AD8286A8007F6D50CE0FEF72EFF50
:101ED000824605E0FEF72AFFA0EB0A0159454CD8DF
:101EE000286A8007F6D41FB1E86920F08050E861C5
:101EF000E06988B36968C1F38101022945D00228ED
:101F0000C6F8608004D0FEF711FF044638E034E0E4
:101F1000FEF70CFF074604E0FEF708FFC01B02288F
:101F20002BD828688001F7D4206AB0F5803F05D10E
:101F30006868A16820F4003008436860D4E90801AB
:101F40000843696821F4741108436860C6F860901A
:101F5000FEF7ECFE044606E015E000BFFEF7E6FEE5
:101F6000001B022809D828688001F7D50BE000BFC4
:101F7000FEF7DCFE001B022802D90320BDE8F88F23
:101F800028688001F4D40020F8E70120F6E700007B
:101F9000001002400000424280044242C40200207D
:101FA0000070004070B5040005D00025A56294F8CB
:101FB000510010B104E0012070BD204600F034F85B
:101FC000022084F851002068016821F0400101607E
:101FD000D4E901010843D4E90312114308436169BC
:101FE0000843218B01F400710843E1690843216A29
:101FF0000843A16A084321680860A069042101EA36
:102000001040616A0843216848602168E06A0861FD
:102010002068C16921F40061C1616565012084F80F
:102020005100002070BD000010B50068124986B054
:1020300088421ED11148C16941F48041C161C06923
:102040000F4C00F4804004904FF420400090022098
:1020500001900320039069462046FEF783FD00218E
:102060004FF48040CDE90001029169462046FEF719
:1020700079FD06B010BD000000380040001002409D
:10208000000C01404FF0E0210428086903D020F043
:1020900004000861704740F00400FAE7704710B58B
:1020A000401EB0F1807F01D3012010BD4FF0E0242D
:1020B00060610F21601701F0C6F90020A0610720C0
:1020C0002061002010BD10B5FFF7E8FF10BD70477C
:1020D000704730B590F83C20012A20D0012280F8CA
:1020E0003C20022380F83D3003685C6824F07004D3
:1020F0005C6003685C680D682C435C6003689C68E6
:1021000024F080049C6003689C6849680C439C60D0
:1021100080F83D20002180F83C10084630BD0220A8
:1021200030BD10B5040003D094F83D0010B107E0B5
:10213000012010BD002084F83C00204600F00CF87F
:10214000022084F83D00211D206801F085FC01205B
:1021500084F83D00002010BD00B5164A01681648FD
:1021600085B091421AD1816941F400618161806931
:10217000694600F4006004909015009000200190E2
:1021800002900E48FEF7EEFC002211461B20FFF7DE
:1021900077F91B20FFF768F905B000BD084A9142A6
:1021A000FAD1C16941F00201C161C06900F00200C9
:1021B0000490F1E7002C01400010024000080140AB
:1021C0000004004070B5044690F83C00012817D088
:1021D000012584F83C50022084F83D002068826884
:1021E00022F0770222F47F4282600868502837D0BC
:1021F0000DDC202859D005DC88B3102841D151E0EE
:10220000022070BD302853D040283AD13FE06028EA
:102210002ED070280BD0B0F5805F03D0B0F5005FF2
:102220002FD110E02068816821F0070115E0CB680C
:10223000D1E90121206801F050FC2168886840F054
:10224000770088601DE0CB68D1E90121206801F0AA
:1022500044FC2068816841F48041816011E01EE007
:10226000CA684968206801F0EDFC5021206806E04A
:10227000CA684968206801F023FD6021206801F0E8
:1022800036FC84F83D50002084F83C0070BDCA68DC
:102290004968206801F0D6FC40212068EFE7002162
:1022A0002068ECE710212068E9E720212068E6E7B4
:1022B00030212068E3E770472DE9F041044690F8AB
:1022C0003C000D4601283BD0012684F83C600220EA
:1022D00084F83D009AB3042A44D02068082A53D0D9
:1022E000D5E90027E968036A23F480530362D0F834
:1022F0001CC0036A2CF4407C4CEA07274FF6FF7C95
:1023000027F470470CEA01313943770323F4005373
:1023100007EA02321A43C16102622068C16921F4EE
:102320004061C1612068C169AA6841EA0221C161B6
:1023300084F83D60002084F83C00BDE8F08101E0B5
:102340000220FAE7D5E90012EB68206801F08CFC66
:102350002068816921F00C01816120688169AA6887
:1023600011430FE0D5E90012EB68206801F0BAFCD8
:102370002068816921F44061816120688169AA68CF
:1023800041EA02218161D3E7D5E9002C2F7B016A64
:1023900021F480710162C169036A21F0030141EAFD
:1023A0000C0121F0F00C39074FF420674CEA116161
:1023B00023F4206307EA02221A43C1610262206803
:1023C000C16921F00C01C1612068C169AA6811438B
:1023D000ADE710B5040003D094F83D0010B107E05C
:1023E000012010BD002084F83C00204600F00CF8CD
:1023F000022084F83D00211D206801F02DFB012002
:1024000084F83D00002010BD704710B502680446F6
:1024100031B1042908D0082915D00C2908D116E0BB
:10242000D06840F0020002E0D06840F00400D060C4
:102430000122206801F046FB2068016841F001019B
:102440000160002010BDD06840F00800EFE7D068C0
:1024500040F01000EBE770B50446006801694FF0EA
:102460000005C943890715D4C168C943890711D438
:10247000E91E0161012020772068806980072046DD
:1024800002D0FFF718FF04E000F0B6F8204600F095
:102490006FF9257720680169C943490717D4C168D6
:1024A000C943490713D46FF004010161022020776A
:1024B0002068806910F4407F204602D0FFF7FBFEC1
:1024C00004E000F099F8204600F052F925772068E2
:1024D0000169C943090716D4C168C943090712D461
:1024E0006FF008010161042020772068C06980072F
:1024F000204602D0FFF7DFFE04E000F07DF8204622
:1025000000F036F9257720680169C943C90617D458
:10251000C168C943C90613D46FF0100101610820D6
:1025200020772068C06910F4407F204602D0FFF772
:10253000C2FE04E000F060F8204600F019F92577AB
:1025400020680169C943C90708D1C168C943C907DF
:1025500004D1891E0161204600F024F92068016938
:10256000C943090609D4C168C943090605D46FF0F7
:10257000800101612046FFF7AAFD20680169C94377
:10258000490609D4C168C943490605D46FF0400122
:102590000161204600F007F920680169C9438906F6
:1025A0000BD4C168C943890607D46FF020010161CB
:1025B0002046BDE87040FFF78BBD70BD1FB50068B9
:1025C0000A49884210D10224C020CDE9000469469E
:1025D00007480394FEF7C6FA0320CDE900046946D4
:1025E00004480394FEF7BEFA1FBD0000000400403B
:1025F00000080140000C0140704770B50D46040012
:1026000003D094F83D0010B107E0012070BD002018
:1026100084F83C00204600F015F8022084F83D00C4
:10262000211D206801F018FA2068016821F00801D6
:1026300001602068016829430160012084F83D00A1
:10264000002070BD08B50068B0F1804F08D1054882
:10265000C16941F00101C161C06900F00100009051
:1026600008BD00000010024070B5044690F83C0020
:102670000D4601280DD0012684F83C60022084F824
:102680003D0042B1042A18D0082A2AD00C2A4DD184
:1026900039E0022070BD206801F032FA20688169BB
:1026A00041F0080181612068816921F004018161A4
:1026B000206881692A69114311E0206801F048FA15
:1026C0002068816941F4006181612068816921F499
:1026D00080618161206881692A6941EA0221816102
:1026E00024E0206801F060FA2068C16941F0080127
:1026F000C1612068C16921F00401C1612068C1691C
:102700002A69114311E0206801F07AFA2068C16952
:1027100041F40061C1612068C16921F48061C16137
:102720002068C1692A6941EA0221C16184F83D60DB
:10273000002084F83C0070BD10B5040003D094F86C
:102740003D0010B107E0012010BD002084F83C00DE
:10275000204600F00CF8022084F83D00211D20687E
:1027600001F07AF9012084F83D00002010BD704787
:102770007047000010B504460068012201F0A2F97C
:1027800007492068884203D1416C41F4004141640B
:102790002068016841F001010160002010BD0000C7
:1027A000002C01407047704770B5040004D094F8C5
:1027B0003900002510B106E0012070BD84F83850C2
:1027C000204600F023F8242084F839002068C168EE
:1027D00021F40051C160204601F0A0FA206801698F
:1027E00021F4904101612068416921F02A01416191
:1027F0002068C16841F40051C160E563202084F87D
:10280000390084F83A00002070BD0000F0B503687C
:10281000274F0220002427490322274D460285B076
:10282000BB4212D18B6943F480438B618969039267
:1028300001F4804104910102CDE900106946284667
:10284000FEF790F9CDE9006414E01C4FBB4218D1AB
:10285000CB6943F40033CB61C969039201F40031C1
:1028600004910421CDE9001069462846FEF77AF963
:1028700008201AE0694628460294FEF773F905B06D
:10288000F0BD0F4DAB42FAD1CB6943F48023CB614D
:10289000C9690C4D01F48021CDE90321CDE9006027
:1028A00069462846FEF75EF9E814CDE90004E1E741
:1028B0000038014000100240000801400044004080
:1028C00000480040000C01402DE9F843044690F810
:1028D00039001F4616460D46202850D1A5B19EB19D
:1028E00094F8380001284AD0012084F838004FF0CD
:1028F0000008C4F83C80212084F83900FEF716FA5D
:10290000A6848146E68426E00120BDE8F883E08CB9
:10291000401EE084A0684B46B0F5805F4FF0000297
:102920004FF080012046009703D001F0AFFAE8B9DC
:102930000DE001F0ABFAC8B928882168C0F308009F
:102940004860206908B16D1C05E0AD1C03E02168FA
:1029500015F8010B4860E08C0028D8D14B460022C6
:1029600040212046009701F091FA08B10320CCE7FE
:10297000202084F8390084F838800020C5E7022040
:10298000C3E7FEE701684A69D24352050CD46FF4ED
:1029900080624A6104210164002140F8301F202236
:1029A0004273017301207047002070472DE9F84FF2
:1029B0000446C06A1E4692460D4621680A6842F4E3
:1029C00080620A60042807D0012805D010F5803FF6
:1029D00002D0206B112804D12068016841F4807175
:1029E00001604FF0011853460022414620460096F0
:1029F00000F0BDF8B8BB206908F10109B0F5804FBF
:102A000012D00620216800EAD51747F0F0000861CF
:102A10003346524608F10701204600F0D9F838B194
:102A2000206C04282FD01EE0E8B240F001001FE027
:102A30002168E8B20861334652464946204600F014
:102A4000C7F80028ECD120684169816900910168CC
:102A500041F48071016053460022414620460096B1
:102A600000F085F810B10320BDE8F88F47F0F100C1
:102A700021680861334652464946204600F0A8F8CE
:102A80000028CDD1F0E70120EEE70000F8B50446BC
:102A9000C06A1E460D461746042807D0012805D0F7
:102AA00010F5803F02D0206B122804D12068016805
:102AB00041F480710160134600224FF0011120465D
:102AC000009600F054F8A0B92069B0F5804F12D0FC
:102AD0000620216800EAD51040F0F0000861334676
:102AE0003A460E49204600F073F838B1206C0428AD
:102AF00011D00320F8BD05F0FE0000E0E8B2216827
:102B00000861064933463A46891F204600F060F8BE
:102B10000028EBD1F8BD0120F8BD0000080001003D
:102B200070B516460D4604461AE02046FFF72AFF08
:102B300008B1012070BD681C12D025B1FEF7F6F86F
:102B4000801BA8420CD954F8400F40F0200044F8F4
:102B5000100900202060202161732073032070BDC4
:102B600020684069C0434007DFD4002070BD2DE9D4
:102B7000F0471E4690460D460446C1F30747DDF870
:102B8000209012E0701C10D02EB1FEF7CFF8A0EB11
:102B90000900B04209D9002044F8300F20216173A8
:102BA000A07320730320BDE8F0872068012F0AD0AE
:102BB000806925EA00000004000C06D00021414590
:102BC000E0D00020EFE74069F3E70121F7E70000DC
:102BD0002DE9F0479A4691460D46044600264FF0EF
:102BE0002008C1F307472AE020684069C043400538
:102BF00012D42068016841F40071016021686FF40B
:102C00008060486104202064266384F83D8084F855
:102C10003C600120BDE8F087B9F1FF3F0FD0B9F16A
:102C2000000F05D0FEF782F8A0EB0A01494506D94E
:102C300044F8306F84F80D8026730320EAE720689B
:102C4000012F07D0D0F8180025EA00000004000C7E
:102C5000E0D0C9E74069F7E72DE9F041002590464B
:102C60000E460446202721E04069C043C0060CD42C
:102C700021686FF0100048612564256384F83D7079
:102C800084F83C500120BDE8F0812EB1FEF74EF8EB
:102C9000A0EB0800B04209D954F8400F40F02000E2
:102CA00044F80409677025700320ECE72068416947
:102CB000C9434906D8D40020E5E770B516460D464D
:102CC00004461AE02046FFF75DFE08B1012070BD02
:102CD000681C12D025B1FEF729F8801BA8420CD938
:102CE00054F8400F40F0200044F810090020206004
:102CF000202161732073032070BD20684069C043A8
:102D00000006DFD4002070BD2DE9F041304886B0C8
:102D1000816941F010018161816901F01001049124
:102D2000816941F020018161816901F020010491F4
:102D3000816941F004018161816901F0040104911C
:102D4000816941F0080181618069224F00F008002B
:102D50004FF400540490002221463846FDF7E0FF6E
:102D6000DFF87480002230214046FDF7D9FF0125AD
:102D7000CDE9004500240226CDE9024669463846E1
:102D8000FDF7F0FE4FF4847000901448CDE9010483
:102D900069464046FDF7E6FE3020CDE90005CDE965
:102DA000024669464046FDF7DDFE00221146092035
:102DB000FEF766FB0920FEF757FB0022114617209D
:102DC000FEF75EFB1720FEF74FFB06B0BDE8F08173
:102DD0000010024000100140000C014000001110E2
:102DE0000B4810B5094901600A49416000214FF4C0
:102DF00080428160C0E9031241618161C161016269
:102E0000FDF79AFF002800D0FEE710BD00540040F7
:102E1000E8030020801A06000E4810B50C49016036
:102E20004FF48271416000218160C1604FF40072F3
:102E30000161C0E905120822C0E9072141628162EF
:102E40000A21C162FFF7AEF8002800D0FEE710BDEE
:102E5000003800403C04002010B51D488AB01B49D2
:102E6000016047210024C0E901144FF6FF71C0E959
:102E7000031444618461FFF754F900B1FEE74FF495
:102E80008050049004A91248FFF79CF900B1FEE7B6
:102E90000F48FFF79EFA00B1FEE7089408A90C4816
:102EA0000994FFF716F900B1FEE70120CDE90040D3
:102EB0000F20CDE90240002269460548FFF7FCF9E2
:102EC000002800D0FEE70AB010BD0000002C014031
:102ED0009404002010B527488EB0254901600321D5
:102EE0000024C0E9011448F60451C0E903148461C8
:102EF000FFF717F900B1FEE74FF48050079007A9DC
:102F00001C48FFF75FF900B1FEE71A48FFF714FC11
:102F100000B1FEE70B940BA916480C94FFF7D9F803
:102F200000B1FEE76020CDE900040294002269466A
:102F300010480494FFF798FB00B1FEE704226946AD
:102F40000C48FFF791FB00B1FEE7082269460948EB
:102F5000FFF78AFB00B1FEE70C2269460548FFF740
:102F600083FB00B1FEE70348FFF728FB0EB010BD5E
:102F7000000400401405002010B50022084909484B
:102F800001F017FA0849074801F015FC0749054800
:102F900001F070F8BDE81040024801F059BC000093
:102FA0007002002098060020A8030020A402002040
:102FB0002DE9FF4FFF4C97B081469A461999206939
:102FC000FDF72AF906461899E068FDF725F9054648
:102FD000A068494680F00040FDF71EF92946FDF73C
:102FE00015F93146FDF712F94FF0FF373946FDF775
:102FF00083F9804618992069FDF70EF9064619995C
:10300000E068FDF709F9616805464846FDF704F9EF
:103010002946FDF7A9F83146FDF7F8F83946FDF7DE
:103020006BF9216906464846FDF7F6F8834619997B
:10303000A068FDF7F1F8054618996068FDF7ECF80F
:103040002946FDF7E3F85946FDF78EF83946FDF7B6
:1030500053F9E16805464846FDF7DEF883461899BE
:10306000A068FDF7D9F8814619996068FDF7D4F892
:103070004946FDF779F85946FDF7C8F83946FDF796
:103080003BF907461AF0FF4F07D1249810F0FF4F85
:1030900003D1259810F0FF4F7ED025990846FDF703
:1030A000BBF8249983460846FDF7B6F88146514699
:1030B0000846FDF7B1F84946FDF756F85946FDF7C1
:1030C00053F802F003FE814601465046FDF7A4F88E
:1030D0001A9049462498FDF79FF824904946259870
:1030E000FDF79AF8834601216068FDF705F9149011
:1030F0000121A068FDF700F912900121E068FDF7B9
:10310000FBF8139001212069FDF7F6F815900221D4
:103110006068FDF7F1F802900221A068FDF7ECF875
:1031200005900221E068FDF7E7F804900321A0680C
:10313000FDF7E2F803900321E068FDF7DDF80C905D
:1031400061686068FDF768F81090A168A068FDF7F5
:1031500063F80190E168E068FDF75EF8009021698E
:103160002069FDF759F8099024991298FDF754F851
:103170000D90DDE90110FDF74FF882461A9913987A
:10318000FDF74AF8814600990298FDF745F849464F
:10319000FCF7EAFF514600E0EEE0FCF7E5FF0D9991
:1031A000FDF734F8029059460598FDF735F80A9076
:1031B00000990398FDF730F80D9001990398FDF7F9
:1031C0002BF8824624991498FDF726F80E900221D8
:1031D0001098FDF791F81690A168FDF71DF881464B
:1031E0001A991598FDF718F8119009990598FDF7A7
:1031F00013F81199FDF70AF84946FCF7B5FF0E9947
:10320000FDF704F80599FDF701F85146FCF7ACFF0E
:103210000D99FCF7A9FF0A99FCF7A6FF82465946CB
:103220000498FCF7F9FF814600990C98FCF7F4FF2D
:103230000A9001990C98FCF7EFFF0C9024991598CF
:10324000FCF7EAFF0E9009990498FCF7E5FF0F9050
:103250001A991498FCF7E0FF83461698E168FCF78A
:10326000DBFF5946FCF780FF0F99FCF77DFF0E99B5
:10327000FCF7CCFF0499FCF7C9FF0C99FCF774FF2D
:103280000A99FCF771FF4946FCF76EFF83462499C3
:103290001398FCF7C1FF059002210098FDF72CF868
:1032A0002169FCF7B9FF81461A991298FCF7B4FF1F
:1032B000009002210198FDF71FF82169FCF7ACFF8F
:1032C0000099FCF7A3FF4946FCF74EFF0599FCF770
:1032D0009DFF81460146FCF79FFF59460590084631
:1032E000FCF79AFF514600900846FCF795FF0299BB
:1032F0000A900846FCF790FF0A99FCF735FF009901
:10330000FCF732FF0599FCF72FFF02F0DFFC0146C6
:1033100000900298FCF780FF029050460099FCF75D
:103320007BFF824658460099FCF776FF8346484665
:103330000099FCF771FF814602992068FCF76CFF49
:103340004146FCF766FF804651462068FCF764FF63
:103350003146FCF75EFF064659462068FCF75CFFE5
:103360002946FCF756FF054649462068FCF754FFFE
:103370003946FCF74EFF07460F480068FDF770F925
:103380000E49FCF77BFF81464146FCF745FF61682B
:10339000FCF7EAFE606048463146FCF73DFFA16855
:1033A000FCF7E2FEA06048462946FCF735FFE168DD
:1033B00006E00000000000206002002000247449A4
:1033C000FCF7D2FEE06048463946FCF725FF21694C
:1033D000FCF7CAFE206121692069FCF71DFFE16846
:1033E0000746E068FCF718FFA1680646A068FCF7EE
:1033F00013FF616805466068FCF70EFF2946FCF77D
:10340000B3FE3146FCF7B0FE3946FCF7ADFE02F0E4
:103410005DFC054601466068FCF7FEFE60602946DB
:10342000A068FCF7F9FEA0602946E068FCF7F4FE0E
:10343000E06029462069FCF7EFFE20611BB0BDE883
:10344000F08FFEE770470907090E002806DA00F042
:103450000F0000F1E02080F8141D704700F1E0201B
:1034600080F8001470472DE9FC5F4FF00008044617
:10347000ADF80480ADF8008048F60F7B4FF00209EC
:103480004FF4806692E1BDF8041011F00F072BD0C5
:1034900030F82710ADF80010BDF80010090478D5F9
:1034A00030F8272040F68F710A4020F8272004EBDF
:1034B000471595F8320205F50A750028206869D08D
:1034C000297830F8212052047DD5B0F8503009EB2E
:1034D000C101194406EB4101415AC1F309015FEAF8
:1034E000010A71D0EA88D0E0BDF80410C9062AD4D8
:1034F000018801EA0B010180206804F12805B0F879
:1035000050202B7809EBC301114406EB4101405ACE
:10351000C0F309006064E16B0844E06300212046C9
:10352000FEF70DF894F824000028ABD0A869002815
:10353000A8D194F82400216840F08000A1F84C0044
:1035400084F8248032E1018804F50A75ADF8001092
:10355000BDF8001009051ED5B0F8503029780622B4
:1035600002EBC101194406EB4101405A04F22C411F
:10357000C0F30903EB61AA88206801F093FD20687D
:10358000018840F68F72114001802046FEF7D9F97C
:103590000CE1A0E055E0BDF800100904D2D5028886
:1035A00040F68F710A4002802068B0F850302978C8
:1035B000062202EBC101194406EB4101405A830582
:1035C0009B0DEB6101E051E063E008D0AA886969D6
:1035D000206801F067FDE9696869084468610021B5
:1035E0002046FDF7B3FF2068B0F85010891D06EBA8
:1035F0004101014428693E280CD9C0F34F12C0068E
:1036000001D1521E92B24FF6FF7000EA822040F4C0
:10361000004009E0C0F34F02C00701D0521C92B233
:103620004FF6FF7000EA82200860216808884BF698
:103630008F72104080F4405048F28002104308809E
:10364000B4E0B0F850202B78062101EBC3011144FF
:1036500006EB4101415AC1F309015FEA010A24D096
:10366000AA885346696901F01DFD1EE0B0F850209C
:10367000062303EBC101114406EB4101415AC1F39A
:1036800009015FEA010A04D02A895346696901F0F9
:1036900009FD2978206830F8213048F68F721340F0
:1036A00048F2C002134320F82130E96901EB0A0017
:1036B000E861696901EB0A026A61AB6913B12869C3
:1036C000504504D929782046FDF740FF03E02978CA
:1036D0002046FDF7B1FFBDF80000000666D5206862
:1036E00004EB471530F8271001EA0B0120F82710EA
:1036F00095F8320028350028206812D0297830F853
:103700002120B0F8503052061ED509EBC1011944F2
:1037100006EB4101405A83059B0DEB6124D0EA88FA
:103720001EE0B0F850302A7809EBC201194406EBCC
:103730004101405A83059B0DEB6121D0AA8869693C
:10374000206801F0C6FC1BE0062202EBC10119440F
:1037500006EB4101405A83059B0DEB6104D02A8999
:103760006969206801F0B5FC2978206830F82120CB
:1037700048F68F731A404CF280031A4320F8212038
:103780002068B0F850202B7809EBC301114406EBF8
:103790004101405AC0F30900E86169690A186A6189
:1037A0002978AB69204663B1FDF788FF2068B0F83F
:1037B0004410ADF8041009043FF565AE0020BDE8E3
:1037C000FC9FFDF7BCFEF1E7704700002DE9FF5FAD
:1037D0004C4C21682068FCF71FFD4B4D0290296876
:1037E0002868FCF719FD494E824631683068FCF7BD
:1037F00013FD474F019039683868FCF70DFD0090C4
:103800008AF000400199FCF701FD0099FCF7ACFC3F
:103810000299FCF7A9FCFCF767FF894621688046FE
:103820002868FCF7F9FC396883463068FCF7F4FC3B
:103830005946FCF799FCFCF757FF0122FCF7F0FE14
:1038400042464B4602F076F9FCF792FF2168834628
:103850003068FCF7E1FC396880462868FCF7DCFC3E
:103860004146FCF7D3FCFCF73FFF00224FF04043FA
:10387000FCF7F5FD01F016FFFCF77AFF03905046C8
:103880000199FCF7C3FC0099FCF7C0FC0299FCF716
:103890006BFCFCF729FF8946216880463868FCF7F5
:1038A000BBFC316804462868FCF7B6FC2146FCF7EF
:1038B0005BFCFCF719FF0122FCF7B2FE42464B46C7
:1038C00002F038F9FCF754FFDFF84880074641461C
:1038D0005846FCF7A1FC104C06464146E0610398AF
:1038E000FCF79AFC0546206241463846FCF794FCFA
:1038F00086F000412161606280F00040C4E905501B
:10390000BDE8FF9F04000020080000200C000020FC
:1039100010000020E12E6542980000207047000052
:10392000054810B50168491C0160FDF71BFDBDE8A5
:103930001040FEF7C8BB00006000002030B593B017
:1039400001210804CDE9001000240294022504910D
:10395000CDE907504FF4E01009906846FEF7A0F952
:1039600000B1FEE70F20CDE90A054FF48060CDE9F4
:103970000C4002210AA80E94FEF78CF800B1FEE775
:1039800010200F9012940FA8FEF70EF800B1FEE77A
:10399000FEF72AF94FF47A71B0FBF1F0FEF77FFBE6
:1039A0000420FEF76FFB00221146501EFDF768FD54
:1039B00013B030BD0D48016841F00101016041685C
:1039C0000B4A1140416001680A4A114001600168D8
:1039D00021F480210160416821F4FE0141604FF42F
:1039E0001F0181600449C003086070470010024055
:1039F0000000FFF8FFFFF6FE08ED00E070B511488B
:103A00000068416A104C0025216045620D48FEF7B0
:103A100022FD226840F6B8300C49824201D90D607F
:103A200070BD0868082805D2094B43F82020401CC7
:103A3000086001E00928F3D002F09EFB0549086008
:103A400070BD000094040020B40200206C0200202D
:103A500078060020C0000020F0B50268164B174C15
:103A6000174D4FF08047984205D0B84203D0A0428E
:103A700001D0A84203D122F070064A68324398422E
:103A800005D0B84203D0A04201D0A84203D122F40D
:103A90004074CA68224322F080044A6922430260CB
:103AA0008A68C2620A688262984201D10969016328
:103AB00001214161F0BD0000002C014000040040E4
:103AC0000008004010B50123046A8B409C43046247
:103AD000036A8A401343036210BD10B5846842EA4A
:103AE000032224F47F440A432243826010BD82688B
:103AF00022F070020A4342F0070181607047000023
:103B000030B5026A22F001020262026A43688469E7
:103B100024F073050C682C4322F002058A682A43BE
:103B20000A4DA8420BD122F00805CA6823F440735D
:103B30002A434D6922F004021D438B692B434360E5
:103B4000846149684163026230BD0000002C01407D
:103B500030B5026A22F010020262026A4368846988
:103B60000D6824F4E64444EA05248D6822F020021E
:103B700042EA05120B4DA8420ED1CD6822F0800218
:103B800042EA05124D6923F4406343EA85038D69D7
:103B900022F0400243EA85034360846149688163FF
:103BA000026230BD002C014030B5026A22F48072FE
:103BB0000262036A4268C46923F4007324F0730547
:103BC0000C682C438D6843EA05230C4DA8420ED1A6
:103BD000CD6823F4006343EA05234D6922F4405283
:103BE00042EA05128D6923F4806342EA05124260BD
:103BF000C4614968C163036230BD0000002C01400C
:103C000030B5026A22F480520262046A4268C369D3
:103C10000D6823F4E64343EA05238D6824F4005439
:103C200044EA0534064DA84204D14D6922F480428D
:103C300042EA85124260C36149680164046230BD92
:103C4000002C014010B5036A046A24F001040462E8
:103C5000846924F0F00444EA021423F00A020A43BF
:103C60008461026210BD000070B5046A24F0010492
:103C700004628469056A0F4EB04208D0B0F1804FEB
:103C800005D00D4EB04202D00C4EB04203D124F00C
:103C90000304144301E044F001041A0724F0F00483
:103CA00044EA126225F00A0301F00A011943826115
:103CB000016270BD002C014000040040000800407B
:103CC00010B5036A23F0100303628369046A23F4C6
:103CD000704343EA023224F0A00343EA01118261F7
:103CE000016210BD30B5046A24F0100404628469D6
:103CF000056A24F4407444EA022222F470444FF628
:103D0000FF7202EA03322243A02425F0A00304EA52
:103D1000011119438261016230BD00002DE9F041BB
:103D2000044600680169E26821F4405111430161D1
:103D30002169A0680843616908432168CA6841F2A3
:103D40000C639A430243CA6020684169A26921F466
:103D50004071114341614C492068642532268842F4
:103D60003CD1FDF757FF00EBC00101EB001061688B
:103D70008900B0FBF1F7FDF74DFF00EBC00101EB4F
:103D800000106168B0468900B0FBF1F0B0FBF5F0BF
:103D90006FF01801484307EB800106EB0110B0FB00
:103DA000F5F000F0F006FDF735FF00EBC00101EB88
:103DB000001061688900B0FBF1F0B0FBF5F006EB94
:103DC0000016FDF727FF00EBC00101EB0010616852
:103DD0008900B0FBF1F7FDF71DFF3BE0FDF70AFF9F
:103DE00000EBC00101EB001061688900B0FBF1F746
:103DF000FDF700FF00EBC00101EB00106168B04669
:103E00008900B0FBF1F0B0FBF5F06FF0180148430A
:103E100007EB800106EB0110B0FBF5F000F0F006B7
:103E2000FDF7E8FE00EBC00101EB001061688900BE
:103E3000B0FBF1F0B0FBF5F006EB0016FDF7DAFE93
:103E400000EBC00101EB001061688900B0FBF1F7E5
:103E5000FDF7D0FE00EBC00101EB001061688900A6
:103E6000B0FBF1F0B0FBF5F06FF01801484307EB41
:103E7000800108EB0110B0FBF5F0216800F00F00A5
:103E800030448860BDE8F081003801402DE9F04100
:103E9000984617460E460446069D1DE0681C1BD03A
:103EA0002DB1FCF743FFA0EB0800A84214D920680D
:103EB000C16821F4D071C1602068416921F001011D
:103EC0004161202084F8390084F83A00002084F809
:103ED00038000320BDE8F0812068006836EA000061
:103EE00004D00020B842D9D00020F3E70120F9E740
:103EF000D0F8180220B10021C0F81412084670470B
:103F00000220704770B50546D0F8184200F010FB4B
:103F1000C4F80C02D5F8180248B1D5F81C12D4F830
:103F20000402CA6804F503719047002070BD0220A6
:103F300070BD70B504460025812100F05FFA0121B3
:103F4000204600F05BFA8221204600F057FAD4F8B0
:103F5000180250B1D4F81C0204F50674406880477A
:103F6000206800F07BFD00202060284670BD10B561
:103F7000D0E9864159B194F80002FF2807D08B6838
:103F800094F8012221469847FF2084F8000200207F
:103F900010BD00000A21018000487047D0020020B7
:103FA0004321018000487047200300204321018005
:103FB00000487047DC020020432101800048704720
:103FC000640300202DE9F0410446007C00254FF4F5
:103FD000007670B3402302228121204600F00AFBC4
:103FE000402302220121204600F004FB0823032283
:103FF0008221204600F0FEFA4FF4077000F030FDF9
:10400000C4F81802F0B10746D4F81C0200688047D3
:104010000020C7F81402C7F81802207CD7F8042241
:1040200090B140230121204600F0F7FA2846BDE870
:10403000F081FFE7334602228121204600F0DAFAC0
:104040003346CEE70125F1E73346EBE710B5D0F86C
:10405000181269B1027C002AD1F8042205D040234D
:10406000012100F0DAFA002010BD4FF40073F7E7E9
:10407000022010BD02460220002902D00020C2F812
:104080001C127047D0F81802C0F8041200207047C4
:10409000D0F81802C0F81022C0F8081200207047AB
:1040A00070B50646D0F8185208780C4610F060013A
:1040B00021D0202927D1E288AAB10006607807D54F
:1040C000D6F81C128B6829469847E288294617E0E3
:1040D00085F80002A07985F80102E2882946304679
:1040E00000F038F80FE0D6F81C12607800228B68D8
:1040F0002146984707E060780A2804D10349012245
:10410000304600F041F8002070BD0000CC020020D5
:1041100010B5D0F8142252689047002010BD134605
:1041200010B50A46002100F078FA002010BD1346B1
:1041300010B50A46002100F01AFB002010BD10B592
:104140000446802100F0EAFA2046BDE81040002134
:1041500000F0E4BA10B50323C0F80821C0F8F43128
:10416000C0F80C2113460A46002100F056FA002040
:1041700010BD10B505210023C0F8F4111A461946E8
:1041800000F04BFA002010BD10B502238261C0F888
:10419000F431C26113460A46002100F0E8FA00201B
:1041A00010BD10B504210023C0F8F4111A461946B9
:1041B00000F0DDFA002010BD10B50A46024903A048
:1041C00000F0D4F8004810BD3C0F002043444320C9
:1041D000436F6E66696700001220088000487047D0
:1041E0009002002010B50A46024903A000F0BEF874
:1041F000004810BD3C0F002043444320496E7465C5
:104200007266616365000000042008800048704702
:104210008C02002010B50A46024903A000F0A6F85F
:10422000004810BD3C0F002053544D6963726F6508
:104230006C656374726F6E696373000010B50A4633
:10424000024903A000F092F8004810BD3C0F002086
:1042500053544D3332205669727475616C20436F2C
:104260006D506F727400000010B50A46024903A039
:1042700000F07CF8004810BD3C0F0020303030309A
:10428000303030303030314100000000F8B50446A5
:1042900048880D46010A08294BD2DFE801F04A049C
:1042A00009174A4A4048D4F81012207C0A6832E0C4
:1042B000207C02260028D4F8140205D0C16A684682
:1042C00088470146467041E0816AF8E7C0B2062897
:1042D0002FD2DFE800F003080D12171CD4F81012DB
:1042E000207C4A6817E0D4F81012207C8A6812E01B
:1042F000D4F81012207CCA680DE0D4F81012207C8B
:104300000A6908E0D4F81012207C4A6903E0D4F866
:104310001012207C8A6969469047014616E0207C8D
:1043200038B9D4F81402416B68468847F5E7207C19
:1043300020B129462046FFF702FFF8BDD4F8140249
:10434000016B68468847014607204870BDF80000A9
:104350000028F2D0EA88002AEFD0824200D9024633
:10436000ADF800202046FFF70FFFF8BD70B5002321
:1043700000281DD00446002502E06D1CEDB2641C2F
:104380002678002EF9D1022404EB45041480CC5485
:104390005B1C0322CA5400245B1C06E0CA545B1C4D
:1043A000DAB28C54521CD3B2401C0278002AF5D1E8
:1043B00070BD10B580B1D0F8143213B10023C0F82D
:1043C000143209B1C0F81012012180F8FC110270FA
:1043D00000F0B2F8002010BD022010BD10B500247E
:1043E000D0F82002FDF7DAF830B1012801D0022818
:1043F00001D0022400E00124204610BD10B50024A5
:10440000D0F82002FDF7AAF830B1012801D0022827
:1044100001D0022400E00124204610BD2DE9F04126
:104420001746044641B1D4F8140242698AB394F89D
:10443000FC01032842D043E0D4F8F411002504F134
:104440001400022933D1D0E902639E4207D9F31A3E
:1044500083609AB239462046FFF769FE12E0406851
:10446000B0FBF3F103FB1101A1B9984212D3D4F8C8
:10447000F81188420ED2002211462046FFF757FE5F
:10448000C4F8F85100231A461946204600F0C5F832
:104490000DE012E0D4F81402C16829B194F8FC01CF
:1044A000032801D1204688472046FFF762FE94F892
:1044B0000002012804D184F8005201E02046904710
:1044C0000020BDE8F08170B51546044641B1D4F82E
:1044D000140282693AB394F8FC01032824D025E041
:1044E000D4F8F41104F5827003291FD1D0E9022118
:1044F0008A420BD9531A83600846834200D303468D
:104500009AB229462046FFF70AFE0FE0D4F81402BB
:10451000016929B194F8FC01032801D1204688479C
:104520002046FFF73EFE01E020469047002070BD88
:10453000D0F82002FDF756B810B520490446C1F85E
:104540005C04C0F820121E48086008204860022061
:1045500088600320C86000208861C861086208463E
:10456000FDF748F920B14FF4977116A000F0C5FD92
:104570000022D4F820021823114604F50874FCF731
:10458000C3FF5823002280212068FCF7BDFFC02311
:10459000002281212068FCF7B7FF4FF488730022C6
:1045A00001212068FCF7B0FF4FF4807300228221C4
:1045B0002068FCF7A9FF002010BD0000DC0A0020E5
:1045C000005C00402E2E2F5372632F757362645F60
:1045D000636F6E662E6300000A06D0F8200201F0B9
:1045E0007F0100EB411002D590F82A00704790F847
:1045F0002A02704770B51D4613460024D0F82002E9
:104600002A46FCF7F7FF30B1012801D0022801D07B
:10461000022400E00124204670BD10B50024D0F82B
:104620002002FDF709F830B1012801D0022801D09D
:10463000022400E00124204610BD70B5002204468B
:1046400040231146FFF7D6FF40252B46002280214C
:104650002046C4F81051FFF7CDFF0120256284F8F1
:10466000FC01D4F8180228B1D4F814022179426868
:1046700020469047002070BD90F8FD1180F8FC1195
:104680000020704710B590F8FC11032904D1D0F830
:104690001412C96901B18847002010BD01740020BF
:1046A000704710B50024D0F82002FDF736F930B17C
:1046B000012801D0022801D0022400E00124204674
:1046C00010BD70B5044600F50270054600F05FF8B5
:1046D0000120C4F8F401B4F80E02C4F8F80194F80B
:1046E000080210F01F010AD001290DD0022910D0B4
:1046F00000F08001204600F011F8002070BD29462E
:10470000204600F0AAF8F8E72946204600F08CF988
:10471000F3E72946204600F019F9EEE710B500242A
:10472000D0F82002FCF79FFF30B1012801D0022809
:1047300001D0022400E00124204610BD10B5002461
:10474000D0F82002FDF704F930B1012801D0022889
:1047500001D0022400E00124204610BD90F8FC1195
:1047600080F8FD11042180F8FC110020704710B57D
:104770000024D0F82002FCF7A1FF30B1012801D0BD
:10478000022801D0022400E00124204610BD0A784E
:1047900002704A7842708A78CB7802EB032242801A
:1047A0000A794B7902EB032282808A79C97902EB7C
:1047B0000121C18070470246002011B1C2F81412D5
:1047C00070470220704710B5D0F8142202241AB1A5
:1047D0001268904700B90024204610BD70B50E46FF
:1047E0001A4D897804462970012928D894F8FC01CB
:1047F000022802D0032822D105E099B1032061608C
:1048000084F8FC0109E091B1606888420AD0C1B225
:104810002046FFF77DFC297861602046FFF7D3FF33
:1048200002280CD02046BDE87040FFF7BABC022039
:1048300084F8FC0120466160FFF76AFCF2E731462C
:104840002046BDE87040FFF77ABC0000C802002097
:1048500010B5FFF773FF002010BD2DE9F0410026D1
:104860004B78012532460A2B43D2DFE803F03C584F
:104870004251420805422A27FFF708FD63E004463B
:104880008888C8B9C888B8B9887800F07F0794F8D4
:10489000FC01032810D084F8FE7139462046FFF74A
:1048A00000FF2046FFF77DFC1FB1022084F8FC01C9
:1048B00049E084F8FC5146E020461AE0FFF78EFFFD
:1048C00041E0CB88012B14D190F8FC31022B02D0AF
:1048D000032B0ED104E08260012200F1080114E0F4
:1048E0000122011D11E090F8FC21022A04D0032AC4
:1048F00002D0FFF724FC26E0C560D0F8041209B10D
:104900000321C160022200F10C01FFF73DFC1AE017
:1049100004464888012816D1C4F804520BE0044626
:1049200090F8FC01022801D00328C5D1488801284D
:1049300009D1C4F80422D4F81402826820469047B2
:104940002046FFF72EFC3046BDE8F08170B50D46DD
:104950000446287800260979C0F34110012806D0C2
:104960006878A0B301281FD003283FD107E0D4F80E
:1049700014022946826820469047002070BD94F8B2
:10498000FC01022817D003282CD1688828B921B14E
:10499000802902D02046FFF7C1FED4F81402294630
:1049A00082682046904713E094F8FC01022802D068
:1049B000032817D103E0C9B180291BD116E068880C
:1049C000A0B9480604D02046FFF708FDE5E703E05C
:1049D0002046FFF7E6FB09E094F8FC01022807D027
:1049E00003280BD029462046FFF7A9FB304670BDAF
:1049F0004806FBD02046FFF791FEF7E7080601F0D6
:104A00007F0004EB001501D5143501E005F5827532
:104A10002046FFF7E1FD00B101202860022229466F
:104A20002046FFF7B1FBE1E770B5054690F8FC01C1
:104A30000C4603280DD1207901280AD8D5F8140294
:104A4000826828469047E08830B92846FFF7A9FBDE
:104A500002E02846FFF773FB002070BD704700009E
:104A600000487047BC0800202DE9F047CC780A7850
:104A700048F68F1334B1012C6DD0022C08D0032CD2
:104A800013D10BE030F822401C4044F400730AE0DC
:104A900030F822401C4020F8224006E030F8224046
:104AA0001C4044F4C06320F822300C7830F82450C5
:104AB00048F68F72154048F280031D43254320F8C5
:104AC00024508D7A48F6BF7904274BF68F7A48F246
:104AD000C0044CF28006EDB30D7830F825C048F2E2
:104AE00080180CEA020C4CEA080C20F825C0CD888E
:104AF000B0F850C025F0010591F800800CEBC80C0F
:104B000000EB4C0CCCF800540D89B0F850C025F0E7
:104B1000010591F8008007EBC807674400EB4707E1
:104B2000C7F800544D78002D0D7830F825704FEA05
:104B300047477DD0002F05DA30F8257017403743FE
:104B400020F825700D7830F825707F0608D530F8EC
:104B5000257001E024E01DE01740274320F8257070
:104B60000C7830F824501540354320F824500C7848
:104B700030F8242002EA09021A4320F824200A7897
:104B800030F8221001EA0A01194320F8221000200F
:104B9000BDE8F08730F822401C4044F4806382E78F
:104BA0004D78F5B18D88B0F8506025F001050F788B
:104BB00006EBC70600EB4606C6F800540D7830F841
:104BC0002560760605D530F825601640264320F886
:104BD00025600A7830F8221001EA090181F02001ED
:104BE000D2E78C88B0F8505024F0010491F800C04E
:104BF00007EBCC073D4400EB4505C5F80044B0F891
:104C000050400D78062707EBC5052C4400EB440700
:104C10000C694FF6FF7C07F580673E2C0CD9C4F376
:104C20004F15E40601D16D1EADB20CEA852400E0FB
:104C30001EE044F4004407E0C4F34F05E40701D04C
:104C40006D1CADB20CEA85243C600C7830F8245021
:104C50006D0405D530F824501540354320F8245014
:104C60000A7830F8221001EA0A0181F440518BE7FA
:104C7000002F05DA30F825701740374320F82570EB
:104C80000D7830F82560760605D530F82560164099
:104C9000264320F825600E7830F82650154025432D
:104CA00020F826500C7830F8242002EA0A0282F418
:104CB00040521A4320F824200A7830F8221001EAE2
:104CC000090161E7002070472DE9F04391F80A805F
:104CD00091F801C00A7848F6BF774BF68F7948F211
:104CE000800348F2C0054CF2800648F68F74B8F194
:104CF000000F2ED0BCF1000F30F822C04FEA4C4C10
:104D00004ED0BCF1000F07DA30F822C00CEA040CD8
:104D10004CEA060C20F822C00A7830F822C05FEA7C
:104D20004C6C07D530F822C00CEA040C4CEA050C98
:104D300020F822C00A7830F822502540354320F868
:104D400022500C7830F824203A401A4320F82420CE
:104D50001BE0BCF1000F0ED030F82260760605D5BE
:104D600030F8226026402E4320F822600A7830F87E
:104D7000221039400EE030F822506D0405D530F88D
:104D800022502540354320F822500A7830F822106E
:104D900001EA0901194320F822100020BDE8F08340
:104DA000BCF1000F07DA30F822C00CEA040C4CEA20
:104DB000060C20F822C00A7830F82260760605D565
:104DC00030F8226026402E4320F822600E7830F81A
:104DD000262022402A4320F826200C7830F8242070
:104DE00002EA09021A4320F82420BFE70020704796
:104DF0000020704700B50121A0F840100021A0F864
:104E00004010A0F84410A0F8501000F03AF900202B
:104E100000BD30F8401F21F43D4101800020704763
:104E20000020704730B54D780A78002D48F68F7411
:104E300030F8225048F2800312D06D0607D530F8C2
:104E40002250254048F2C004254320F822500A7819
:104E500030F8221048F6BF74214081F0300111E093
:104E60006D0407D530F8225025404CF280042543CC
:104E700020F822500A7830F822104BF68F74214027
:104E800081F44051194320F82210002030BD10B5A4
:104E90000A7848F2800352B14978002930F822108C
:104EA00010D048F6BF74214081F010010FE0018856
:104EB0004BF6BF72114081F4805181F0100119430B
:104EC000018007E04BF68F74214081F48051194333
:104ED00020F82210002010BD2DE9F0410D460646B5
:104EE000896995F801C00023AA7A022728690C462F
:104EF00048F28008BCF1010F05D0814252D9044626
:104F0000081AA8614FE0814203D90446081AA86133
:104F100000E0AB617AB1287836F820104906B6F87F
:104F2000501007EBC000084406EB4000C0F80044F6
:104F300012D52A8911E0A3B2AA883046696900F027
:104F4000C8F8B6F85000297807EBC101084406EB11
:104F50004000C0F800441CE0EA88A3B2304669690A
:104F600000F0B7F8687848F68F7110B1012807D0C3
:104F70000FE0287836F820200A4048F2C00105E00A
:104F8000287836F820200A404CF280010A4326F89F
:104F90002020297836F8210048F6BF72104080F0B2
:104FA000300067E0AB6106234FF6FF701AB1BCF129
:104FB000000F1BD056E0B6F850102A783E2C03EBB9
:104FC000C202114406EB410202F5806239D9C4F3F2
:104FD0004F11E30632D000BF00EA812040F40040C8
:104FE00002E000BF00EA812010603BE0B6F85010FC
:104FF0002A783E2C07EBC202114406EB410202F56F
:1050000080620BD9C4F34F115FEAC46C01D1491E11
:1050100089B200EA812141F4004108E0C4F34F0164
:105020005FEAC47C01D0491C89B200EA8121116089
:1050300069780029BFD001290AD013E0491E89B23E
:10504000CAE7C4F34F01E307CCD0491C89B2C9E7D2
:10505000B6F85000297807EBC101084406EB400080
:10506000C0F80044297836F821004BF68F721040C2
:1050700080F4405040EA080026F821000020BDE8F6
:10508000F08130F8401F41F43F410180002070471B
:105090000148FCF728BB0000DC0A0020B0F84400FF
:1050A000704700005B1C00EB42005B0800F580606D
:1050B00006D000BF30F8042B21F8022B5B1EF9D17B
:1050C00070470020704711B98021A0F84C100020D3
:1050D000704710B55B1C00EB42005B0800F5806078
:1050E00009D011F8012B5B1E11F8014B42EA042292
:1050F00020F8042BF5D110BDFEE7FEE70FB4054BF9
:1051000010B503A9044A029800F09AF810BC5DF8A3
:1051100014FB0000B55C0008E0030020490050EAE1
:10512000C12018BF04204A0D18BF40F0010040F212
:10513000FF72B2EB515F08BF40F00200012808BFC8
:10514000052070472DE9F0414F1E00EBC7010446D2
:10515000D1E9000115461E4637F006020DD02A4659
:105160003346FBF77CF97F1E04EBC703D3E900232A
:10517000FBF7CEF837F00602F1D1022F25D0042F2D
:1051800013D0062F18BFBDE8F0812A463346FBF73F
:1051900066F9D4E90A23FBF7BBF82A463346FBF746
:1051A0005EF9D4E90823FBF7B3F82A463346FBF748
:1051B00056F9D4E90623FBF7ABF82A463346FBF74A
:1051C0004EF9D4E90423FBF7A3F82A463346FBF74C
:1051D00046F9D4E90223FBF79BF82A463346FBF74E
:1051E0003EF9D4E90023BDE8F041FBF791B8012274
:1051F000FBF716BAFBF78CB800221346104611468F
:10520000FBF79FB9024A00201107FBF709BA00001B
:1052100001FDFFFF02E008C8121F08C1002AFAD1F1
:1052200070477047002001E001C1121F002AFBD126
:10523000704700000149086070470000E403002047
:105240002DE9FF4F8DB00F460546002606E02528C4
:105250000BD0DDE90F1290476D1C761C28780028D2
:10526000F5D111B03046BDE8F08F0024A246A1462A
:105270000122EC4900E0044315F8013F203B02FA0B
:1052800003F00842F7D128782A2810D06FF02F02B7
:105290002878A0F13001092914D80AEB8A0102EB21
:1052A000410144F0020400EB010A6D1CF0E701CF5C
:1052B0005FEA000A03D544F40054CAF1000A44F03E
:1052C00002046D1C28782E2817D115F8010F44F020
:1052D00004042A280ED06FF02F022878A0F13001A4
:1052E00009290AD809EB890102EB410100EB010908
:1052F0006D1CF2E757F8049B6D1C28786C280FD0C2
:1053000006DC4C2817D068280DD06A2814D104E098
:10531000742810D07A280FD10DE044F400140AE06C
:1053200044F4801401E044F440146978814202D1CD
:1053300004F580146D1C6D1C2A786E2A1FD00CDCBD
:10534000632A31D004DC002A8BD0582A11D1A3E083
:10535000642A68D0692A0CD165E0732A2ED004DC57
:105360006F2A73D0702A04D19BE0752A6FD0782AF7
:105370006ED01046DDE90F129047761C50E1C4F361
:105380000250022806D0032809D0042801CF09D0F2
:10539000066045E101CFF117C0E9006140E101CFAE
:1053A00006803DE106703BE117F8040B8DF8000024
:1053B00000208DF80100EB46012003E057F804BB04
:1053C0004FF0FF3061074FF0000102D40DE008F10B
:1053D0000101884649450FDA8045F8DB1BF80810C3
:1053E0000029F4D108E008F1010188468142FADB86
:1053F0001BF808100029F6D1DDE90F23AAEB0800FD
:105400008146214600F036F9304400EB080604E0FE
:10541000DDE90F121BF8010B9047B8F10108F7D234
:1054200021464846F7E00A21C4F302534FF0000B2F
:105430000891022B04D001CFC117032B09D00AE039
:10544000FF1D27F00707F7E8020108E032E01FE040
:1054500020E000B2C117042B01D140B2C117031ED6
:1054600071F1000307DA4FF0000CD0EB0C006CEB8D
:1054700001012D2302E0230504D52B238DF82430D0
:10548000012303E0E30701D02023F7E7984658E023
:105490000A2110E010210EE010204FF0000B0890C0
:1054A0000CE010214FF0000B44F004044FF0080909
:1054B000089103E008214FF0000B0891C4F3025358
:1054C000022B04D001CF0021032B06D006E0FF1DE4
:1054D00027F00707F7E8020103E080B2042B00D1B0
:1054E000C0B24FF0000823072BD5702A07D0DDF893
:1054F00020C08CF0100C5CEA0B0C05D00EE04023B1
:105500008DF82430012308E050EA010306D030234F
:105510008DF824308DF8252002239846DDF820C030
:105520008CF0080C5CEA0B0C0BD150EA010301D1A2
:10553000630706D530238DF824304FF00108A9F118
:105540000109582A04D038A20B9208AA0A920BE04B
:105550003AA2F9E75B46089AFBF726F90B9B9B5C9E
:105560000A9A521E0A92137050EA0102F2D10A9866
:10557000ADEB000000F1200B600702D524F480346D
:1055800001E04FF00109D94502DDA9EB0B0000E075
:10559000002000EB0B0141440890AAEB010AE00354
:1055A00006D4DDE90F232146504600F063F8064497
:1055B0004FF0000908E009A911F80900DDE90F1210
:1055C000904709F10109761CC145F4DBE0030CD5D5
:1055D000DDE90F232146504600F04CF8064404E074
:1055E000DDE90F1230209047761C0899481E08907C
:1055F0000029F5DC08E00A980A990078491C0A910C
:10560000DDE90F129047761CBBF10001ABF1010BF5
:10561000F1DC21465046DDE90F2300F019F806447D
:105620006D1C1BE609280100303132333435363722
:1056300038396162636465660000000030313233DE
:10564000343536373839414243444546000000007E
:105650002DE9F041044600251E461746880404D46F
:1056600005E039462020B0476D1C641EF9D5284658
:10567000BDE8F0812DE9F041044600251E46904624
:10568000C80301D5302700E02027880404D505E0B1
:1056900041463846B0476D1C641EF9D52846BDE822
:1056A000F08100002DE9F04D8D4F21F0004A86B0C9
:1056B00005460C46BA452ADBAAEB070028430AD068
:1056C0008848824501DC1AD1CDB106B02846BDE834
:1056D000F04DFFF78CBD844A844B2846FAF7BFFE95
:1056E00007460E46824A834B28462146FAF7B7FE04
:1056F00006B03A463346BDE8F04DFAF709BE012040
:10570000FFF798FD06B0BDE8F04DFFF775BD7A488C
:10571000824542DABAF1795F0BDA2846FFF7FEFCE0
:10572000042808BFFFF76EFD284606B02146BDE8F5
:10573000F08D2A460B461046FAF791FE8346024644
:105740006E480E460B4606217844FFF7FBFC5A468E
:105750003346FAF784FE804669488A465A463346FD
:1057600004217844FFF7EEFC5A463346FAF777FEF9
:1057700000223B46FAF7CCFD02460B464046514616
:10578000FAF7DFFE2A462346FAF769FE06B02A46F4
:105790002346BDE8F04DFAF7BBBD284624F0004192
:1057A00000223D463B46FAF757FE4FF0FF32FAF72C
:1057B00037FF0646024653480F460B4606217844FB
:1057C000FFF7C0FC32463B46FAF749FECDE900013F
:1057D0004D4832463B4604217844FFF7B3FC32463D
:1057E0003B46FAF73CFE00222B46FAF791FD834632
:1057F00002913046394601F0ADFA804643480D46E5
:10580000504517DCDDE900015A46029BFAF799FE84
:1058100042462B46FAF723FE42462B46FAF778FD1E
:105820000122FAF7FDFE304A304BFAF712FE304AF9
:10583000304B4CE04FF0000A52460B464046FAF718
:1058400067FDCDE9031052462B4610461946FAF77C
:1058500006FE32463B46FAF7FFFDDDE90332FAF772
:1058600070FE06460F46DDE900015A46029BFAF734
:1058700068FE83460091012230463946FAF7D0FE91
:10588000194A1A4BFAF7E8FD06460F460122404630
:105890002946FAF7C5FE5A46009BFAF7E0FD324664
:1058A0003B46FAF7D6FD06460F46012250462946EA
:1058B000FAF7B6FE0E4DDFF858802A464346FAF74F
:1058C000CBFD32463B46FAF7C7FD2A464346FAF778
:1058D000C3FD002CD8BF81F0004106B0BDE8F08DBB
:1058E0000000F03F0000F07F075C143326A6913CD7
:1058F000182D4454FB21F93F0000E03FDC17000065
:10590000F2170000661700007C1700003333EF3FEA
:10591000FB21E93F2DE9F84F04460D4621F00040F8
:1059200000917349814211DC7249884201DC06D141
:105930002CB120462946BDE8F84FFFF758BC6E4809
:10594000002DCCBF6D496E49BDE8F88F6D4981428D
:1059500011DD6D498142D8BF4FF0FF366DDD204625
:105960002946FFF7DBFB042808BFFFF74BFC204666
:105970002946BDE8F88F6549654F25F0004581420D
:1059800033DD6449814219DD002632464FF0804301
:1059900020462946FAF7BCFC80468A46012220466A
:1059A0002946FAF73DFE00223B46FAF752FD4246F1
:1059B0005346FAF7C6FD04460D463EE00126002296
:1059C000BA463B4620462946FAF7A2FC80460F46D7
:1059D0000022534620462946FAF73BFD42463B4605
:1059E000FAF7AFFD04460D4627E04B4981421BDD27
:1059F000DFF828A102260022534620462946FAF75E
:105A00002EFD00223B46FAF783FC80460F4600221B
:105A1000534620462946FAF71CFD42463B46FAF714
:105A200090FD04460D4608E0032622462B46002042
:105A30003B49FAF786FD04460D4622462B461046A2
:105A40001946FAF70CFD8B46824602460B46FAF7DA
:105A500006FD07460246334888460B460621784431
:105A6000FFF770FB52465B46FAF7F9FC82462E4878
:105A70008B463A46434605217844FFF763FB3A4696
:105A80004346FAF7ECFC02460B46002E50465946B8
:105A90000CDAFAF73DFC22462B46FAF7E0FC01B09F
:105AA00022462B46BDE8F04FFAF7D6BCFAF730FC99
:105AB00022462B46FAF7D3FC1C4A7A4402EBC60373
:105AC000D3E90023FAF7C5FC22462B46FAF7C1FCBE
:105AD000174A7A4402EBC603D3E90023FAF7BCFC69
