:020000040800F2
:100000004045002001010008C52D000841230008DB
:10001000C32D0008930A0008AD330008000000005B
:10002000000000000000000000000000192F000880
:10003000950A000800000000C72D00081D2F0008C9
:100040001B0100081B0100081B0100081B01000820
:100050001B0100081B0100081B0100081B01000810
:100060001B010008990A00081B0100081B01000879
:100070001B0100081B0100081B0100081B010008F0
:100080001B0100081B0100081B0100081B010008E0
:100090001B0100081B0100081B010008A90A000839
:1000A0001B0100081B0100081B010008D12F0008DC
:1000B0001B0100081B0100081B0100081B010008B0
:1000C0001B0100081B0100081B0100081B010008A0
:1000D0001B0100081B0100081B0100081B01000890
:1000E0001B0100081B0100081B010008DFF80CD0F1
:1000F00000F092FC00480047D13F00084045002036
:100100000648804706480047FEE7FEE7FEE7FEE7B1
:10011000FEE7FEE7FEE7FEE7FEE7FEE7892F0008C1
:10012000ED000008202A04DB203A21FA02F0002129
:10013000704721FA02F3D040C2F1200291400843F7
:1001400019467047D2B201E000F8012B491EFBD2DC
:1001500070470022F6E710B513460A4604461946D2
:10016000FFF7F0FF204610BDF0B480EA0102D40F83
:100170004200B2EB410F02D20246084611464A0045
:1001800042D0C30DDDB2C1F3C752AD1A202D35DA0E
:10019000C1F3160141F4000204B15242C5F1200638
:1001A00002FA06F12A411044B3EBD05F23D0C4B168
:1001B000012DA0EBC35009DCF0BC4FF0004202EA75
:1001C000C352DBB200F5000000F049BB400000F173
:1001D000807000EBC350A0F1807040EAD1704900FC
:1001E00009E0490841EAC071A0EBC35000F50000E6
:1001F000400800EBC350F0BC00F028BB6142012274
:1002000002EB4101001BF6E7F0BC704781F00041B2
:10021000AAE780F00040A7E780EA010210B502F0EB
:100220000043400022D04A001FD0010E01EB1261B2
:10023000C0F35600C2F3560240F4000042F400023C
:10024000A0FB022000047F39140400D0401C50EAB7
:10025000124001D44000491EC2B20C0604EBD0107B
:10026000401C4008802A02D003E0002010BD20F08E
:100270000100002900DA0020184310BD30B480EAE4
:10028000010202F0004530F0004221F0004013D09E
:1002900090B1C30DD40DC2F31601C0F31600E41AD9
:1002A00041F4000140F400027D34914201D3641C0A
:1002B00000E04900002C02DA30BC002070474FF407
:1002C00000000023914201D3891A034340084FEAFA
:1002D0004101F7D151B1914202D14FF0004105E007
:1002E00002D24FF0010101E06FF0010103EBC450B5
:1002F000284430BC00F0AABA420005D0C0F3C7526F
:100300005242914201DC0020704700EBC15070471F
:100310002DE9FE4F804681EA0300C00F0C46009095
:1003200021F0004123F00045B8EB0200A94105D2BD
:100330004046214690461C460B46024623F00040AC
:10034000104347D0270DC7F30A00C3F30A510290A8
:10035000401A019040286BDAC3F3130040F4801B6D
:100360000098924620B10023D2EB030A63EB0B0BFB
:1003700001985946C0F14002504600F046FA064640
:100380000D4650465946019A00F04EFA10EB08000F
:100390006141002487EA115284EAE7731A4340D08E
:1003A000009A62B3019A012A4FEA075215DC001B3A
:1003B00061EB02014FF0004202EA0752CDE9004230
:1003C000001C41F5801132462B4600F085FA03B03F
:1003D000BDE8F08F40462146F9E7001B61EB0201C2
:1003E000001C41F5801300185B412018A2F500178E
:1003F00047EB030140EAD570B6196D4111E06D0875
:100400004FEA360645EAC0754FEA0752001B61EB1A
:100410000201001C41F5801149084FEA3000001923
:10042000514132462B4603B0BDE8F04F00F045BACB
:100430000098012240000023D0EB020263EBE0733E
:10044000009821464FEAE074B8EB000061EB04012C
:10045000E9E783F000435BE781F0004158E72DE9CD
:10046000FE4F81EA030404F0004421F000410094AF
:100470004FF0000B23F0004350EA01045ED052EA33
:1004800003045BD0C3F30A54C1F30A552C44A4F20D
:10049000F3340194A0FB0254C1F3130141F4801121
:1004A000C3F3130343F4801301FB024400FB034E28
:1004B000840A970A44EA815447EA8357A4FB0768F1
:1004C00002958D0A05FB07854FEA932C04FB0C541B
:1004D0002705029D4FEA065847EA1637B5EB08058F
:1004E0006EEB070C870E920E47EA811742EA8312E1
:1004F000A7FB0201B6EB0B0164EB00042B0D43EAF2
:100500000C335E1844EB1C50DA465146E7FB0201FF
:10051000C5F313044FEA0B3343EA14534FEA043292
:10052000019C43EA0603A4F10C040294009CCDE96B
:1005300000B400F0D1F903B0BDE8F08F002001460F
:10054000F9E72DE9F04D81EA030404F0004B21F0B6
:10055000004514464FF0000A23F0004150EA05021E
:1005600020D054EA01021DD0C5F30A570246C5F354
:100570001303C1F31300C1F30A5640F4801543F48A
:100580008013A7EB0608101BD64608F2FD3873EB64
:10059000050002D308F1010801E092185B41B8F1AF
:1005A000000F03DA00200146BDE8F08D00204FF473
:1005B0008011064684460EE0171B73EB050705D332
:1005C000121B63EB050306434CEA010C49084FEA92
:1005D000300092185B4150EA0107EDD152EA030066
:1005E00012D082EA040083EA0501084305D0101BFB
:1005F000AB4106D20122002306E000224FF0004367
:1006000002E06FF0010253101AEB06004CEB0851A8
:1006100010EB0A0041EB0B01BDE8F04D00F04DB9C5
:1006200070B521F0004303430CD0C1F30A550024F8
:10063000D5EB040564EB0403D617AD1AB34102DB16
:100640000020014670BD201841EB025170BDC10F62
:1006500080EAE0700844CA079623002100F0FFB842
:1006600096230022114600F0FAB80EB540F233414D
:1006700002910021CDE900110A460B4600F02CF949
:1006800003B000BD00F0004220F00040C10DC0F3F7
:10069000160040F400007F2901DA002070479629F7
:1006A00003DCC1F19601C84001E096398840002A78
:1006B000F4D040427047C1F30A5210B5C1F31301A0
:1006C00040F2FF3341F480119A4201DA002010BD5C
:1006D00040F233439A42A2F2334203DC5242FFF724
:1006E00021FD10BD904010BD00F0004230F00040F0
:1006F0000AD0C10D01F56071C0F3160042EA015144
:10070000C2084007114370470020014670470000AF
:1007100030B5041E71F1000404DB4FF00044404288
:1007200064EB0101141E73F1000405DB1C464FF05D
:100730000043524263EB04038B4208BF824230BD48
:1007400030B5041E71F1000404DB4FF00044404258
:1007500064EB0101141E73F1000405DB1C464FF02D
:100760000043524263EB0403994208BF904230BDFC
:1007700001F0004330B421F0004150EA010206D0FC
:100780000A0DA2F56072C1F31301002A02DC30BC2D
:1007900000207047440F44EAC104C100E01830BC97
:1007A00000EBC25000F052B82DE9F05F0546002082
:1007B00092469B4688460646814640241BE02846D2
:1007C000414647462246FFF7ADFC53465A46C01AFB
:1007D000914110D311461846224600F016F82D1A02
:1007E00067EB01084F4622460120002100F00DF87A
:1007F00017EB00094E41201EA4F10104DFDC48463E
:1008000031462A464346BDE8F09F202A04DB203AC1
:1008100000FA02F1002070479140C2F1200320FA53
:1008200003F3194390407047202A06DBCB17203A88
:1008300041FA02F043EAE07306E041FA02F3D040E5
:10084000C2F1200291400843194670470029A8BF11
:100850007047401C490008BF20F00100704710B4E9
:10086000B0FA80FC00FA0CF050EA010404BF10BC9E
:10087000704749B1CCF1200421FA04F411FA0CF1CB
:1008800018BF012121430843A3EB0C01CB1D4FEA04
:1008900000614FEA102042BF002010BC704700EBFF
:1008A000C35010440029A4BF10BC7047401C49002D
:1008B00008BF20F0010010BC704710B5141E73F182
:1008C000000408DA401C41F1000192185B411A4310
:1008D00001D120F0010010BD2DE9F04D92469B465C
:1008E00011B1B1FA81F202E0B0FA80F22032904602
:1008F000FFF78BFF04460F4640EA0A0041EA0B016E
:1009000053465A46084313D0114653EA010019D002
:10091000C8F140025046FFF705FC05460E4650461A
:1009200059464246FFF771FF084305D0012004E015
:1009300020463946BDE8F08D0020054346EAE076C2
:100940002C4337430A986305E40AA0EB0800002211
:10095000FD0A44EA47540A3002D500200146E9E77F
:10096000010510196941DDE9084500196941BDE833
:10097000F04DA2E72DE9F04D00231A461B1A8A41DB
:1009800003DB00200146BDE8F08DC1F30A52C1F33C
:10099000130141F480154FF0000BD10702D100186C
:1009A0006D41521E0027044640F2FF11384601EB0C
:1009B000620A3E468046024600204FF48011FFF74F
:1009C000B1FBC2197141BB1846EB0100B4EB030C3B
:1009D00075EB000C04D3E41A65EB000517460E46D0
:1009E000241908F101006D4180463428E3DDF9192E
:1009F00046EB0600091BA84103D24FF0FF32134615
:100A000001E0002213461BEB070046EB0A51BDE84C
:100A1000F04DFFF752BF0000064C074D06E0E068BE
:100A200040F0010394E8070098471034AC42F6D335
:100A3000FFF760FB105300083053000870B58C18A6
:100A400010F8015B15F0070301D110F8013B2A11E2
:100A500006D110F8012B03E010F8016B01F8016BCF
:100A60005B1EF9D12B0705D40023521E0DD401F8CB
:100A7000013BFAE710F8013BCB1A921C03E013F894
:100A8000015B01F8015B521EF9D5A142D8D30020C9
:100A900070BDFEE770470000024901200870082081
:100AA00000F032B81A00002010B503F0E1FC08494C
:100AB000094B086007490A68821A1A6008600749EA
:100AC00001200870BDE81040000200F01DB80000D1
:100AD000680200206402002060020020180000204C
:100AE00070B5044600F012F90546601C02D00448B7
:100AF0000078044400F00AF9401BA042FAD370BD0C
:100B00007402002070470000044910B50A680242D0
:100B100002D00860FFF7F6FF10BD0000140401408A
:100B20002DE9F84FDFF8B891002409F1040A0AF121
:100B3000040B23460F270BF1040EC9E00125A54045
:100B40002A40AA427DD1674ED1F804C0ACEB06081A
:100B5000B44532D014DCBCF1030F3AD009DCBCF14F
:100B6000000F2AD0BCF1010F1CD0BCF1020F31D113
:100B70001DE0BCF1110F17D0BCF1120F2AD119E002
:100B8000B8F5881F19D006DCB8F5803F15D0B8F548
:100B9000801F1FD111E0B8F5001F0ED0B8F5041F5B
:100BA00018D10AE0CB6815E0CB681B1D12E0CB68BA
:100BB00008330FE0CB680C330CE08B682BB1012BB2
:100BC0004FF0080303D0456104E0042302E005610F
:100BD00000E00023FF2A01D8064601E000F10406E8
:100BE0004FEA840501D9A5F12005D6F8008007FA5F
:100BF00005FC28EA0C0803FA05F548EA0508C6F8DA
:100C000000804D68ED0062D5374DAE6946F00106B3
:100C1000AE61AD6924F0030605F001050095334D82
:100C200006EB050CDCF80850A607360F07FA06F8A5
:100C300025EA0805DFF8B880404503D14FF00008E9
:100C400017E044E0DFF8AC80404502D14FF00108E6
:100C50000FE0DFF8A480404502D14FF0020808E021
:100C6000DFF89880404502D14FF0030801E04FF0D3
:100C7000040808FA06F848EA0508CCF808804D6828
:100C8000D9F80060ED034D4601D5164300E09643C8
:100C90002E604D68DAF80060AD03554601D5164365
:100CA00000E096432E604D68DBF80060ED025D4683
:100CB00001D5164300E096432E604D68DEF80060D3
:100CC000AD02754601D5164300E096432E60641CC4
:100CD0000D682A46E5407FF431AFBDE8F88F00008B
:100CE000000401400000111000100240000001400B
:100CF00000080140000C01400010014000140140B8
:100D00000AB1016170470904FBE7000001488068EF
:100D1000704700007402002070B504001BD094F8E6
:100D20003D00002520B984F83C50204600F0F6FA3A
:100D3000242084F83D002068016821F00101016051
:100D400000F05AFC4D4A6168914201D84C4900E0DC
:100D50004C49884201D2012070BD4B492368B0FB49
:100D6000F1F15E6826F03F060E435E6063689342D1
:100D700006D94FF4967359434FF47A73B1FBF3F1EC
:100D80002368491C1E6A26F03F06314319626168D8
:100D9000914210D84900401EB0FBF1F2521CC2F340
:100DA0000B02042A01D2042022E0B0FBF1F0401C27
:100DB000C0F30B001CE0A368F3B301EBC10202EB2C
:100DC0000116421EB2FBF6F2521C42F4804212059A
:100DD00049D093B301EBC10202EB0111401EB0FBFD
:100DE000F1F0401CC0F30B0040F4804040F40040A0
:100DF0002168CA694CF6FF739A431043C861D4E96D
:100E00000701084321680A6822F0C0021043086005
:100E1000D4E9030101432068826848F2FF339A4312
:100E200011438160D4E9050108432168CA6822F0B2
:100E3000FF021043C86001E00EE016E02068016880
:100E400041F0010101602564202084F83D00256304
:100E500084F83E50002070BD01EB4106421EB2FBFB
:100E6000F6F2521CB3E70120C2E701EB4101401E3C
:100E7000B0FBF1F0401CC0F30B00B7E7A086010007
:100E800080841E0000093D0040420F002DE9FF4F05
:100E900081B089460446FFF739FF054694F83D00C6
:100EA0004FF0010820287AD1192301224B4920460E
:100EB000009501F031FB002871D194F83C00012825
:100EC0006DD0012084F83C0020680168C90703D177
:100ED000016841F0010101602068016821F40061AE
:100EE0000160242084F83D00002626643C48E0622E
:100EF0004FF0011B20272068016841F480710160D8
:100F00000095002259462046049B01F005FB00286D
:100F100056D1216809F0FE000861FFF7F7FE21684D
:100F2000054648694969C0F34000C1F380214FF08C
:100F3000A00A0FE0FFF7EAFE411B0498814200D8A7
:100F400008B984F83DA0216848694969C0F34000A8
:100F5000C1F3802194F83D20A02A02D008B90029CD
:100F6000E8D084F83D7020684169C943890717D4E7
:100F7000016841F4007101602068416980691923AA
:100F8000012216492046009501F0C6FAC0B984F83E
:100F90003D7084F83C60002005B0BDE8F08F1BE098
:100FA000016841F40071016021686FF4806048615C
:100FB0001923012209492046009501F0ADFA08B134
:100FC0000120E9E7039808F10108804593D384F8EC
:100FD0003D7084F83C60F3E70220DDE7020010007A
:100FE0000000FFFF2DE9F84F1F4690468A46044651
:100FF000DDF82890FFF78AFE054694F83D0020288A
:1010000079D11923012277492046009501F084FA0D
:101010000028F5D194F83C0001286CD0012084F818
:101020003C0020680168C90703D1016841F0010153
:1010300001602068016821F400610160222084F8C9
:101040003D00102084F83E0000262664C4F8248069
:101050006785608D20856448E0622B464A4651468C
:10106000204601F085F900287ED1208D5F4F68B1C0
:10107000012814D00228206801681ED041F4806144
:10108000016020684169806900909DE020684169A5
:1010900081690091016841F40071016094E0206869
:1010A000016821F48061016072B62068416981693C
:1010B0000091016841F400710AE041F400610160AF
:1010C00072B62068416981690091016821F48061EC
:1010D000016062B678E0032850D801280CD00228BD
:1010E0004B464FF000023946204600950FD001F0E4
:1010F00013FAC8BB10E073E02A464946204601F0C7
:101100008AFA88BB20680069616A087053E001F0C0
:1011100003FA48BB72B61AE02068016821F48061C6
:10112000016072B620680069616A0870606A401CDC
:101130006062208D401E2085608D401E60854B467C
:10114000002239462046009501F0E6F960B9206892
:10115000016841F40071016020680069616A0870EB
:10116000606A401C606200E00EE0218D491E21850E
:10117000618D491E618562B621681AE02A4649469A
:10118000204601F048FA10B10120BDE8F88F206830
:101190000069616A0870606A401C6062218D491EA6
:1011A0002185618D491E618521684A69D2435207B4
:1011B0000AD409690170606A401C6062208D401E7B
:1011C0002085608D401E6085208D002883D12020E1
:1011D00084F83D0084F83E6084F83C600020D4E749
:1011E0000220D2E7020010000000FFFF040001000F
:1011F0002DE9F84F1F4690468A460446DDF82890B0
:10120000FFF784FD054694F83D0020287FD119237F
:10121000012240492046009501F07EF9002876D150
:1012200094F83C00012872D0012084F83C0020682A
:101230000168C90703D1016841F00101016020681C
:10124000016821F400610160212084F83D00102034
:1012500084F83E0000262664C4F824806785608DEB
:1012600020852D48E0622B464A465146204601F033
:10127000E9F890B9206841698069009036E02A4613
:101280004946204601F0FAF950B1206C042804D1F7
:101290002068016841F4007101600120BDE8F88F09
:1012A000606A216800780861606A401C6062618D34
:1012B000491E6185218D491E89B2218522685369A5
:1012C000DB435B070BD451B100781061606A401CAE
:1012D0006062608D401E6085208D401E20852A46FC
:1012E0004946204601F0F2F80028CED1208D002892
:1012F000C5D154F83D0B016841F400710160202014
:1013000004F81E09E67766770020C7E7FFE70220AA
:10131000C4E70000020010000000FFFF10B586B017
:101320000021009101910291039100680F498842C8
:101330001AD10F4CA06940F00800A061A06969466D
:1013400000F008000490C0200090122001900320BB
:1013500003900848FFF7E4FBE06940F40010E06107
:10136000E06900F40010049006B010BD0054004085
:1013700000100240000C01400248816802781144CC
:101380008160704774020020074810B5016841F081
:1013900010010160032000F075F8002000F006F84D
:1013A00000F024F8002010BD0020024070B50D4D63
:1013B00004464FF47A712878B1FBF0F00A490968C5
:1013C000B1FBF0F000F076FB48B9102C07D20022F8
:1013D0002146501E00F036F800206C6070BD0120E0
:1013E00070BD000074020020800200200C4808B587
:1013F000816941F001018161816901F00101009180
:10140000C16941F08051C161C06900F08050009015
:101410000448416821F0E06141F00071416008BD7D
:101420000010024000000140002809DB00F01F020C
:10143000012191404009800000F1E020C0F8001136
:1014400070470000F0B40E4B1B680C46C3F3022338
:10145000C3F10705042D00D90425191D072901D260
:10146000002300E0DB1E012606FA05F1491E21409B
:1014700099409E40761E16403143F0BC01F0BCBF3F
:101480000CED00E0064900F0070208684FF6FF0384
:10149000184040EA0220034A1043086070470000E9
:1014A0000CED00E00000FA05BFF34F8F054801681E
:1014B000054A01F4E06111430160BFF34F8F00BFA3
:1014C000FDE700000CED00E00400FA052DE9F0470F
:1014D0000F46050061D0434E306800F00700B84267
:1014E00009D2306820F0070038433060306800F0DF
:1014F0000700B84251D128683B4C810712D54007FC
:1015000003D5606840F4E06060602878000703D588
:10151000606840F4605060606068A96820F0F00086
:10152000084360602878C00728D06868012810D078
:101530002168022810D0890700292EDA616821F07D
:10154000030101436160FFF7E1FB804641F2883906
:101550000DE021688903EFE78901EDE7FFF7D6FB8E
:10156000A0EB0801494502D90320BDE8F087606877
:10157000696800F00C00B0EB810FEFD1306800F02B
:101580000700B8420BD9306820F0070038433060BC
:10159000306800F00700B84201D00120E5E7287864
:1015A000400705D56068E96820F4E06008436060A2
:1015B0002878000706D56068296920F4605040EA61
:1015C000C100606000F038F86168084AC1F3031197
:1015D000515CC8400649086006480068FFF7E6FE0F
:1015E0000020C2E70020024000100240085200081C
:1015F00080020020780200200448054900684968FC
:10160000044AC1F30221515CC840704780020020A7
:101610000010024018520008044805490068496853
:10162000044AC1F3C221515CC840704780020020C7
:10163000001002401852000812A185B00FC98DE8B1
:101640000F0014A0144A006804905168134801F078
:101650000C03042B10D0082B0ED1C1F38343C90314
:101660001DF803000AD5516804AAC1F34041515C3A
:101670000A4A5043B0FBF1F005B0704708494843AF
:10168000FAE7000002030405060708090A0B0C0D1F
:101690000E0F1010010200000010024000127A002C
:1016A00000093D002DE9F84F040070D02078C04DAE
:1016B000C00749D06868C0F38100012807D0686876
:1016C000C0F38100022809D16868C00306D52868E4
:1016D000800339D560680028E7D035E06068B0F550
:1016E000803F0BD010B1B0F5A02F11D0286820F4A6
:1016F00080302860286820F4802002E0286840F4C8
:1017000080302860606890B1FFF700FB06460AE071
:10171000286840F480202860F0E700BFFFF7F6FA61
:10172000801B642873D828688003F7D50CE0FFF786
:10173000EDFA064605E000BFFFF7E8FA801B6428D3
:10174000F0D828688003F7D420789A4E80074FF0AD
:1017500001094FF0000839D5686810F00C0F07D068
:101760006868C0F38100022809D16868C00306D404
:101770002868800714D52069012808D110E0206965
:10178000B0B1C6F80090FFF7C1FA074605E00AE1DC
:10179000FFF7BCFAC01B0228C4D828688007F7D519
:1017A0002868616920F0F80040EAC10028600DE077
:1017B000C6F80080FFF7AAFA074604E0FFF7A6FA8A
:1017C000C01B022823D828688007F7D42078000798
:1017D0002CD57948A169D9B1C0F80090FFF796FAE5
:1017E000074604E0FFF792FAC01B02280FD8686A88
:1017F0008007F7D571484FF4FA510068B0FBF1F05B
:10180000009000BF0098411E0091FAD20EE080E0E7
:10181000C0F80080FFF77AFA074604E0FFF776FA8F
:10182000C01B022875D8686A8007F7D42078400763
:1018300060D5E8690027C00008D4E86940F080500E
:10184000E861E869012700F0805000905C48016879
:10185000C90513D40168834641F480710160FFF724
:1018600055FA824606E000BFFFF750FAA0EB0A00E7
:1018700064284ED8DBF80000C005F5D5E0680128E3
:101880000AD008B1052813D0286A20F00100286288
:10189000286A20F0040002E0286A40F00100286273
:1018A000E06841F2883B98B1FFF730FA82460BE0DE
:1018B000286A40F004002862EEE700BFFFF726FA2E
:1018C000A0EB0A0159455AD8286A8007F6D50CE0E2
:1018D000FFF71CFA824605E0FFF718FAA0EB0A01B1
:1018E00059454CD8286A8007F6D41FB1E86920F022
:1018F0008050E861E06988B36968C1F38101022919
:1019000044D00228C6F8608004D0FFF7FFF90446EF
:1019100038E034E0FFF7FAF9074604E0FFF7F6F99C
:10192000C01B02282BD828688001F7D4206AB0F5A4
:10193000803F05D16868A16820F4003008436860E2
:10194000D4E908010843696821F474110843686008
:10195000C6F86090FFF7DAF9044606E025E000BF1C
:10196000FFF7D4F9001B022809D828688001F7D5B1
:101970001BE000BFFFF7CAF9001B022802D90320B1
:10198000BDE8F88F28688001F4D40EE00128F7D074
:101990006868226A00F48031914204D1616A00F4DF
:1019A0007010884201D00120EAE70020E8E700003B
:1019B00000100240000042428004424280020020A7
:1019C0000070004070B5040005D00025A56294F8B1
:1019D000510010B106E0012070BD84F8505020463F
:1019E00000F02EF8022084F851002068016821F0F0
:1019F00040010160D4E901010843D4E90312114315
:101A0000084361690843218B01F400710843E169CF
:101A10000843216A0843A16A084321680860A06955
:101A2000042101EA1040216848602068C16921F45E
:101A30000061C1616565012084F85100002070BD1E
:101A400030B585B00024009401940294039400689A
:101A50001549884225D11548C16941F48041C161C9
:101A6000C16901F480410491816941F008018161FB
:101A700080690F4D00F0080004904FF42040009062
:101A8000022001900320039069462846FFF748F89A
:101A90004FF48040CDE90004694628460294FFF7E0
:101AA0003FF805B030BD0000003800400010024093
:101AB000000C014010B5401EB0F1807F01D3012021
:101AC00010BD4FF0E02460610F21601701F094FC1D
:101AD0000020A06107202061002010BD70477047E2
:101AE00070B590F83C20012A19D0012400F83C4F31
:101AF0000222427050F83C3C5A689D6822F0700601
:101B00000A684968324325F0800529435A6050F835
:101B10003C2C9160447000210170084670BD022089
:101B200070BD10B5040003D094F83D0010B107E07B
:101B3000012010BD002084F83C00204600F00CF885
:101B4000022084F83D00211D206801F06FFA012079
:101B500084F83D00002010BD00B585B00021009143
:101B6000019102910391184A0168184891421FD1CE
:101B7000816941F400618161816901F4006104912E
:101B8000816941F0040181618069694600F00400C7
:101B90000490901500900E48FEF7C2FF00221146F7
:101BA0001B20FFF74FFC1B20FFF73EFC05B000BDDC
:101BB000084A9142FAD1C16941F00201C161C0698C
:101BC00000F002000490F1E7002C014000100240F8
:101BD000000801400004004070B5044690F83C0045
:101BE000012817D0012584F83C50022084F83D00DC
:101BF0002068826822F0770222F47F4282600868BF
:101C0000502830D00DDC20284DD005DC98B31028AA
:101C10003BD148E0022070BD302844D0402834D168
:101C200039E0602828D0702806D0B0F5805F2CD02D
:101C3000B0F5005F29D10AE0CB68D1E90121206825
:101C400001F037FA2068816841F0770109E0CB683C
:101C5000D1E90121206801F02CFA2068816841F463
:101C60008041816011E0CA684968206801F0D6FAB5
:101C70005021206807E016E0CA684968206801F032
:101C80000BFB6021206801F01EFA84F83D50002013
:101C900084F83C0070BDCA684968206801F0BEFA4B
:101CA00040212068EFE7226801461046EBE77047C5
:101CB0002DE9F041044690F83C000D4601283BD048
:101CC000012684F83C60022084F83D009AB3042A7F
:101CD00044D02068082A53D0D5E90027E968036A70
:101CE00023F480530362D0F81CC0036A2CF4407CB8
:101CF0004CEA07274FF6FF7C27F470470CEA0131C6
:101D00003943770323F4005307EA02321A43C161CF
:101D100002622068C16921F44061C1612068C16923
:101D2000AA6841EA0221C16184F83D60002084F87C
:101D30003C00BDE8F08101E00220FAE7D5E900129D
:101D4000EB68206801F07CFA2068816921F00C01C1
:101D5000816120688169AA6811430FE0D5E900120A
:101D6000EB68206801F0AAFA2068816921F44061DB
:101D7000816120688169AA6841EA02218161D3E713
:101D8000D5E9002C2F7B016A21F480710162C169C1
:101D9000036A21F0030141EA0C0121F0F00C39073C
:101DA0004FF400774CEA116123F4007307EA022232
:101DB0001A43C16102622068C16921F00C01C1614E
:101DC0002068C169AA681143ADE710B5040003D0CB
:101DD00094F83D0010B107E0012010BD002084F808
:101DE0003C00204600F00CF8022084F83D00211D44
:101DF000206801F01BF9012084F83D00002010BD8F
:101E0000704710B50268044631B1042908D008298A
:101E10001AD00C2908D11BE0D06840F0020002E083
:101E2000D06840F00400D0600122206801F034F94D
:101E30002068816801F00701062903D0016841F09C
:101E400001010160002010BDD06840F00800EAE701
:101E5000D06840F01000E6E770B5044600680169FC
:101E60004FF00005C943890715D4C168C9438907E4
:101E700011D4E91E01610120207720688069800764
:101E8000204602D0FFF713FF04E000F0D1F820460F
:101E900000F08AF9257720680169C943490717D4FA
:101EA000C168C943490713D46FF0040101610220DE
:101EB00020772068806910F4407F204602D0FFF729
:101EC000F6FE04E000F0B4F8204600F06DF9257746
:101ED00020680169C943090716D4C168C9430907C5
:101EE00012D46FF008010161042020772068C069D6
:101EF0008007204602D0FFF7DAFE04E000F098F8F1
:101F0000204600F051F9257720680169C943C906C8
:101F100017D4C168C943C90613D46FF01001016119
:101F2000082020772068C06910F4407F204602D046
:101F3000FFF7BDFE04E000F07BF8204600F034F926
:101F4000257720680169C943C90708D1C168C94319
:101F5000C90704D1891E0161204600F043F92068B9
:101F60000169C943090609D4C168C943090605D4F2
:101F70006FF0800101612046FFF7B0FD2068016924
:101F8000C943490609D4C168C943490605D46FF05D
:101F900040010161204600F026F920680169C9432B
:101FA00089060BD4C168C943890607D46FF02001A4
:101FB00001612046BDE87040FFF791BD70BD000093
:101FC00010B586B000210091019102910391006843
:101FD0001349884221D11348816941F0040181618C
:101FE000816901F004010491816941F00801816176
:101FF0008069022400F008000490C020CDE90004AC
:10200000694609480394FEF78BFD0320CDE90004DF
:10201000694606480394FEF783FD06B010BD000034
:10202000000400400010024000080140000C014084
:10203000704770B50D46040003D094F83D0010B110
:1020400007E0012070BD002084F83C00204600F02D
:1020500015F8022084F83D00211D206800F0E6FFFD
:102060002068016821F008010160206801682943A7
:102070000160012084F83D00002070BD08B50068B3
:10208000B0F1804F08D10548C16941F00101C1613B
:10209000C06900F00100009008BD0000001002407F
:1020A00070B5044690F83C000D4601280DD001267D
:1020B00084F83C60022084F83D0042B1042A18D024
:1020C000082A2AD00C2A4DD139E0022070BD2068A0
:1020D00001F002F82068816941F0080181612068FF
:1020E000816921F004018161206881692A691143B5
:1020F00011E0206801F018F82068816941F400615E
:1021000081612068816921F4806181612068816931
:102110002A6941EA0221816124E0206801F030F857
:102120002068C16941F00801C1612068C16921F0DE
:102130000401C1612068C1692A69114311E0206866
:1021400001F04AF82068C16941F40061C16120686A
:10215000C16921F48061C1612068C1692A6941EACD
:102160000221C16184F83D60002084F83C0070BD0C
:1021700010B5040003D094F83D0010B107E0012031
:1021800010BD002084F83C00204600F00CF802202E
:1021900084F83D00211D206800F048FF012084F8EC
:1021A0003D00002010BD70477047000010B5044688
:1021B0000068012200F070FF09492068884203D1BD
:1021C000416C41F4004141642068816801F00701DD
:1021D000062903D0016841F001010160002010BD13
:1021E000002C01407047704770B5040004D094F88B
:1021F0003900002510B106E0012070BD84F8385088
:10220000204600F023F8242084F839002068C168B3
:1022100021F40051C160204601F06CF8206801698A
:1022200021F4904101612068416921F02A01416156
:102230002068C16841F40051C160E563202084F842
:10224000390084F83A00002070BD0000F0B585B078
:10225000002400940194029403940368324F0220F6
:1022600032490322324D4602BB421AD18B6943F4F4
:1022700080438B618B6903F4804304938B6943F043
:1022800004038B618969039201F004010491010246
:10229000CDE9001069462846FEF742FCCDE900640E
:1022A0001CE0244FBB4220D1CB6943F40033CB6107
:1022B000CB6903F4003304938B6943F004038B610F
:1022C0008969039201F0040104910421CDE9001011
:1022D00069462846FEF724FC082022E06946284685
:1022E0000294FEF71DFC05B0F0BD134DAB42FAD1D0
:1022F000CB6943F48023CB61CB6903F4802304933F
:102300008B6943F008038B6189690C4D01F008016A
:10231000CDE90321CDE9006069462846FEF700FCBF
:10232000E814CDE90004D9E700380140001002406C
:10233000000801400044004000480040000C0140FB
:10234000FEE701684A69D24352050FD46FF48062F8
:102350004A61002140F8301F2022427381730269D4
:1023600042F00402026101730120704700207047AF
:102370002DE9F84F0446C06A1E4692460D46216874
:102380000A6842F480620A60082807D0012805D054
:1023900010F5803F02D0206B112804D1206801681D
:1023A00041F4807101604FF001185346002241460C
:1023B0002046009600F0B0F8F0BB206908F1010952
:1023C000B0F5804F0FD00620216800EAD51747F0FE
:1023D000F00008613346524608F10701204600F03C
:1023E000CFF848BB03E0E8B240F001001BE02168F1
:1023F000E8B20861334652464946204600F0C0F82C
:10240000D0B92068416981690091016841F4807107
:1024100001605346002241462046009600F07CF8B9
:1024200050B947F0F10021680861334652464946E9
:10243000204600F0A5F800E001E0002800D00120CF
:10244000BDE8F88FF8B50446C06A1E460D4617462B
:10245000082807D0012805D010F5803F02D0206B56
:10246000122804D12068016841F48071016013468C
:1024700000224FF001112046009600F04DF808BBF5
:102480002069B0F5804F0ED00620216800EAD510F3
:1024900040F0F000086133463A460B49204600F010
:1024A0006FF878B902E005F0FE0000E0E8B22168BC
:1024B0000861054933463A46891F204600F060F816
:1024C000002800D00120F8BD0800010070B51646B4
:1024D0000D4604460DE02046FFF733FF08B101200A
:1024E00070BD681C05D0FEF711FC801BA84207D800
:1024F00035B120684069C0434007ECD4002070BD6E
:10250000002044F8300F20216173A073216941F04D
:10251000200121612073E2E72DE9F0471E46904635
:102520000D460446C1F30747DDF8209008E0701C13
:1025300006D0FEF7EBFBA0EB0900B0420FD876B156
:102540002068012F18D0806925EA00000004000CE3
:1025500014D000214145EAD00020BDE8F0870020DA
:1025600044F8300F20216173A073216941F02001EC
:10257000216120730120F0E74069E5E70121E9E7E7
:102580002DE9F0479A4691460E46044600254FF045
:102590002008C1F3074725E020684069C043400593
:1025A00014D42068016841F40071016021686FF45F
:1025B00080604861256384F83D8084F83E50206C3B
:1025C00040F00400206484F83C501FE0B9F1FF3F64
:1025D00008D0FEF79BFBA0EB0A0149450CD8B9F1E6
:1025E000000F09D02068012F13D0806926EA00006F
:1025F0000004000C0BD0CFE744F8305F84F80D8066
:10260000A573206940F02000206125730120BDE8FA
:10261000F0874069EAE72DE9F041002590460E4633
:102620000446202717E04069C043C0060CD454F884
:10263000301B6FF01000486144F810596777A57798
:10264000206A2062257717E0FEF760FBA0EB080008
:10265000B04208D83EB120684169C9434906E2D476
:102660000020BDE8F08144F8305F6773A5732069EE
:1026700040F02000206125730120F2E770B5164676
:102680000D4604460DE02046FFF75BFE08B1012031
:1026900070BD681C05D0FEF739FB801BA84207D827
:1026A00035B120684069C0430006ECD4002070BDFD
:1026B000002044F8300F20216173A073216941F09C
:1026C000200121612073E2E72DE9F04186B000246A
:1026D00031480094019402940394816941F01001FF
:1026E0008161816901F010010491816941F020014B
:1026F0008161816901F020010491816941F0040147
:102700008161816901F004010491816941F008014E
:1027100081618069214F00F008004FF4005504905A
:10272000002229463846FEF7EBFADFF874800022D3
:1027300030214046FEF7E4FA009502260125039673
:10274000CDE9015469463846FEF7EAF94FF4847042
:1027500000901448CDE9010469464046FEF7E0F9CF
:102760003020CDE90005CDE9024669464046FEF736
:10277000D7F9002211460920FEF764FE0920FEF772
:1027800053FE002211461720FEF75CFE1720FEF7CD
:102790004BFE06B0BDE8F081001002400010014081
:1027A000000C0140000011100E4810B50C490160EA
:1027B0004FF48271416000218160C1604FF400726A
:1027C0000161C0E905120822C0E907214162816266
:1027D0000A21C162FFF7F6F8002800D0FEE710BD1D
:1027E00000380040E002002010B58AB000242148E3
:1027F0000494059406940794089409940094019411
:1028000002941B49039401604721C0E901144FF66B
:10281000FF71C0E9031444618461FFF782F900B1DC
:10282000FEE74FF48050049004A91248FFF7D4F952
:1028300000B1FEE70F48FFF7C8FA00B1FEE70894C1
:1028400008A90C480994FFF74BF900B1FEE70120F5
:10285000CDE900400F20CDE902400022694605483D
:10286000FFF726FA002800D0FEE70AB010BD0000EE
:10287000002C01403803002010B58EB000240794CE
:10288000089409940A940B941C2168460C94FDF753
:1028900060FC2648244901600321C0E9011448F680
:1028A0000451C0E903148461FFF73BF900B1FEE76E
:1028B0004FF48050079007A91C48FFF78DF900B12D
:1028C000FEE71A48FFF754FC00B1FEE70B940BA992
:1028D00016480C94FFF704F900B1FEE76020CDE93B
:1028E000000402940022694610480494FFF7D8FBC4
:1028F00000B1FEE7042269460C48FFF7D1FB00B1A6
:10290000FEE7082269460948FFF7CAFB00B1FEE767
:102910000C2269460548FFF7C3FB00B1FEE70348F8
:10292000FFF74EFB0EB010BD00040040B8030020BE
:102930002DE9FF4FFF4C97B081469A4619992069BF
:10294000FDF76AFC06461899E068FDF765FC054648
:10295000A068494680F00040FDF75EFC2946FDF77F
:1029600055FC3146FDF752FC4FF0FF373946FDF775
:10297000C3FC804618992069FDF74EFC064619995C
:10298000E068FDF749FC616805464846FDF744FCF0
:102990002946FDF7E9FB3146FDF738FC3946FDF7DE
:1029A000ABFC216906464846FDF736FC834619997B
:1029B000A068FDF731FC054618996068FDF72CFC0E
:1029C0002946FDF723FC5946FDF7CEFB3946FDF7B6
:1029D00093FCE16805464846FDF71EFC83461899BE
:1029E000A068FDF719FC814619996068FDF714FC91
:1029F0004946FDF7B9FB5946FDF708FC3946FDF796
:102A00007BFC07461AF0FF4F07D1249810F0FF4FC8
:102A100003D1259810F0FF4F7ED025990846FDF789
:102A2000FBFB249983460846FDF7F6FB8146514699
:102A30000846FDF7F1FB4946FDF796FB5946FDF7C1
:102A400093FB01F0ABFA814601465046FDF7E4FBEB
:102A50001A9049462498FDF7DFFB249049462598B3
:102A6000FDF7DAFB834601216068FDF745FC149011
:102A70000121A068FDF740FC12900121E068FDF7FC
:102A80003BFC139001212069FDF736FC15900221D3
:102A90006068FDF731FC02900221A068FDF72CFC74
:102AA00005900221E068FDF727FC04900321A0684F
:102AB000FDF722FC03900321E068FDF71DFC0C905C
:102AC00061686068FDF7A8FB1090A168A068FDF739
:102AD000A3FB0190E168E068FDF79EFB009021698F
:102AE0002069FDF799FB099024991298FDF794FB52
:102AF0000D90DDE90110FDF78FFB82461A991398BE
:102B0000FDF78AFB814600990298FDF785FB49464F
:102B1000FDF72AFB514600E0EEE0FDF725FB0D999D
:102B2000FDF774FB029059460598FDF775FB0A9076
:102B300000990398FDF770FB0D9001990398FDF73C
:102B40006BFB824624991498FDF766FB0E900221D8
:102B50001098FDF7D1FB1690A168FDF75DFB81464B
:102B60001A991598FDF758FB119009990598FDF7EA
:102B700053FB1199FDF74AFB4946FDF7F5FA0E990B
:102B8000FDF744FB0599FDF741FB5146FDF7ECFAD3
:102B90000D99FDF7E9FA0A99FDF7E6FA82465946DA
:102BA0000498FDF739FB814600990C98FDF734FB3A
:102BB0000A9001990C98FDF72FFB0C902499159819
:102BC000FDF72AFB0E9009990498FDF725FB0F905D
:102BD0001A991498FDF720FB83461698E168FDF7D3
:102BE0001BFB5946FDF7C0FA0F99FDF7BDFA0E9988
:102BF000FDF70CFB0499FDF709FB0C99FDF7B4FAFE
:102C00000A99FDF7B1FA4946FDF7AEFA83462499D1
:102C10001398FDF701FB059002210098FDF76CFB6E
:102C20002169FDF7F9FA81461A991298FDF7F4FA2D
:102C3000009002210198FDF75FFB2169FDF7ECFA96
:102C40000099FDF7E3FA4946FDF78EFA0599FDF77D
:102C5000DDFA81460146FDF7DFFA59460590084640
:102C6000FDF7DAFA514600900846FDF7D5FA0299C9
:102C70000A900846FDF7D0FA0A99FDF775FA00990F
:102C8000FDF772FA0599FDF76FFA01F087F9014631
:102C900000900298FDF7C0FA029050460099FDF7A7
:102CA000BBFA824658460099FDF7B6FA8346484675
:102CB0000099FDF7B1FA814602992068FDF7ACFA58
:102CC0004146FDF7A6FA804651462068FDF7A4FA72
:102CD0003146FDF79EFA064659462068FDF79CFAF4
:102CE0002946FDF796FA054649462068FDF794FA0D
:102CF0003946FDF78EFA07460F480068FDF7B0FC2D
:102D00000E49FDF7BBFA81464146FDF785FA616839
:102D1000FDF72AFA606048463146FDF77DFAA16862
:102D2000FDF722FAA06048462946FDF775FAE168EA
:102D300006E000000000002060020020002474492A
:102D4000FDF712FAE06048463946FDF765FA216959
:102D5000FDF70AFA206121692069FDF75DFAE16853
:102D60000746E068FDF758FAA1680646A068FDF737
:102D700053FA616805466068FDF74EFA2946FDF78B
:102D8000F3F93146FDF7F0F93946FDF7EDF901F0B9
:102D900005F9054601466068FDF73EFA6060294680
:102DA000A068FDF739FAA0602946E068FDF734FA1B
:102DB000E06029462069FDF72FFA20611BB0BDE8CD
:102DC000F08FFEE7704770472DE9FF5F4C4C21689C
:102DD0002068FDF721FA4B4D029029682868FDF71D
:102DE0001BFA494E824631683068FDF715FA474FA5
:102DF000019039683868FDF70FFA00908AF00040BA
:102E00000199FDF703FA0099FDF7AEF90299FDF774
:102E1000ABF9FDF769FC8946216880462868FDF713
:102E2000FBF9396883463068FDF7F6F95946FDF736
:102E30009BF9FDF759FC0122FDF7F2FB42464B4698
:102E400000F0E2FFFDF794FC216883463068FDF74F
:102E5000E3F9396880462868FDF7DEF94146FDF759
:102E6000D5F9FDF741FC00224FF04043FDF7F7FA9A
:102E700000F082FDFDF77CFC039050460199FDF7C0
:102E8000C5F90099FDF7C2F90299FDF76DF9FDF753
:102E90002BFC8946216880463868FDF7BDF931680A
:102EA00004462868FDF7B8F92146FDF75DF9FDF7FE
:102EB0001BFC0122FDF7B4FB42464B4600F0A4FF89
:102EC000FDF756FCDFF84880074641465846FDF7B7
:102ED000A3F9104C06464146E0610398FDF79CF9C2
:102EE0000546206241463846FDF796F986F00041D6
:102EF0002161606280F00040C4E90550BDE8FF9F99
:102F000004000020080000200C0000201000002019
:102F1000E12E6542980000207047000002480168D9
:102F2000491C0160FEF728BA6000002030B58FB060
:102F300028216846FDF70DF914210AA8FDF709F9C3
:102F400001210804CDE90010002402940225049117
:102F5000CDE907504FF4E01009906846FEF7A2FB58
:102F600000B1FEE70F20CDE90A054FF48060CDE9FE
:102F70000C4002210AA80E94FEF7A8FA002800D0FF
:102F8000FEE70FB030BD00000D48016841F00101BF
:102F9000016041680B4A1140416001680A4A1140D2
:102FA0000160016821F480210160416821F4FE0183
:102FB00041604FF41F0181600449C00308607047FD
:102FC000001002400000FFF8FFFFF6FE08ED00E0F1
:102FD00070B511480068416A104C002521604562B7
:102FE0000D48FEF739FF226840F6B8300C4982429E
:102FF00001D90D6070BD0868082805D2094B43F857
:103000002020401C086001E00928F3D001F030FACC
:103010000549086070BD00003803002070020020E0
:103020006C0200201C050020C0000020F0B50268E2
:10303000164B174C174D4FF08047984205D0B842B9
:1030400003D0A04201D0A84203D122F070064A6802
:103050003243984205D0B84203D0A04201D0A842E2
:1030600003D122F44074CA6822434C6922F08002E2
:10307000224302608A68C2620A688262984201D171
:103080000969016301214161F0BD0000002C01408C
:10309000000400400008004010B501F01F030121AA
:1030A000046A99408C430462016A9A4011430162A8
:1030B00010BD10B5846842EA032224F47F440A4319
:1030C0002243826010BD826822F070020A4342F0FF
:1030D000070181607047000030B5026A22F00102EA
:1030E0000262026A4368846924F073050C682C4309
:1030F00022F002058A682A430A4DA8420BD122F029
:103100000805CA6823F440732A434D6922F004027B
:103110001D438B692B4343608461496841630262AC
:1031200030BD0000002C014030B5026A22F01002D0
:103130000262026A436884690D6824F4E64444EA42
:1031400005248D6822F0200242EA05120B4DA842A8
:103150000ED1CD6822F0800242EA05124D6923F4B7
:10316000406343EA85038D6922F0400243EA850308
:103170004360846149688163026230BD002C014074
:1031800030B5026A22F480720262036A4268C4693E
:1031900023F4007324F073050C682C438D6843EA14
:1031A00005230C4DA8420ED1CD6823F4006343EAF9
:1031B00005234D6922F4405242EA05128D6923F439
:1031C000806342EA05124260C4614968C1630362D8
:1031D00030BD0000002C014030B5026A22F480525C
:1031E0000262046A4268C3690D6823F4E64343EA55
:1031F00005238D6824F4005444EA0534064DA842A2
:1032000004D14D6922F4804242EA85124260C361D2
:1032100049680164046230BD002C014010B5036AA6
:10322000046A24F001040462846924F0F00444EA8E
:10323000021423F00A020A438461026210BD0000F6
:1032400070B5046A24F0010404628469056A0F4EB3
:10325000B04208D0B0F1804F05D00D4EB04202D040
:103260000C4EB04203D124F00304144301E044F0B7
:1032700001041A0724F0F00444EA126225F00A035C
:1032800001F00A0119438261016270BD002C014006
:10329000000400400008004010B5036A23F010034A
:1032A00003628369046A23F4704343EA023224F020
:1032B000A00343EA01118261016210BD30B5046AC6
:1032C00024F0100404628469056A24F4407444EA1A
:1032D000022222F470444FF6FF7202EA03322243C4
:1032E000A02425F0A00304EA0111194382610162C0
:1032F00030BD00002DE9F041044600680169E26834
:1033000021F44051114301612169A06808436169BA
:1033100008432168CA6841F20C639A430243CA60B9
:1033200020684169A26921F44071114341611E493D
:10333000206864253226884202D1FEF76DF901E04B
:10334000FEF75AF900EBC00101EB001160686FF065
:1033500018078000B1FBF0F2B2FBF5F2B1FBF0F31D
:103360007A4303EB8202B1FBF0F306EB0212B2FBED
:10337000F5F2B3FBF5F302F0F00202EB0312B1FB3E
:10338000F0F3B1FBF0F0B0FBF5F0784303EB800015
:1033900006EB0010B0FBF5F0216800F00F001044C0
:1033A0008860BDE8F081000000380140FEE70000C1
:1033B0000FB4054B10B503A9044A029800F0AAF80F
:1033C00010BC5DF814FB0000893F00088402002057
:1033D000490050EAC12018BF04204A0D18BF40F030
:1033E000010040F2FF72B2EB515F08BF40F00200F3
:1033F000012808BF052070470907090E002804DBD3
:1034000000F1E02080F80014704700F00F0000F198
:10341000E02080F8141D70472DE9F0414F1E00EBAD
:10342000C7010446D1E9000115461E4637F00602E1
:103430000DD02A463346FDF712F87F1E04EBC70372
:10344000D3E90023FCF764FF37F00602F1D1022F25
:1034500025D0042F13D0062F18BFBDE8F0812A46CF
:103460003346FCF7FCFFD4E90A23FCF751FF2A4658
:103470003346FCF7F4FFD4E90823FCF749FF2A465A
:103480003346FCF7ECFFD4E90623FCF741FF2A465C
:103490003346FCF7E4FFD4E90423FCF739FF2A465E
:1034A0003346FCF7DCFFD4E90223FCF731FF2A4660
:1034B0003346FCF7D4FFD4E90023BDE8F041FCF724
:1034C00027BF0122FDF7ACB8FCF722BF002213464C
:1034D00010461146FDF735B8024A00201107FDF7E6
:1034E0009FB8000001FDFFFF02E008C8121F08C1DD
:1034F000002AFAD170477047002001E001C1121F75
:10350000002AFBD1704700000149086070470000A5
:10351000880200202DE9FF4F8DB00F46054600269A
:1035200006E025280BD0DDE90F1290476D1C761CB4
:1035300028780028F5D111B03046BDE8F08F00247E
:10354000A246A1460122EC4900E0044315F8013FE0
:10355000203B02FA03F00842F7D128782A2810D03D
:103560006FF02F022878A0F13001092914D80AEB56
:103570008A0102EB410144F0020400EB010A6D1CD8
:10358000F0E701CF5FEA000A03D544F40054CAF122
:10359000000A44F002046D1C28782E2817D115F873
:1035A000010F44F004042A280ED06FF02F0228786F
:1035B000A0F1300109290AD809EB890102EB410188
:1035C00000EB01096D1CF2E757F8049B6D1C28788D
:1035D0006C280FD006DC4C2817D068280DD06A283C
:1035E00014D104E0742810D07A280FD10DE044F4EF
:1035F00000140AE044F4801401E044F440146978B3
:10360000814202D104F580146D1C6D1C2A786E2A4B
:103610001FD00CDC632A31D004DC002A8BD0582A5E
:1036200011D1A3E0642A68D0692A0CD165E0732A1D
:103630002ED004DC6F2A73D0702A04D19BE0752A47
:103640006FD0782A6ED01046DDE90F129047761CB5
:1036500050E1C4F30250022806D0032809D0042800
:1036600001CF09D0066045E101CFF117C0E9006143
:1036700040E101CF06803DE106703BE117F8040B05
:103680008DF8000000208DF80100EB46012003E0DA
:1036900057F804BB4FF0FF3061074FF0000102D430
:1036A0000DE008F10101884649450FDA8045F8DB55
:1036B0001BF808100029F4D108E008F10101884640
:1036C0008142FADB1BF808100029F6D1DDE90F234F
:1036D000AAEB08008146214600F036F9304400EBA1
:1036E000080604E0DDE90F121BF8010B9047B8F162
:1036F0000108F7D221464846F7E00A21C4F30253F5
:103700004FF0000B0891022B04D001CFC117032BFF
:1037100009D00AE0FF1D27F00707F7E8020108E0DB
:1037200032E01FE020E000B2C117042B01D140B20B
:10373000C117031E71F1000307DA4FF0000CD0EB44
:103740000C006CEB01012D2302E0230504D52B2393
:103750008DF82430012303E0E30701D02023F7E7AD
:10376000984658E00A2110E010210EE010204FF09A
:10377000000B08900CE010214FF0000B44F0040403
:103780004FF00809089103E008214FF0000B089161
:10379000C4F30253022B04D001CF0021032B06D027
:1037A00006E0FF1D27F00707F7E8020103E080B2FB
:1037B000042B00D1C0B24FF0000823072BD5702A8C
:1037C00007D0DDF820C08CF0100C5CEA0B0C05D0A3
:1037D0000EE040238DF82430012308E050EA010375
:1037E00006D030238DF824308DF82520022398460A
:1037F000DDF820C08CF0080C5CEA0B0C0BD150EA11
:10380000010301D1630706D530238DF824304FF032
:103810000108A9F10109582A04D038A20B9208AA7C
:103820000A920BE03AA2F9E75B46089AFCF7BCFF64
:103830000B9B9B5C0A9A521E0A92137050EA01027B
:10384000F2D10A98ADEB000000F1200B600702D521
:1038500024F4803401E04FF00109D94502DDA9EBE1
:103860000B0000E0002000EB0B0141440890AAEBA4
:10387000010AE00306D4DDE90F232146504600F09B
:1038800063F806444FF0000908E009A911F809009F
:10389000DDE90F12904709F10109761CC145F4DBFF
:1038A000E0030CD5DDE90F232146504600F04CF82B
:1038B000064404E0DDE90F1230209047761C089999
:1038C000481E08900029F5DC08E00A980A9900785B
:1038D000491C0A91DDE90F129047761CBBF10001EB
:1038E000ABF1010BF1DC21465046DDE90F2300F07E
:1038F00019F806446D1C1BE60928010030313233EB
:10390000343536373839616263646566000000001B
:103910003031323334353637383941424344454605
:10392000000000002DE9F041044600251E46174620
:10393000880404D405E039462020B0476D1C641E7D
:10394000F9D52846BDE8F0812DE9F041044600256F
:103950001E469046C80301D5302700E02027880482
:1039600004D505E041463846B0476D1C641EF9D5C4
:103970002846BDE8F08100002DE9F04D8D4F21F083
:10398000004A86B005460C46BA452ADBAAEB07007A
:1039900028430AD08848824501DC1AD1CDB106B04F
:1039A0002846BDE8F04DFFF78CBD844A844B28467D
:1039B000FCF755FD07460E46824A834B28462146B2
:1039C000FCF74DFD06B03A463346BDE8F04DFCF736
:1039D0009FBC0120FFF798FD06B0BDE8F04DFFF752
:1039E00075BD7A48824542DABAF1795F0BDA28462A
:1039F000FFF7EEFC042808BFFFF76EFD284606B06F
:103A00002146BDE8F08D2A460B461046FCF727FDFF
:103A1000834602466E480E460B4606217844FFF761
:103A2000FBFC5A463346FCF71AFD804669488A4635
:103A30005A46334604217844FFF7EEFC5A46334693
:103A4000FCF70DFD00223B46FCF762FC02460B46EC
:103A500040465146FCF775FD2A462346FCF7FFFC1D
:103A600006B02A462346BDE8F04DFCF751BC284677
:103A700024F0004100223D463B46FCF7EDFC4FF0B0
:103A8000FF32FCF7CDFD0646024653480F460B4673
:103A900006217844FFF7C0FC32463B46FCF7DFFCCA
:103AA000CDE900014D4832463B4604217844FFF7FA
:103AB000B3FC32463B46FCF7D2FC00222B46FCF717
:103AC00027FC834602913046394601F0BFFA804612
:103AD00043480D46504517DCDDE900015A46029B7C
:103AE000FCF72FFD42462B46FCF7B9FC42462B461D
:103AF000FCF70EFC0122FCF793FD304A304BFCF73B
:103B0000A8FC304A304B4CE04FF0000A52460B46BE
:103B10004046FCF7FDFBCDE9031052462B4610460C
:103B20001946FCF79CFC32463B46FCF795FCDDE968
:103B30000332FCF706FD06460F46DDE900015A4652
:103B4000029BFCF7FEFC8346009101223046394679
:103B5000FCF766FD194A1A4BFCF77EFC06460F4639
:103B6000012240462946FCF75BFD5A46009BFCF7C4
:103B700076FC32463B46FCF76CFC06460F460122BB
:103B800050462946FCF74CFD0E4DDFF858802A467A
:103B90004346FCF761FC32463B46FCF75DFC2A4697
:103BA0004346FCF759FC002CD8BF81F0004106B019
:103BB000BDE8F08D0000F03F0000F07F075C14339B
:103BC00026A6913C182D4454FB21F93F0000E03F0C
:103BD00000180000161800008A170000A017000047
:103BE0003333EF3FFB21E93F2DE9F84F04460D4603
:103BF00021F0004000917349814211DC72498842F2
:103C000001DC06D12CB120462946BDE8F84FFFF76C
:103C100058BC6E48002DCCBF6D496E49BDE8F88F89
:103C20006D49814211DD6D498142D8BF4FF0FF36A9
:103C30006DDD20462946FFF7CBFB042808BFFFF7C0
:103C40004BFC20462946BDE8F88F6549654F25F0B5
:103C50000045814233DD6449814219DD0026324648
:103C60004FF0804320462946FCF752FB80468A46A7
:103C7000012220462946FCF7D3FC00223B46FCF7F4
:103C8000E8FB42465346FCF75CFC04460D463EE02A
:103C900001260022BA463B4620462946FCF738FB5F
:103CA00080460F460022534620462946FCF7D1FBAA
:103CB00042463B46FCF745FC04460D4627E04B498F
:103CC00081421BDDDFF828A1022600225346204650
:103CD0002946FCF7C4FB00223B46FCF719FB804653
:103CE0000F460022534620462946FCF7B2FB4246C7
:103CF0003B46FCF726FC04460D4608E00326224618
:103D00002B4600203B49FCF71CFC04460D4622468E
:103D10002B4610461946FCF7A2FB8B46824602460C
:103D20000B46FCF79CFB07460246334888460B4689
:103D300006217844FFF770FB52465B46FCF78FFB89
:103D400082462E488B463A46434605217844FFF783
:103D500063FB3A464346FCF782FB02460B46002EC5
:103D6000504659460CDAFCF7D3FA22462B46FCF7AC
:103D700076FB01B022462B46BDE8F04FFCF76CBB4A
:103D8000FCF7C6FA22462B46FCF769FB1C4A7A442C
:103D900002EBC603D3E90023FCF75BFB22462B466C
:103DA000FCF757FB174A7A4402EBC603D3E900231A
:103DB000FCF752FB009A002AB8BF81F00041BDE831
:103DC000F88F0000000010440000F07F182D4454CC
:103DD000FB21F93FFB21F9BF0000DC3F0000203E42
:103DE0000000F33F0000F03F0000E63F008003408A
:103DF0000000F83F0000F0BFA215000060150000B1
:103E0000FE140000C61400002DE9F04D9446CCF1DC
:103E1000000423F000464CEA0404524F46EAD474EE
:103E20009A46884621F00042BC4206D8454240EA04
:103E3000050442EAD474BC4204D9BDE8F04D6246A0
:103E4000FFF742BBAAF14055A5F17F6555EA0C0486
:103E50000BD0022404EAAA74434DDFF810E144EACF
:103E6000D87452EA000B04D00CE0BDE8F04DFFF727
:103E7000BBBE002C14BF012CBDE8F08D022C30D04D
:103E8000032C32D056EA0C0B0AD0BE4220D1BA42E3
:103E900009D126F0804622F080423346114617E0D1
:103EA00000291ADB25E0DFF8C8B0FB44002C04BF72
:103EB000DBE90001BDE8F08D012C02BFDBE9000168
:103EC00081F00041BDE8F08D022C0AD0032C0CD00B
:103ED000BA4212D1B8F1000F0BDA23482549BDE8E8
:103EE000F08D28462449BDE8F08D28467146BDE88E
:103EF000F08D1D482149BDE8F08D921B12153C2A1A
:103F0000C4BF19481D490EDCBAF1000FBEBF12F143
:103F10003C0F0020014606DB6246FCF712FB21F055
:103F20000041FFF761FE002C08BFBDE8F08D012CB9
:103F300004BF81F00041BDE8F08D114A114B022C05
:103F400007D0FCF786FA2A46BDE8F04D0A4BFCF78D
:103F500080BAFCF77EFA2A46BDE8F04D064BFCF726
:103F60007BBA00000000F07F182D4454FB2109C0EB
:103F70005A140000FB21F9BFFB210940FB21F93F46
:103F8000075C143326A6A13C38B504468DF8000022
:103F900069460320ABBE204638BD000010B504467C
:103FA0004FF0FF31FCF7A8F90849A1EB6404214662
:103FB000FCF732F92146FCF72FF94FF07F51FCF75F
:103FC00028F92146BDE81040FCF726B9DF59375FD4
:103FD0001CB5FDF7D9F9FEF7A9FFFEF775FB81487F
:103FE0007F49002401608049C0E901144FF48041F9
:103FF000C0E9034144618461C4610462FCF78CFE42
:1040000000B1FEE77A4879490C2501607949C0E999
:104010000114C460C0E904458461C461FEF7E4F89A
:1040200000B1FEE7FEF7C0FBFEF7DEFB70484FF085
:1040300080418038C0E9001444F2B461C0E9024113
:10404000046108218461FDF7F4FF00B1FEE76848D0
:10405000694980304FF4E1360160C0E90164C46011
:10406000C0E904458461C461FEF7BEF800B1FEE713
:10407000FEF702FC5E48614940300160C0E901641E
:10408000C460C0E904458461C461FEF7ADF800B1C5
:10409000FEE75B484FF47A770068B0FBF7F0401E0C
:1040A000B0F1807F09D24FF0E0214861554AF020FD
:1040B00082F8140D8C61072008614D4800214038BA
:1040C000FEF774F84A4804214038FEF76FF8484874
:1040D00008214038FEF76AF845480C214038FEF7C1
:1040E00065F840480021AC30FDF78BFE00F0C0F9C8
:1040F000454DE86300F0BCF9286400F0B1FD3C4E8A
:10410000DFF808A1DFF808814FF40059DC36287881
:10411000002854D000F0ACF9306001222021404644
:10412000FCF7EEFD2C7000F03FFC00F0A1F9706090
:10413000687848B9D5E91501CDE9000105F16C00B1
:104140002B6D07C8FEF7F4FBFEF73EFE00F090F97A
:10415000B06000F061F800F0C5FE00F00FFE00F066
:104160009BFF00F085F9F06000F082F96864E86C6C
:10417000A0F2C3103B280ED200F07AF92249803118
:10418000896A401A2349884205D22046EC7000F023
:1041900083F9012204E00120E87000F07DF900229B
:1041A00049465046FCF7ACFDA86B401CA86300F0E4
:1041B0005FF93061002220214046FCF7A1FDE96B48
:1041C000A86C411AB94203D9A96BE964C5E90E404C
:1041D000296C411AFA299AD9286400F049F996E71E
:1041E000005400408C020020801A06000038014074
:1041F000F803002080841E00004800400044004076
:10420000800200200FE000E01800002000100140B4
:10421000000C0140A08601002DE9F04F544C91B0F4
:10422000E068FCF722FA534B0022CDE90623524BFB
:10423000DFF850B1CDE90423504BCDE90223504BB8
:10424000CDE900235B4600F0D3F805460E466068D2
:10425000FCF70BFA474B0022CDE90623464BCDE98C
:104260000423464BCDE90223454BCDE900235B46B1
:1042700000F0BEF8804681F000492068FCF7F5F9AF
:10428000414B0022CDE90623404BCDE904233B4BB3
:10429000CDE902233A4BCDE900235B4600F0A8F8B4
:1042A000074681F0004AA068FCF7DFF90022384B8E
:1042B000CDE90422CDE90623304BCDE90223304B72
:1042C000CDE900235B4600F093F8324C8346009121
:1042D000D4E9100103912A4633460890FCF7B9F857
:1042E000A4F18003D3E9142315461E46FCF7B7F862
:1042F000039B089AFCF7B0F84246C4E91001D4E9E0
:1043000012814B4689464046FCF7A3F82A463346BD
:10431000FCF7A5F842464B46FCF79EF83A46C4E93E
:104320001201D4E91471534688463846FCF791F8D7
:104330002A463346FCF793F843463A46FCF78CF896
:10434000C4E91401D4E916015A4607468846009B81
:10435000FCF77FF82A463346FCF781F83A46434695
:10436000FCF77AF8C4E9160111B0BDE8F08F00003F
:104370001C05002000003E4000003EC000809F4021
:104380000078974000208F4000006940000069C01D
:1043900000806640180100202DE9FF5F9046DDE9AE
:1043A00012010EAA9A4692E8900A4A465B46FCF72A
:1043B00050F805460E464246534620463946FCF71D
:1043C00048F807460C46DDE9000142465346FCF733
:1043D00040F83A462346FCF7B4F82A463346FCF741
:1043E0003EF804B04A465B46BDE8F05FFBF790BF7D
:1043F0002DE9FF5F86B00646DDE91445DDE918AB1F
:104400000F46DDE91A0152465B46FBF781FF4FF08C
:10441000FF32FCF705F98046894622462B46304696
:104420003946FCF775F908D28DE8300CCDE90489DE
:10443000DDE908233046394614E022462B46304653
:104440003946FCF77DF90FD8DDE91A01CDE9040101
:10445000CDE90289DDE91601CDE9000122462B46AE
:1044600030463946FFF798FF0AB0BDE8F09F0000DC
:104470004FF0E02041698069081A4821B0FBF1F152
:104480000448806C00EB4002C2EBC01001EBC0009E
:1044900070470000180000202DE9F047FD4F86B05E
:1044A000804607F18005D7E9160105F18004FA4E30
:1044B000C4E90401C4E90601C4E90801D5E91C23E3
:1044C000DFF8D893DFF8D8A3FBF7C3FF0022134629
:1044D000C4E90201FCF71CF90AD2D4E90401D4E9C9
:1044E0000223FBF7B6FFC4E904010020014614E0F3
:1044F000D4E9022300203146FCF70AF90FD2D4E9AF
:10450000022300203146FBF7A4FFD4E90423FBF784
:10451000FFFEC4E90401E0490020C4E90201D5E935
:104520001C23D4E90401FBF7F3FE00221346C4E97F
:104530000401FCF7EDF80AD2083494E80F00083CB7
:10454000FBF787FFC4E902010020014614E0D4E92B
:10455000042300203146FCF7DBF80FD2D4E9042312
:1045600000203146FBF775FFD4E90223FBF7D0FEAC
:10457000C4E90201C8490020C4E90401D5E91C23AB
:10458000D4E90601FBF7C4FE00221346C4E9060184
:10459000FCF7BEF80AD2D4E90801D4E90623FBF7F8
:1045A00058FFC4E908010020014614E0D4E90623BD
:1045B00000203146FCF7ACF80FD2D4E906230020E6
:1045C0003146FBF746FFD4E90823FBF7A1FEC4E917
:1045D0000801B1490020C4E90601D5E91C23D4E94A
:1045E0000801FBF736FF00221346C4E90801FCF777
:1045F0008FF80AD2183494E80F00183CFBF729FF13
:10460000C4E906010020014614E0D4E90823002093
:104610003146FCF77DF80FD2D4E90823002031465B
:10462000FBF717FFD4E90623FBF772FEC4E9060186
:1046300099490020C4E90801D5E91E23D4E9020103
:10464000FBF766FE00221346C4E90201FCF760F89E
:104650000AD2D4E90801D4E90223FBF7FAFEC4E93F
:1046600008010020014614E0D4E90223002031466D
:10467000FCF74EF80FD2D4E9022300203146FBF7B5
:10468000E8FED4E90823FBF743FEC4E908018249A8
:104690000020C4E90201D5E91E23D4E90801FBF793
:1046A000D8FE00221346C4E90801FCF731F80AD20B
:1046B000D4E90201D4E90823FBF7CBFEC4E90201E7
:1046C0000020014614E0D4E9082300203146FCF71D
:1046D0001FF80FD2D4E9082300203146FBF7B9FEBA
:1046E000D4E90223FBF714FEC4E902016A49002061
:1046F000C4E90801D5E91E23D4E90401FBF708FE4B
:1047000000221346C4E90401FCF702F80AD2D4E9F6
:104710000601D4E90423FBF79CFEC4E9060100204E
:10472000014614E0D4E9042300203146FBF7F0FFF2
:104730000FD2D4E9042300203146FBF78AFED4E9E6
:104740000623FBF7E5FDC4E9060153490020C4E94F
:104750000401D5E91E23D4E90601FBF77AFE002205
:104760001346C4E90601FBF7D3FF0AD2103494E8DC
:104770000F00103CFBF76DFEC4E904010020014668
:1047800014E0D4E9062300203146FBF7C1FF0FD225
:10479000D4E9062300203146FBF75BFED4E904236D
:1047A000FBF7B6FDC4E904013B490020C4E906015A
:1047B000D4E90023D4E9020115461E46FBF7A8FD03
:1047C000C4E90201D4E904012A463346FBF741FE5D
:1047D000C4E90401D4E906012A463346FBF798FDF3
:1047E000C4E90601D4E908012A463346FBF731FE45
:1047F0002B4B0022C4E90801CDE90423274BCDE966
:104800000223254BCDE900231346FFF7C5FDC4E97C
:10481000080123490020CDE9040120490246CDE9E1
:1048200002011D490346CDE90001D4E90201FFF769
:10483000B3FDC4E902011A490020CDE9040117497A
:104840000246CDE9020114490346CDE90001D4E94D
:104850000601FFF7A1FDC4E9060111490020CDE9D9
:1048600004010E490246CDE902010B490346CDE998
:104870000001D4E90401FFF78FFDC4E90401D4E984
:10488000080100224D464B46FBF742FF0AD20020AA
:10489000024910E018010020008066400094D140D9
:1048A0000094E140D4E9080100225346FBF748FF99
:1048B00003D239490020C4E90801D4E902010022E9
:1048C0002B46FBF725FF02D20020344908E0D4E94B
:1048D000020100225346FBF733FF03D22E4900208A
:1048E000C4E90201D4E9060100222B46FBF710FFC0
:1048F00002D20020294908E0D4E9060100225346EB
:10490000FBF71EFF03D224490020C4E90601D4E9C5
:10491000040100222B46FBF7FBFE02D200201F49B8
:1049200008E0D4E9040100225346FBF709FF03D253
:1049300019490020C4E90401B8F1000F06D1D7E9F4
:1049400016010022164BFBF7E3FE09D213490020A3
:10495000C4E90201C4E90401C4E90601C4E908018B
:10496000D4E90201FBF7A7FE0E4D29684863D4E99C
:104970000401FBF7A0FE29688863D4E90601FBF770
:104980009AFE2968C863D4E90801FBF794FE2968F8
:10499000086406B0BDE8F0870094E1400094D1407F
:1049A00000002440B80300202DE9FE4F77493B204A
:1049B000642408700A460123D02175480094FCF74E
:1049C00017FC0E23734AD02171480094FCF70AFBB0
:1049D000704A002002F10E0132F810305BBA21F863
:1049E0001030401C0728F7DB6A4D0E35B5F9000082
:1049F000FBF72DFE654C241FA0670290B5F902005D
:104A0000FBF725FEE0670190B5F90400FBF71FFEF8
:104A100004F180084746C8F800000090B5F9080086
:104A2000FBF715FE81467860B5F90A00FBF70FFE2B
:104A30008246B860B5F90C00FBF709FEF860656BBB
:104A400001270646B5F5FA7F04D26D1C65636770D1
:104A5000BDE8FE8F40F2DC50854212D24846FBF79B
:104A600011FE2169084420615046FBF70BFE616985
:104A7000084460613046FBF705FEA1690844A06167
:104A8000E3E70020607020694FF47A7790FBF7F03D
:104A9000FBF7DDFD45464946FBF7BBFB83466860F7
:104AA000606990FBF7F0FBF7D2FD5146FBF7B1FBD5
:104AB0008246A860A06990FBF7F0FBF7C8FD31467D
:104AC000FBF7A7FBE8608146E1690298FBF74CFB26
:104AD000A16AFBF7A1FBA0670746216A0198FBF7D3
:104AE00043FBE16AFBF798FBE0670646616A0098C2
:104AF000FBF73AFB216BFBF78FFB2860E1688046F0
:104B00000D463846FBF7BAFB206529463046FBF7D1
:104B1000B5FB606529464046FBF7B0FBA0651D4824
:104B20000E30B0F90600FBF792FD1B49FBF7A6FB20
:104B3000FBF7DAFD194A1A4BFBF7EAFBFBF718FE05
:104B4000E065A16858460D46FBF798FB07462066CE
:104B500029465046FBF792FB0646606629464846C2
:104B6000FBF78CFBDFF83C800546A06641463846E3
:104B7000FBF752FBE06641463046FBF74DFB2067F2
:104B800041462846FBF748FB606761E71C000020B0
:104B90008C020020B80400200000AA43A4703D0A43
:104BA000D743424035FA8E3C7CB58DF8040064252D
:104BB000012301AAD0210A480095FCF719FB0446FD
:104BC0000123084AD02106480095FCF70BFA02465B
:104BD000214605A0FEF7ECFB024800787CBD0000F2
:104BE0008C020020B8040020537461747573573A26
:104BF00020256920537461747573523A2025690D1C
:104C00000A0000002DE9F8430F4E0D460746002428
:104C10004FF47A783770757002230B4AD0210B4815
:104C2000CDF80080FCF7E4FA10B109A0FEF7C0FB54
:104C30003846FFF7B9FFA84202D10020BDE8F8834B
:104C4000641C042CE6DBF9E71C0000208C02002029
:104C5000693263207478206572726F720D0A0000E9
:104C60002DE9F0476420FBF73BFF022200216B2077
:104C7000FFF7C8FF044632230522D0212A48FCF75B
:104C800005F92A4EDFF8A8A001004FF001054FF406
:104C900000571FD027A0FEF78BFBF5700022394686
:104CA0005046FCF72DF86420FBF71AFFFCF7FCFBDD
:104CB000A4B3214626A0FEF77BFBF57000223946FF
:104CC0005046FCF71DF86420FBF70AFFBDE8F047EB
:104CD000FCF7EABB02220F211920FFF793FF40EAFD
:104CE0000408022200211A20FFF78CFF40EA080482
:104CF000022218211B20FFF785FF40EA0408022248
:104D000018211C20FFF77EFF40EA0809022201213A
:104D10003820FFF777FF40EA0904C9E7FFE7BDE85D
:104D2000F04711A0FEF744BB8C02002018000020C1
:104D3000001001400A4572726F7220617420636F27
:104D40006E6E656374696F6E3A2025690A00000013
:104D50000A4572726F722061742073657475703ABF
:104D60002025690A00000000536574757020737572
:104D7000636365737366756C210A00002DE9F04F5B
:104D8000524D87B005F5807405F18006D4E9000125
:104D9000C5E916016869FBF7A7FCD6E91223FBF702
:104DA00058FBC4E90001E86A2863FFF761FBE86289
:104DB000296B401AFBF759FC0022454BFBF7C1FB5E
:104DC000C6E918010020C6E91E00D6E90E23DFF867
:104DD00004B1174698465946FBF73BFB8246894685
:104DE00000225B4638464146FBF792FA02460B46E4
:104DF0000021394801AFCDF81490009187E80D04E7
:104E00000A460B46D6E91601FFF7C6FAD4E9002395
:104E100082460F46D5E91C0190469946FBF71FFBD9
:104E200052463B46FBF71BFBC4E902012B4F4246AF
:104E30004B4600203946FBF783FC15D2D4E900012C
:104E40000022274BFBF77CFC0ED2D6E91823D4E9CD
:104E50000001FBF704FBD5E91E23FBF700FBD4E9B7
:104E60000423FBF755FA01E000200146C4E90401E0
:104E700016488038C07830B9D6E9160100223B4682
:104E8000FBF746FC02D20020C4E90400D5E9162352
:104E9000D4E90001FBF7DDFAD6E91823FBF751FB53
:104EA000D6E90023FBF7DBFAC4E90601054604F165
:104EB00008000E460FC8FBF72BFA2A463346FBF7CD
:104EC00027FAC4E91C0107B0BDE8F08F9800002064
:104ED00080842E410000F03F0080664000002440A6
:104EE000000024C02DE9F04F524A87B002F58074CB
:104EF0001646D4E90A01C6E9180102F18005924676
:104F00001069FBF7F1FBD5E91023FBF7A2FAC4E91E
:104F10000A01706BB063FFF7ABFA7063B16B401AB4
:104F2000FBF7A3FB0022444BFBF70BFBC5E91A017F
:104F30000020C4E90800D5E90E63DFF800B11F4680
:104F400032465946FBF785FA8146884600225B4681
:104F500030463946FBF7DCF902460B46002038495B
:104F6000CDF814808DE80F0202460346D5E91601FC
:104F7000FFF712FAD4E90A2380468946D5E90201EF
:104F800016461F46FBF76BFA42464B46FBF767FA9D
:104F90003246C4E90C012B4E3B4600203146FBF75C
:104FA000CFFB15D2D4E90A010022274BFBF7C8FB3F
:104FB0000ED2D5E91A23D4E90A01FBF750FAD5E954
:104FC0000423FBF74CFAD4E90E23FBF7A1F901E027
:104FD00000200146C4E90E0116488038C07830B977
:104FE000D5E9160100223346FBF792FB02D20020DE
:104FF000C4E90E00D4E90A01DAE91823FBF729FA1B
:10500000D5E91A23FBF79DFAD5E90623FBF727FA22
:10501000C4E91001064604F130000D460FC8FBF745
:1050200077F932462B46FBF773F9C4E91E0107B046
:10503000BDE8F08F9800002080842E410000F03FF2
:105040000080664000002440000024C02DE9F041AB
:1050500006460F46FBF78EFC041E0D4618BF0120C6
:10506000284320F00040C0F17F6000F1E040C00F15
:105070000ED0301C18BF0120384320F00040C0F192
:105080007F6000F1E040C00F04BF0120FEF73CFA52
:1050900020462946BDE8F0812DE9F04F534B87B0FB
:1050A00003F580741E46D4E91401A3F1800BC6E910
:1050B0001A0103F180059A46DBF86800FBF714FB40
:1050C000D5E91423FBF7C5F9C4E91401F06B30648A
:1050D000FFF7CEF9F063316C401AFBF7C6FA0022F5
:1050E000434BFBF72EFAC5E91C010020C4E912006E
:1050F000D5E90E2316461F463E49FBF7AAF980461E
:10510000894600223B4B30463946FBF701F90246FF
:105110000B460021384801AE009186E80D030A468F
:105120000B46D5E91601FFF737F9D4E91423804679
:105130008946D5E9080116461F46FBF790F9424615
:105140004B46FBF78CF93246C4E916012B4E3B4621
:1051500000203146FBF7F4FA15D2D4E914010022FD
:10516000274BFBF7EDFA0ED2D5E91C23D4E9140145
:10517000FBF775F9D5E90A23FBF771F9D4E9182390
:10518000FBF7C6F801E000200146C4E918019BF8CE
:10519000030030B9D5E9160100223346FBF7B8FA0F
:1051A00002D20020C4E91800D4E91401DAE91A2374
:1051B000FBF74FF9D5E91C23FBF7C3F9D5E90C231D
:1051C000FBF74DF9C4E91A01583406460D4694E838
:1051D0000F00FBF79DF832462B46FBF799F8094A7A
:1051E000C2E9000107B0BDE8F08F00009800002080
:1051F00080842E410000F03F008066400000244083
:10520000000024C018020020000000000000000080
:10521000010203040607080900000000010203045C
:10522000555555555555C53F7D6FEB0312D6D4BF27
:105230005544880E55C1C93F3B8F68B52882A4BF2D
:1052400088B20175E0EF493F09F7FD0DE13D023FEE
:105250004B2D8A1C273A03C0C88A599CE52A004076
:1052600059018D1B6C06E6BF82922EB1C5B8B33FC3
:105270004FBB610567ACDD3F182D4454FB21E93F6E
:105280009BF681D20B73EF3F182D4454FB21F93F5D
:10529000E2652F227F2B7A3C075C143326A6813CE3
:1052A000BDCBF07A8807703C075C143326A6913C8E
:1052B000C4EB98999999C9BF711623FEC671BCBFFA
:1052C0006D9A74AFF2B0B3BF9AFDDE522DDEADBF62
:1052D0002F6C6A2C44B4A2BF0D5555555555D53F7A
:1052E000FF8300922449C23F6E204CC5CD45B73F95
:1052F000513DD0A0660DB13FEB0D76244B7BA93F0D
:1053000011DA22E33AAD903F0000000000000000F7
:1053100030530008000000208C0200003C0A000806
:10532000B45300088C020020B4420000F834000896
:1053300025CDCCCC3D0311803F6201353333834111
:10534000C2451813DD5A37C208D39D43148B8DC252
:10535000C1447F3F57EA400B10418144715AF44CDD
:10536000017436AA443322112B9A99010A17A9A471
:10537000615AE8206908DAD010E918DAE01021084B
:10538000081DEC51B81E85EBC16801CA001A13490B
:105390002068617665207265636965766564207949
:1053A0006F7572206461746172093201821084A287
:0453B0004A040000AB
:04000005080000ED02
:00000001FF
