:020000040800F2
:100000005809002001010008D532000867270008C0
:10001000D3320008FB0B0008593A0008000000002A
:100020000000000000000000000000005D35000836
:10003000FD0B000800000000D73200086135000801
:100040001B0100081B0100081B0100081B01000820
:100050001B0100081B0100081B0100081B01000810
:100060001B010008010C00081B0100081B0100080F
:100070001B0100081B0100081B0100081B010008F0
:100080001B0100081B0100081B0100081B010008E0
:100090001B0100081B0100081B010008110C0008CF
:1000A0001B0100081B0100081B0100081536000891
:1000B0001B0100081B0100081B0100081B010008B0
:1000C0001B0100081B0100081B0100081B010008A0
:1000D0001B0100081B0100081B0100081B01000890
:1000E0001B0100081B0100081B010008DFF80CD0F1
:1000F00000F046FD00480047DD4E0008580900208A
:100100000648804706480047FEE7FEE7FEE7FEE7B1
:10011000FEE7FEE7FEE7FEE7FEE7FEE7CD35000877
:10012000ED0000082DE9F0410024061B254671F181
:10013000000605DA01240027D0EB070067EB010178
:10014000161E73F1000605DA0027D2EB070201251F
:1001500067EB030300F0B4FB86460E4617469C4649
:10016000AC4204D00025D0EB050E65EB010624B1AE
:100170000020D2EB000760EB030C704631463A4694
:100180006346BDE8F081202A04DB203A21FA02F020
:100190000021704721FA02F3D040C2F120029140C1
:1001A000084319467047D2B201E000F8012B491EFE
:1001B000FBD270470022F6E710B513460A46044604
:1001C0001946FFF7F0FF204610BDF0B480EA0102A7
:1001D000D40F4200B2EB410F02D20246084611464C
:1001E0004A0042D0C30DDDB2C1F3C752AD1A202D73
:1001F00035DAC1F3160141F4000204B15242C5F1EF
:10020000200602FA06F12A411044B3EBD05F23D056
:10021000C4B1012DA0EBC35009DCF0BC4FF000428B
:1002200002EAC352DBB200F5000000F0A4BB4000BC
:1002300000F1807000EBC350A0F1807040EAD170F3
:10024000490009E0490841EAC071A0EBC35000F53C
:100250000000400800EBC350F0BC00F083BB6142DB
:10026000012202EB4101001BF6E7F0BC704781F070
:100270000041AAE780F00040A7E780EA010210B53C
:1002800002F00043400022D04A001FD0010E01EBD3
:100290001261C0F35600C2F3560240F4000042F46B
:1002A0000002A0FB022000047F39140400D0401C8F
:1002B00050EA124001D44000491EC2B20C0604EBC1
:1002C000D010401C4008802A02D003E0002010BD5E
:1002D00020F00100002900DA0020184310BD30B4DE
:1002E00080EA010202F0004530F0004221F00040B7
:1002F00013D090B1C30DD40DC2F31601C0F3160094
:10030000E41A41F4000140F400027D34914201D32B
:10031000641C00E04900002C02DA30BC0020704769
:100320004FF400000023914201D3891A034340088F
:100330004FEA4101F7D151B1914202D14FF0004152
:1003400005E002D24FF0010101E06FF0010103EB83
:10035000C450284430BC00F005BB420005D0C0F3B7
:10036000C7525242914201DC0020704700EBC1505D
:1003700070472DE9FE4F804681EA0300C00F0C460E
:10038000009021F0004123F00045B8EB0200A941A4
:1003900005D24046214690461C460B46024623F0B5
:1003A0000040104347D0270DC7F30A00C3F30A519A
:1003B0000290401A019040286BDAC3F3130040F416
:1003C000801B0098924620B10023D2EB030A63EB16
:1003D0000B0B01985946C0F14002504600F0A1FABB
:1003E00006460D4650465946019A00F0A9FA10EB10
:1003F00008006141002487EA115284EAE7731A4336
:1004000040D0009A62B3019A012A4FEA075215DCE4
:10041000001B61EB02014FF0004202EA0752CDE9F6
:100420000042001C41F5801132462B4600F0E0FAF4
:1004300003B0BDE8F08F40462146F9E7001B61EBB1
:100440000201001C41F5801300185B412018A2F541
:10045000001747EB030140EAD570B6196D4111E072
:100460006D084FEA360645EAC0754FEA0752001B91
:1004700061EB0201001C41F5801149084FEA300090
:100480000019514132462B4603B0BDE8F04F00F051
:10049000A0BA0098012240000023D0EB020263EBD7
:1004A000E073009821464FEAE074B8EB000061EB7E
:1004B0000401E9E783F000435BE781F0004158E77E
:1004C0002DE9FE4F81EA030404F0004421F00041CD
:1004D00000944FF0000B23F0004350EA01045ED07B
:1004E00052EA03045BD0C3F30A54C1F30A552C4407
:1004F000A4F2F3340194A0FB0254C1F3130141F4BC
:100500008011C3F3130343F4801301FB024400FB87
:10051000034E840A970A44EA815447EA8357A4FBAE
:10052000076802958D0A05FB07854FEA932C04FBAB
:100530000C542705029D4FEA065847EA1637B5EBDB
:1005400008056EEB070C870E920E47EA811742EA08
:100550008312A7FB0201B6EB0B0164EB00042B0D29
:1005600043EA0C335E1844EB1C50DA465146E7FB75
:100570000201C5F313044FEA0B3343EA14534FEA65
:100580000432019C43EA0603A4F10C040294009C8B
:10059000CDE900B400F02CFA03B0BDE8F08F0020E4
:1005A0000146F9E72DE9F04D81EA030404F0004B20
:1005B00021F0004514464FF0000A23F0004150EAB4
:1005C000050220D054EA01021DD0C5F30A570246A5
:1005D000C5F31303C1F31300C1F30A5640F48015A9
:1005E00043F48013A7EB0608101BD64608F2FD382B
:1005F00073EB050002D308F1010801E092185B419A
:10060000B8F1000F03DA00200146BDE8F08D0020AC
:100610004FF48011064684460EE0171B73EB050766
:1006200005D3121B63EB050306434CEA010C490892
:100630004FEA300092185B4150EA0107EDD152EACF
:10064000030012D082EA040083EA0501084305D0C2
:10065000101BAB4106D20122002306E000224FF01E
:10066000004302E06FF0010253101AEB06004CEB5E
:10067000085110EB0A0041EB0B01BDE8F04D00F012
:10068000A8B970B521F0004303430CD0C1F30A555B
:100690000024D5EB040564EB0403D617AD1AB3416F
:1006A00002DB0020014670BD201841EB025170BDF5
:1006B000C10F80EAE0700844CA079623002100F0C9
:1006C0005AB996230022114600F055B930B40446B9
:1006D00096230800214604D0B62330BC002200F047
:1006E0004AB920460021F8E70EB540F233410291A5
:1006F0000021CDE900110A460B4600F079F903B05C
:1007000000BD0EB540F2334202920022CDE9002234
:10071000134600F06DF903B000BD00F0004220F078
:100720000040C10DC0F3160040F400007F2901DA3B
:1007300000207047962903DCC1F19601C84001E012
:1007400096398840002AF4D040427047C1F30A52DB
:1007500010B5C1F3130140F2FF3341F480119A4206
:1007600001DA002010BD40F233439A42A2F2334234
:1007700003DC5242FFF707FD10BD904010BDC1F3EE
:100780000A52C1F3130140F2FF3341F480119A423F
:1007900002DA00200146704740F233439A42A2F247
:1007A000334202DC5242FFF7EEBC00F0BAB800F070
:1007B000004230F000400AD0C10D01F56071C0F375
:1007C000160042EA0151C208400711437047002059
:1007D0000146704730B5041E71F1000404DB4FF090
:1007E0000044404264EB0101141E73F1000405DB78
:1007F0001C464FF00043524263EB04038B4208BF98
:10080000824230BD30B5041E71F1000404DB4FF0AC
:100810000044404264EB0101141E73F1000405DB47
:100820001C464FF00043524263EB0403994208BF59
:10083000904230BD01F0004330B421F0004150EA55
:10084000010206D00A0DA2F56072C1F31301002A5D
:1008500002DC30BC00207047440F44EAC104C100F0
:10086000E01830BC00EBC25000F07CB8002801DB7F
:10087000C0F10040002901DBC1F100418142704715
:10088000002801DBC0F10040002901DBC1F100417B
:100890008842704730B50B460146002020220124D3
:1008A00009E021FA02F59D4205D303FA02F5491B3E
:1008B00004FA02F52844151EA2F10102F1DC30BD54
:1008C0002DE9F05F0546002092469B468846064685
:1008D000814640241BE02846414647462246FFF712
:1008E00052FC53465A46C01A914110D3114618463D
:1008F000224600F016F82D1A67EB01084F462246F3
:100900000120002100F00DF817EB00094E41201ED8
:10091000A4F10104DFDC484631462A464346BDE8DF
:10092000F09F202A04DB203A00FA02F100207047F1
:100930009140C2F1200320FA03F31943904070471D
:10094000202A06DBCB17203A41FA02F043EAE07393
:1009500006E041FA02F3D040C2F120029140084380
:10096000194670470029A8BF7047401C490008BFBE
:1009700020F00100704710B4B0FA80FC00FA0CF0CF
:1009800050EA010404BF10BC704749B1CCF1200407
:1009900021FA04F411FA0CF118BF01212143084394
:1009A000A3EB0C01CB1D4FEA00614FEA102042BFC0
:1009B000002010BC704700EBC35010440029A4BFB6
:1009C00010BC7047401C490008BF20F0010010BC5B
:1009D000704710B5141E73F1000408DA401C41F191
:1009E000000192185B411A4301D120F0010010BDB3
:1009F0002DE9F04D92469B4611B1B1FA81F202E029
:100A0000B0FA80F220329046FFF78BFF04460F4683
:100A100040EA0A0041EA0B0153465A46084313D004
:100A2000114653EA010019D0C8F140025046FFF7C1
:100A3000AAFB05460E46504659464246FFF771FF4F
:100A4000084305D0012004E020463946BDE8F08D7A
:100A50000020054346EAE0762C4337430A986305B5
:100A6000E40AA0EB08000022FD0A44EA47540A30D9
:100A700002D500200146E9E7010510196941DDE9C9
:100A8000084500196941BDE8F04DA2E72DE9F04D98
:100A900000231A461B1A8A4103DB00200146BDE8E9
:100AA000F08DC1F30A52C1F3130141F480154FF0E8
:100AB000000BD10702D100186D41521E00270446D9
:100AC00040F2FF11384601EB620A3E46804602467C
:100AD00000204FF48011FFF756FBC2197141BB187B
:100AE00046EB0100B4EB030C75EB000C04D3E41AE5
:100AF00065EB000517460E46241908F101006D410B
:100B000080463428E3DDF91946EB0600091BA841AD
:100B100003D24FF0FF32134601E0002213461BEBD5
:100B2000070046EB0A51BDE8F04DFFF752BF10B584
:100B300000F0004420F00040C20DC0F3160040F465
:100B400000007F2A07DA7D2A00DA7D22763A00FA51
:100B500002F1002008E0962A09DCA2F1760100FAF1
:100B600001F1C2F19602D040FFF7FCFE01E0963A97
:100B70009040002C00D0404210BD00207047000083
:100B8000064C074D06E0E06840F0010394E80700DA
:100B900098471034AC42F6D3FFF7ACFA6868000807
:100BA0008868000870B58C1810F8015B15F0070311
:100BB00001D110F8013B2A1106D110F8012B03E0F6
:100BC00010F8016B01F8016B5B1EF9D12B0705D4FE
:100BD0000023521E0DD401F8013BFAE710F8013B47
:100BE000CB1A921C03E013F8015B01F8015B521E63
:100BF000F9D5A142D8D3002070BDFEE770470000B0
:100C0000024901200870082000F032B81A000020C4
:100C100010B504F01BFC0849094B086007490A6835
:100C2000821A1A600860074901200870BDE8104068
:100C3000000200F01DB80000CC010020C801002017
:100C4000640000201800002070B5044600F012F97E
:100C50000546601C02D004480078044400F00AF9FC
:100C6000401BA042FAD370BDD8010020704700009D
:100C7000044910B50A68024202D00860FFF7F6FF87
:100C800010BD0000140401402DE9F84FDFF8B891C1
:100C9000002409F1040A0AF1040B23460F270BF183
:100CA000040EC9E00125A5402A40AA427DD1674E25
:100CB000D1F804C0ACEB0608B44532D014DCBCF16A
:100CC000030F3AD009DCBCF1000F2AD0BCF1010FB0
:100CD0001CD0BCF1020F31D11DE0BCF1110F17D0B7
:100CE000BCF1120F2AD119E0B8F5881F19D006DC23
:100CF000B8F5803F15D0B8F5801F1FD111E0B8F5C9
:100D0000001F0ED0B8F5041F18D10AE0CB6815E01B
:100D1000CB681B1D12E0CB6808330FE0CB680C33A7
:100D20000CE08B682BB1012B4FF0080303D0456119
:100D300004E0042302E0056100E00023FF2A01D85B
:100D4000064601E000F104064FEA840501D9A5F149
:100D50002005D6F8008007FA05FC28EA0C0803FAFB
:100D600005F548EA0508C6F800804D68ED0062D533
:100D7000374DAE6946F00106AE61AD6924F0030659
:100D800005F001050095334D06EB050CDCF8085025
:100D9000A607360F07FA06F825EA0805DFF8B88037
:100DA000404503D14FF0000817E044E0DFF8AC8085
:100DB000404502D14FF001080FE0DFF8A480404524
:100DC00002D14FF0020808E0DFF89880404502D1D8
:100DD0004FF0030801E04FF0040808FA06F848EA6B
:100DE0000508CCF808804D68D9F80060ED034D4641
:100DF00001D5164300E096432E604D68DAF8006096
:100E0000AD03554601D5164300E096432E604D686C
:100E1000DBF80060ED025D4601D5164300E0964325
:100E20002E604D68DEF80060AD02754601D51643B0
:100E300000E096432E60641C0D682A46E5407FF46E
:100E400031AFBDE8F88F0000000401400000111030
:100E5000001002400000014000080140000C014069
:100E600000100140001401400AB1016170470904FB
:100E7000FBE700000148806870470000D8010020AF
:100E800070B504001BD094F83D00002520B984F80B
:100E90003C50204600F006FC242084F83D002068E9
:100EA000016821F00101016000F058FD4D4A6168C0
:100EB000914201D84C4900E04C49884201D20120BE
:100EC00070BD4B492368B0FBF1F15E6826F03F0628
:100ED0000E435E606368934206D94FF4967359439C
:100EE0004FF47A73B1FBF3F12368491C1E6A26F0B4
:100EF0003F06314319626168914210D84900401E93
:100F0000B0FBF1F2521CC2F30B02042A01D20420FE
:100F100022E0B0FBF1F0401CC0F30B001CE0A36822
:100F2000F3B301EBC10202EB0116421EB2FBF6F273
:100F3000521C42F48042120549D093B301EBC10226
:100F400002EB0111401EB0FBF1F0401CC0F30B009E
:100F500040F4804040F400402168CA694CF6FF73B9
:100F60009A431043C861D4E90701084321680A681D
:100F700022F0C00210430860D4E903010143206855
:100F8000826848F2FF339A4311438160D4E9050136
:100F900008432168CA6822F0FF021043C86001E0DC
:100FA0000EE016E02068016841F00101016025644F
:100FB000202084F83D00256384F83E50002070BD59
:100FC00001EB4106421EB2FBF6F2521CB3E70120D0
:100FD000C2E701EB4101401EB0FBF1F0401CC0F341
:100FE0000B00B7E7A086010080841E0000093D00C9
:100FF00040420F002DE9FF4F81B089460446FFF7BC
:1010000039FF054694F83D004FF0010820287AD1B9
:10101000192301224B492046009501F004FD0028C8
:1010200071D194F83C0001286DD0012084F83C0077
:1010300020680168C90703D1016841F0010101601E
:101040002068016821F400610160242084F83D00DB
:10105000002626643C48E0624FF0011B20272068F0
:10106000016841F4807101600095002259462046D4
:10107000049B01F0D8FC002856D1216809F0FE003D
:101080000861FFF7F7FE2168054648694969C0F322
:101090004000C1F380214FF0A00A0FE0FFF7EAFE05
:1010A000411B0498814200D808B984F83DA021680A
:1010B00048694969C0F34000C1F3802194F83D209C
:1010C000A02A02D008B90029E8D084F83D70206831
:1010D0004169C943890717D4016841F4007101606F
:1010E000206841698069192301221649204600952C
:1010F00001F099FCC0B984F83D7084F83C60002090
:1011000005B0BDE8F08F1BE0016841F4007101609B
:1011100021686FF480604861192301220949204643
:10112000009501F080FC08B10120E9E7039808F17F
:101130000108804593D384F83D7084F83C60F3E760
:101140000220DDE7020010000000FFFF2DE9F84F4C
:101150001F4690468A460446DDF82890FFF78AFE2F
:10116000054694F83D00202879D1192301227749BA
:101170002046009501F057FC0028F5D194F83C007A
:1011800001286CD0012084F83C0020680168C90760
:1011900003D1016841F0010101602068016821F478
:1011A00000610160222084F83D00102084F83E0098
:1011B00000262664C4F824806785608D20856448F5
:1011C000E0622B464A465146204601F0E4FA0028E8
:1011D0007ED1208D5F4F68B1012814D0022820688D
:1011E00001681ED041F48061016020684169806916
:1011F00000909DE02068416981690091016841F497
:101200000071016094E02068016821F48061016050
:1012100072B62068416981690091016841F40071EA
:101220000AE041F40061016072B620684169816999
:101230000091016821F48061016062B678E00328C2
:1012400050D801280CD002284B464FF000023946F6
:10125000204600950FD001F0E6FBC8BB10E073E01C
:101260002A464946204601F05DFC88BB206800699B
:10127000616A087053E001F0D6FB48BB72B61AE011
:101280002068016821F48061016072B620680069FD
:10129000616A0870606A401C6062208D401E208573
:1012A000608D401E60854B460022394620460095E1
:1012B00001F0B9FB60B92068016841F40071016078
:1012C00020680069616A0870606A401C606200E022
:1012D0000EE0218D491E2185618D491E618562B612
:1012E00021681AE02A464946204601F01BFC10B14D
:1012F0000120BDE8F88F20680069616A0870606AA3
:10130000401C6062218D491E2185618D491E6185C9
:1013100021684A69D24352070AD409690170606A98
:10132000401C6062208D401E2085608D401E6085BF
:10133000208D002883D1202084F83D0084F83E6071
:1013400084F83C600020D4E70220D2E702001000BD
:101350000000FFFF040001002DE9F84F1F469046F2
:101360008A460446DDF82890FFF784FD054694F888
:101370003D0020287FD119230122404920460095B5
:1013800001F051FB002876D194F83C00012872D07E
:10139000012084F83C0020680168C90703D1016876
:1013A00041F0010101602068016821F400610160E1
:1013B000212084F83D00102084F83E000026266499
:1013C000C4F824806785608D20852D48E0622B4617
:1013D0004A465146204601F049FA90B920684169D1
:1013E0008069009036E02A464946204601F0CDFB50
:1013F00050B1206C042804D12068016841F40071C8
:1014000001600120BDE8F88F606A216800780861FA
:10141000606A401C6062618D491E6185218D491E94
:1014200089B2218522685369DB435B070BD451B134
:1014300000781061606A401C6062608D401E6085AB
:10144000208D401E20852A464946204601F0C5FAD7
:101450000028CED1208D0028C5D154F83D0B01685D
:1014600041F400710160202004F81E09E6776677D8
:101470000020C7E7FFE70220C4E7000002001000D9
:101480000000FFFF2DE9FF4F83B09A46DDE9119779
:1014900093460446DDF84080FFF7ECFC054694F8DF
:1014A0003D0020286FD1192301227B492046009559
:1014B00001F0B9FA0028F5D194F83C00012862D077
:1014C000012084F83C0020680168C90703D1016845
:1014D00041F0010101602168086820F400600860A3
:1014E000222084F83D00402084F83E000026266437
:1014F000C4F82480A4F82A90608D20856748E062B3
:10150000CDE9007553465A462046049901F0F2F998
:1015100000287DD1208DDFF8888168B1012814D0A2
:10152000022820D02068016841F4806101602068B1
:10153000416980690090A0E020684169816900915B
:10154000016841F40071016097E02068016821F4AE
:101550008061016072B6206841698169009101680B
:1015600041F400710CE02168086840F400600860F4
:1015700072B62068416981690091016821F4806137
:10158000016062B679E084E003284FD801280BD0CF
:1015900002283B464FF000024146204600950ED0FF
:1015A00001F041FAA0BB0FE02A463946204601F07F
:1015B000B9FA68BB20680069616A087054E001F0FC
:1015C00032FA28BB72B61AE02068016821F4806103
:1015D000016072B620680069616A0870606A401C28
:1015E0006062208D401E2085608D401E60853B46D8
:1015F000002241462046009501F015FA40B92068C6
:10160000016841F40071016020680069616A00E0CE
:1016100012E00870606A401C6062218D491E2185BD
:10162000618D491E618562B621681BE02A463946F4
:10163000204601F077FA18B1012007B0BDE8F08F1D
:1016400020680069616A0870606A401C6062218DD0
:10165000491E2185618D491E618521684A69D243F1
:1016600052070AD409690170606A401C6062208DCB
:10167000401E2085608D401E6085208D002883D10E
:10168000202084F83D0084F83E6084F83C6000200F
:10169000D3E70220D1E70000020010000000FFFFA6
:1016A0000400010010B586B0002100910191029163
:1016B000039100680F4988421AD10F4CA06940F08D
:1016C0000800A061A069694600F008000490C020ED
:1016D000009012200190032003900848FFF7D4FAED
:1016E000E06940F40010E061E06900F4001004904B
:1016F00006B010BD0054004000100240000C014034
:10170000024881680278114481607047D801002046
:10171000074810B5016841F010010160032000F096
:1017200075F8002000F006F800F024F8002010BD45
:101730000020024070B50D4D04464FF47A712878B0
:10174000B1FBF0F00A490968B1FBF0F000F064FB6E
:1017500048B9102C07D200222146501E00F036F85E
:1017600000206C6070BD012070BD0000D801002019
:10177000E40100200C4808B5816941F00101816154
:10178000816901F001010091C16941F08051C1619D
:10179000C06900F0805000900448416821F0E06189
:1017A00041F00071416008BD00100240000001409E
:1017B000002809DB00F01F02012191404009800050
:1017C00000F1E020C0F8001170470000F0B40E4BAB
:1017D0001B680C46C3F30223C3F10705042D00D98F
:1017E0000425191D072901D2002300E0DB1E012674
:1017F00006FA05F1491E214099409E40761E16408A
:101800003143F0BC02F061B90CED00E0064900F094
:10181000070208684FF6FF03184040EA0220034A17
:1018200010430860704700000CED00E00000FA056E
:101830002DE9F0470F46050061D0434E306800F0B7
:101840000700B84209D2306820F007003843306002
:10185000306800F00700B84251D128683B4C81073E
:1018600012D5400703D5606840F4E06060602878D6
:10187000000703D5606840F4605060606068A96844
:1018800020F0F000084360602878C00728D068681E
:10189000012810D02168022810D0890700292EDAEB
:1018A000616821F0030101436160FFF7E3FA8046BC
:1018B00041F288390DE021688903EFE78901EDE7FE
:1018C000FFF7D8FAA0EB0801494502D90320BDE88B
:1018D000F0876068696800F00C00B0EB810FEFD111
:1018E000306800F00700B8420BD9306820F00700DC
:1018F00038433060306800F00700B84201D0012062
:10190000E5E72878400705D56068E96820F4E060DD
:10191000084360602878000706D56068296920F4CC
:10192000605040EAC100606000F038F86168084A21
:10193000C1F30311515CC8400649086006480068BD
:10194000FFF7F8FE0020C2E700200240001002402E
:101950001C660008E4010020DC0100200448054961
:1019600000684968044AC1F30221515CC8407047CD
:10197000E4010020001002402C66000804480549DC
:1019800000684968044AC1F3C221515CC8407047ED
:10199000E4010020001002402C66000812A185B06E
:1019A0000FC98DE80F0014A0144A00680490516814
:1019B000134801F00C03042B10D0082B0ED1C1F3F7
:1019C0008343C9031DF803000AD5516804AAC1F373
:1019D0004041515C0A4A5043B0FBF1F005B07047FA
:1019E00008494843FAE7000002030405060708090E
:1019F0000A0B0C0D0E0F1010010200000010024027
:101A000000127A0000093D002DE9F84F040070D063
:101A10002078C04DC00749D06868C0F38100012814
:101A200007D06868C0F38100022809D16868C00344
:101A300006D52868800339D560680028E7D035E0EE
:101A40006068B0F5803F0BD010B1B0F5A02F11D079
:101A5000286820F480302860286820F4802002E084
:101A6000286840F480302860606890B1FFF702FA7F
:101A700006460AE0286840F480202860F0E700BFAE
:101A8000FFF7F8F9801B642873D828688003F7D51E
:101A90000CE0FFF7EFF9064605E000BFFFF7EAF9B3
:101AA000801B6428F0D828688003F7D420789A4EE9
:101AB00080074FF001094FF0000839D5686810F031
:101AC0000C0F07D06868C0F38100022809D168684C
:101AD000C00306D42868800714D52069012808D1DE
:101AE00010E02069B0B1C6F80090FFF7C3F90746CF
:101AF00005E00AE1FFF7BEF9C01B0228C4D8286838
:101B00008007F7D52868616920F0F80040EAC10035
:101B100028600DE0C6F80080FFF7ACF9074604E046
:101B2000FFF7A8F9C01B022823D828688007F7D43C
:101B3000207800072CD57948A169D9B1C0F8009068
:101B4000FFF798F9074604E0FFF794F9C01B022855
:101B50000FD8686A8007F7D571484FF4FA510068CA
:101B6000B0FBF1F0009000BF0098411E0091FAD246
:101B70000EE080E0C0F80080FFF77CF9074604E043
:101B8000FFF778F9C01B022875D8686A8007F7D478
:101B90002078400760D5E8690027C00008D4E869CC
:101BA00040F08050E861E869012700F08050009023
:101BB0005C480168C90513D40168834641F480710B
:101BC0000160FFF757F9824606E000BFFFF752F9C0
:101BD000A0EB0A0064284ED8DBF80000C005F5D55C
:101BE000E06801280AD008B1052813D0286A20F03F
:101BF00001002862286A20F0040002E0286A40F010
:101C000001002862E06841F2883B98B1FFF732F9A1
:101C100082460BE0286A40F004002862EEE700BF2D
:101C2000FFF728F9A0EB0A0159455AD8286A80071E
:101C3000F6D50CE0FFF71EF9824605E0FFF71AF92A
:101C4000A0EB0A0159454CD8286A8007F6D41FB189
:101C5000E86920F08050E861E06988B36968C1F301
:101C60008101022944D00228C6F8608004D0FFF721
:101C700001F9044638E034E0FFF7FCF8074604E0D9
:101C8000FFF7F8F8C01B02282BD828688001F7D48A
:101C9000206AB0F5803F05D16868A16820F4003063
:101CA00008436860D4E908010843696821F47411A5
:101CB00008436860C6F86090FFF7DCF8044606E069
:101CC00025E000BFFFF7D6F8001B022809D82868D6
:101CD0008001F7D51BE000BFFFF7CCF8001B0228FE
:101CE00002D90320BDE8F88F28688001F4D40EE003
:101CF0000128F7D06868226A00F48031914204D14B
:101D0000616A00F47010884201D00120EAE70020E7
:101D1000E8E7000000100240000042428004424216
:101D2000E40100200070004070B5040005D00025DB
:101D3000A56294F8510010B106E0012070BD84F84E
:101D40005050204600F02EF8022084F85100206800
:101D5000016821F040010160D4E901010843D4E9A0
:101D600003121143084361690843218B01F4007198
:101D70000843E1690843216A0843A16A08432168CE
:101D80000860A069042101EA1040216848602068C9
:101D9000C16921F40061C1616565012084F85100C9
:101DA000002070BD30B585B00024009401940294E9
:101DB000039400681549884225D11548C16941F44A
:101DC0008041C161C16901F480410491816941F0A0
:101DD0000801816180690F4D00F0080004904FF404
:101DE000204000900220019003200390694628467D
:101DF000FEF74AFF4FF48040CDE9000469462846CB
:101E00000294FEF741FF05B030BD000000380040ED
:101E100000100240000C014010B5401EB0F1807F60
:101E200001D3012010BD4FF0E02460610F21601745
:101E300001F04BFE0020A06107202061002010BDB2
:101E40007047704770B590F83C20012A19D00124E2
:101E500000F83C4F0222427050F83C3C5A689D68A2
:101E600022F070060A684968324325F0800529434C
:101E70005A6050F83C2C9160447000210170084673
:101E800070BD022070BD10B5040003D094F83D0071
:101E900010B107E0012010BD002084F83C0020466E
:101EA00000F00CF8022084F83D00211D206801F0AC
:101EB000E1FB012084F83D00002010BD00B585B095
:101EC00000210091019102910391184A016818487C
:101ED00091421FD1816941F400618161816901F4FE
:101EE00000610491816941F0040181618069694662
:101EF00000F004000490901500900E48FEF7C4FE18
:101F0000002211461B20FFF761FC1B20FFF750FC4D
:101F100005B000BD084A9142FAD1C16941F0020101
:101F2000C161C06900F002000490F1E7002C01409B
:101F300000100240000801400004004070B5044653
:101F400090F83C00012817D0012584F83C5002206D
:101F500084F83D002068826822F0770222F47F42F4
:101F600082600868502830D00DDC20284DD005DC78
:101F700098B310283BD148E0022070BD302844D0EF
:101F8000402834D139E0602828D0702806D0B0F538
:101F9000805F2CD0B0F5005F29D10AE0CB68D1E991
:101FA0000121206801F0A9FB2068816841F07701D8
:101FB00009E0CB68D1E90121206801F09EFB20688F
:101FC000816841F48041816011E0CA6849682068F5
:101FD00001F048FC5021206807E016E0CA68496813
:101FE000206801F07DFC6021206801F090FB84F8FE
:101FF0003D50002084F83C0070BDCA6849682068E4
:1020000001F030FC40212068EFE7226801461046CD
:10201000EBE770472DE9F041044690F83C000D468F
:1020200001283BD0012684F83C60022084F83D0062
:102030009AB3042A44D02068082A53D0D5E900274F
:10204000E968036A23F480530362D0F81CC0036A72
:102050002CF4407C4CEA07274FF6FF7C27F47047AE
:102060000CEA01313943770323F4005307EA0232C3
:102070001A43C16102622068C16921F44061C161F3
:102080002068C169AA6841EA0221C16184F83D6003
:10209000002084F83C00BDE8F08101E00220FAE76E
:1020A000D5E90012EB68206801F0EEFB2068816939
:1020B00021F00C01816120688169AA6811430FE059
:1020C000D5E90012EB68206801F01CFC20688169EA
:1020D00021F44061816120688169AA6841EA022196
:1020E0008161D3E7D5E9002C2F7B016A21F480714F
:1020F0000162C169036A21F0030141EA0C0121F088
:10210000F00C39074FF400774CEA116123F40073A7
:1021100007EA02221A43C16102622068C16921F004
:102120000C01C1612068C169AA681143ADE710B50F
:10213000040003D094F83D0010B107E0012010BD69
:10214000002084F83C00204600F00CF8022084F8BF
:102150003D00211D206801F08DFA012084F83D002A
:10216000002010BD704710B50268044631B1042943
:1021700008D008291AD00C2908D11BE0D06840F0FB
:10218000020002E0D06840F00400D0600122206824
:1021900001F0A6FA2068816801F00701062903D042
:1021A000016841F001010160002010BDD06840F0DD
:1021B0000800EAE7D06840F01000E6E770B5044692
:1021C000006801694FF00005C943890715D4C1684B
:1021D000C943890711D4E91E0161012020772068D5
:1021E00080698007204602D0FFF713FF04E000F06B
:1021F000D1F8204600F08AF9257720680169C943A3
:10220000490717D4C168C943490713D46FF00401C3
:102210000161022020772068806910F4407F204609
:1022200002D0FFF7F6FE04E000F0B4F8204600F01C
:102230006DF9257720680169C943090716D4C1687B
:10224000C943090712D46FF0080101610420207707
:102250002068C0698007204602D0FFF7DAFE04E05C
:1022600000F098F8204600F051F9257720680169C0
:10227000C943C90617D4C168C943C90613D46FF04E
:1022800010010161082020772068C06910F4407FA8
:10229000204602D0FFF7BDFE04E000F07BF82046A8
:1022A00000F034F9257720680169C943C90708D1CE
:1022B000C168C943C90704D1891E0161204600F0E5
:1022C00043F920680169C943090609D4C168C943B3
:1022D000090605D46FF0800101612046FFF7B0FDCB
:1022E00020680169C943490609D4C168C943490640
:1022F00005D46FF040010161204600F02BF9206801
:102300000169C94389060BD4C168C943890607D44A
:102310006FF0200101612046BDE87040FFF791BDDC
:1023200070BD000010B586B00021009101910291AE
:10233000039100681349884221D11348816941F013
:1023400004018161816901F004010491816941F016
:10235000080181618069022400F008000490C02017
:10236000CDE90004694609480394FEF78DFC03207B
:10237000CDE90004694606480394FEF785FC06B0E3
:1023800010BD0000000400400010024000080140A1
:10239000000C0140704770B50D46040003D094F85E
:1023A0003D0010B107E0012070BD002084F83C0022
:1023B000204600F015F8022084F83D00211D206819
:1023C00001F058F92068016821F0080101602068D7
:1023D000016829430160012084F83D00002070BDA0
:1023E00008B50068B0F1804F08D10548C16941F0D7
:1023F0000101C161C06900F00100009008BD00004A
:102400000010024070B5044690F83C000D460128CB
:102410000DD0012684F83C60022084F83D0042B1D2
:10242000042A18D0082A2AD00C2A4DD139E00220DB
:1024300070BD206801F074F92068816941F00801DD
:1024400081612068816921F00401816120688169CE
:102450002A69114311E0206801F08AF92068816936
:1024600041F4006181612068816921F480618161AA
:10247000206881692A6941EA0221816124E020689B
:1024800001F0A2F92068C16941F00801C16120682A
:10249000C16921F00401C1612068C1692A69114341
:1024A00011E0206801F0BCF92068C16941F40061C5
:1024B000C1612068C16921F48061C1612068C1697E
:1024C0002A6941EA0221C16184F83D60002084F854
:1024D0003C0070BD10B5040003D094F83D0010B16D
:1024E00007E0012010BD002084F83C00204600F0E9
:1024F0000CF8022084F83D00211D206801F0BAF894
:10250000012084F83D00002010BD70477047000096
:1025100010B504460068012201F0E2F8094920687C
:10252000884203D1416C41F40041416420688168D4
:1025300001F00701062903D0016841F001010160A3
:10254000002010BD002C014001490120C8707047D7
:1025500018000020704770B5040004D094F83900CA
:10256000002510B106E0012070BD84F838502046E7
:1025700000F022F8242084F839002068C16821F492
:102580000051C160204601F0D9F92068016921F4A9
:10259000904101612068416921F02A014161206870
:1025A000C16841F40051C160E563202084F839001E
:1025B00084F83A00002070BDF0B585B00024009486
:1025C0000194029403940368324F0220324903229B
:1025D000324D4602BB421AD18B6943F480438B6172
:1025E0008B6903F4804304938B6943F004038B618C
:1025F0008969039201F0040104910102CDE9001000
:1026000069462846FEF740FBCDE900641CE0244FF4
:10261000BB4220D1CB6943F40033CB61CB6903F4D7
:10262000003304938B6943F004038B61896903923F
:1026300001F0040104910421CDE900106946284607
:10264000FEF722FB082022E0694628460294FEF7A6
:102650001BFB05B0F0BD134DAB42FAD1CB6943F47F
:102660008023CB61CB6903F4802304938B6943F00F
:1026700008038B6189690C4D01F00801CDE9032144
:10268000CDE9006069462846FEF7FEFAE814CDE978
:102690000004D9E700380140001002400008014062
:1026A0000044004000480040000C01402DE9F84380
:1026B000044690F839001F4616460D46202850D192
:1026C000A5B19EB194F8380001284AD0012084F8C1
:1026D00038004FF00008C4F83C80212084F839000D
:1026E000FEF7C8FBA6848146E68426E00120BDE80B
:1026F000F883E08C401EE084A0684B46B0F5805F14
:102700004FF000024FF080012046009703D001F007
:1027100071F9E8B90DE001F06DF9C8B928882168B0
:10272000C0F308004860206908B16D1C05E0AD1CCD
:1027300003E0216815F8010B4860E08C0028D8D12F
:102740004B46002240212046009701F053F908B182
:102750000320CCE7202084F8390084F8388000205A
:10276000C5E70220C3E7FEE701684A69D243520584
:102770000FD46FF480624A61002140F8301F20229C
:1027800042738173026942F0040202610173012005
:102790007047002070472DE9F84F0446C06A1E4676
:1027A00092460D4621680A6842F480620A60082851
:1027B00007D0012805D010F5803F02D0206B1128EA
:1027C00004D12068016841F4807101604FF0011864
:1027D0005346002241462046009600F024F9F0BB03
:1027E000206908F10109B0F5804F0FD0062021685B
:1027F00000EAD51747F0F00008613346524608F169
:102800000701204600F043F948BB03E0E8B240F07E
:1028100001001BE02168E8B2086133465246494690
:10282000204600F034F9D0B92068416981690091EF
:10283000016841F480710160534600224146204600
:10284000009600F0F0F850B947F0F10021680861F7
:10285000334652464946204600F019F900E001E0AF
:10286000002800D00120BDE8F88F0000F8B504462C
:10287000C06A1E460D461746082807D0012805D015
:1028800010F5803F02D0206B122804D12068016827
:1028900041F480710160134600224FF0011120467F
:1028A000009600F0C0F808BB2069B0F5804F0ED04C
:1028B0000620216800EAD51040F0F0000861334698
:1028C0003A460B49204600F0E2F878B902E005F0FC
:1028D000FE0000E0E8B221680861054933463A4647
:1028E000891F204600F0D3F8002800D00120F8BD51
:1028F000080001002DE9F84F0446006889460B9D49
:1029000001689846174641F48061016020680168BB
:1029100041F48071016000954FF0011A0022514688
:1029200020460A9B00F07FF8002853D1216809F067
:10293000FE0008610AF1010B2B46594620460A9A0F
:1029400000F0A5F8F0BB20684169806900902A4634
:1029500020460A9900F019F940B1206C042839D1B9
:102960002068016841F40071016033E0FEB2B8F103
:10297000010F09D02168380A08612A4620460A99C1
:1029800000F003F90028E8D1206806612A462046B5
:102990000A9900F0FAF80028DFD12068016841F4B4
:1029A0008071016000950022514620460A9B00F08C
:1029B0003AF838B9216809F0FF0040F001000861D9
:1029C0002B4600E006E0594620460A9A00F05FF8E0
:1029D000002800D00120BDE8F88F70B516460D46DE
:1029E00004460DE02046FFF7BFFE08B1012070BD90
:1029F000681C05D0FEF73EFA801BA84207D835B107
:102A000020684069C0434007ECD4002070BD00201E
:102A100044F8300F20216173A073216941F0200137
:102A200021612073E2E72DE9F0471E4690460D46EE
:102A30000446C1F30747DDF8209008E0701C06D07B
:102A4000FEF718FAA0EB0900B0420FD876B1206863
:102A5000012F18D0806925EA00000004000C14D072
:102A600000214145EAD00020BDE8F087002044F86D
:102A7000300F20216173A073216941F02001216191
:102A800020730120F0E74069E5E70121E9E72DE93E
:102A9000F0479A4691460E46044600254FF020081E
:102AA000C1F3074725E020684069C043400514D4BE
:102AB0002068016841F40071016021686FF4806052
:102AC0004861256384F83D8084F83E50206C40F0D6
:102AD0000400206484F83C501FE0B9F1FF3F08D0A7
:102AE000FEF7C8F9A0EB0A0149450CD8B9F1000F6F
:102AF00009D02068012F13D0806926EA0000000465
:102B0000000C0BD0CFE744F8305F84F80D80A5733C
:102B1000206940F02000206125730120BDE8F08786
:102B20004069EAE72DE9F041002590460E4604464B
:102B3000202717E04069C043C0060CD454F8301B6E
:102B40006FF01000486144F810596777A577206A44
:102B50002062257717E0FEF78DF9A0EB0800B04260
:102B600008D83EB120684169C9434906E2D4002033
:102B7000BDE8F08144F8305F6773A573206940F0C9
:102B80002000206125730120F2E770B516460D463E
:102B900004460DE02046FFF7E7FD08B1012070BDB7
:102BA000681C05D0FEF766F9801BA84207D835B12E
:102BB00020684069C0430006ECD4002070BD0020AE
:102BC00044F8300F20216173A073216941F0200186
:102BD00021612073E2E700002DE9F04186B0002476
:102BE00031480094019402940394816941F01001EA
:102BF0008161816901F010010491816941F0200136
:102C00008161816901F020010491816941F0040131
:102C10008161816901F004010491816941F0080139
:102C200081618069214F00F008004FF40055049045
:102C3000002229463846FEF717F9DFF87480002293
:102C400030214046FEF710F9009502260125039633
:102C5000CDE9015469463846FEF716F84FF4847002
:102C600000901448CDE9010469464046FEF70CF88F
:102C70003020CDE90005CDE9024669464046FEF721
:102C800003F8002211460920FEF7A0FD0920FEF7F7
:102C90008FFD002211461720FEF798FD1720FEF742
:102CA00087FD06B0BDE8F081001002400010014031
:102CB000000C0140000011100E4810B50C490160D5
:102CC0004FF48271416000218160C1604FF4007255
:102CD0000161C0E905120822C0E907214162816251
:102CE0000A21C162FFF720F8002800D0FEE710BDDE
:102CF000003800404402002010B58AB0002421486A
:102D000004940594069407940894099400940194FB
:102D100002941B49039401604721C0E901144FF656
:102D2000FF71C0E9031444618461FFF7ACF800B19E
:102D3000FEE74FF48050049004A91248FFF7FEF814
:102D400000B1FEE70F48FFF7F2F900B1FEE7089483
:102D500008A90C480994FFF775F800B1FEE70120B7
:102D6000CDE900400F20CDE9024000226946054828
:102D7000FFF750F9002800D0FEE70AB010BD0000B0
:102D8000002C01409C02002010B58EB00024079456
:102D9000089409940A940B941C2168460C94FDF73E
:102DA00009FA2648244901600321C0E9011448F6C4
:102DB0000451C0E903148461FFF765F800B1FEE730
:102DC0004FF48050079007A91C48FFF7B7F800B1EF
:102DD000FEE71A48FFF77EFB00B1FEE70B940BA954
:102DE00016480C94FFF72EF800B1FEE76020CDE9FD
:102DF000000402940022694610480494FFF702FB85
:102E000000B1FEE7042269460C48FFF7FBFA00B167
:102E1000FEE7082269460948FFF7F4FA00B1FEE729
:102E20000C2269460548FFF7EDFA00B1FEE70348BA
:102E3000FFF778FA0EB010BD000400401C0300201C
:102E40002DE9FF4FFF4C97B081469A4619992069AA
:102E5000FDF713FA06461899E068FDF70EFA0546E5
:102E6000A068494680F00040FDF707FA2946FDF7C3
:102E7000FEF93146FDF7FBF94FF0FF373946FDF714
:102E80006CFA804618992069FDF7F7F906461999FA
:102E9000E068FDF7F2F9616805464846FDF7EDF98F
:102EA0002946FDF792F93146FDF7E1F93946FDF77C
:102EB00054FA216906464846FDF7DFF98346199919
:102EC000A068FDF7DAF9054618996068FDF7D5F9AD
:102ED0002946FDF7CCF95946FDF777F93946FDF754
:102EE0003CFAE16805464846FDF7C7F9834618995C
:102EF000A068FDF7C2F9814619996068FDF7BDF930
:102F00004946FDF762F95946FDF7B1F93946FDF733
:102F100024FA07461AF0FF4F07D1249810F0FF4F0C
:102F200003D1259810F0FF4F7ED025990846FDF774
:102F3000A4F9249983460846FDF79FF98146514636
:102F40000846FDF79AF94946FDF73FF95946FDF75E
:102F50003CF901F0A9FF814601465046FDF78DF985
:102F60001A9049462498FDF788F9249049462598F7
:102F7000FDF783F9834601216068FDF7EEF91490AF
:102F80000121A068FDF7E9F912900121E068FDF741
:102F9000E4F9139001212069FDF7DFF91590022172
:102FA0006068FDF7DAF902900221A068FDF7D5F913
:102FB00005900221E068FDF7D0F904900321A06894
:102FC000FDF7CBF903900321E068FDF7C6F90C90FB
:102FD00061686068FDF751F91090A168A068FDF77D
:102FE0004CF90190E168E068FDF747F9009021692C
:102FF0002069FDF742F9099024991298FDF73DF9EF
:103000000D90DDE90110FDF738F982461A99139801
:10301000FDF733F9814600990298FDF72EF94946EC
:10302000FDF7D3F8514600E0EEE0FDF7CEF80D993C
:10303000FDF71DF9029059460598FDF71EF90A9013
:1030400000990398FDF719F90D9001990398FDF780
:1030500014F9824624991498FDF70FF90E90022175
:103060001098FDF77AF91690A168FDF706F98146E8
:103070001A991598FDF701F9119009990598FDF72E
:10308000FCF81199FDF7F3F84946FDF79EF80E9903
:10309000FDF7EDF80599FDF7EAF85146FDF795F8CB
:1030A0000D99FDF792F80A99FDF78FF88246594677
:1030B0000498FDF7E2F8814600990C98FDF7DDF8D9
:1030C0000A9001990C98FDF7D8F80C90249915985E
:1030D000FDF7D3F80E9009990498FDF7CEF80F90FC
:1030E0001A991498FDF7C9F883461698E168FDF718
:1030F000C4F85946FDF769F80F99FDF766F80E997F
:10310000FDF7B5F80499FDF7B2F80C99FDF75DF8F5
:103110000A99FDF75AF84946FDF757F8834624996E
:103120001398FDF7AAF8059002210098FDF715F90C
:103130002169FDF7A2F881461A991298FDF79DF8CA
:10314000009002210198FDF708F92169FDF795F833
:103150000099FDF78CF84946FDF737F80599FDF71A
:1031600086F881460146FDF788F8594605900846DD
:10317000FDF783F8514600900846FDF77EF8029966
:103180000A900846FDF779F80A99FDF71EF80099AC
:10319000FDF71BF80599FDF718F801F085FE0146CB
:1031A00000900298FDF769F8029050460099FDF7EB
:1031B00064F8824658460099FDF75FF88346484612
:1031C0000099FDF75AF8814602992068FDF755F8F5
:1031D0004146FDF74FF8804651462068FDF74DF80F
:1031E0003146FDF747F8064659462068FDF745F891
:1031F0002946FDF73FF8054649462068FDF73DF8AA
:103200003946FDF737F807460F480068FDF759FAC9
:103210000E49FDF764F881464146FDF72EF86168D6
:10322000FCF7D3FF606048463146FDF726F8A168F9
:10323000FCF7CBFFA06048462946FDF71EF8E16881
:1032400006E0000000000020640000200024744913
:10325000FCF7BBFFE06048463946FDF70EF82169F0
:10326000FCF7B3FF206121692069FDF706F8E168EA
:103270000746E068FDF701F8A1680646A068FCF77C
:10328000FCFF616805466068FCF7F7FF2946FCF71C
:103290009CFF3146FCF799FF3946FCF796FF01F099
:1032A00003FE054601466068FCF7E7FF60602946BB
:1032B000A068FCF7E2FFA0602946E068FCF7DDFFAC
:1032C000E06029462069FCF7D8FF20611BB0BDE80B
:1032D000F08FFEE7704770472DE9F04F87B09B46AF
:1032E00004460B46DDF840A04069A0610025114668
:1032F0001846FCF7BCFF6061D4E90801C4E90A0183
:1033000002F0A4F80021C4E90801D4E90A23801AD4
:1033100061EB0301FDF7F5F900223A4BFDF742F9A5
:10332000FDF72DFAC4E90C01E6684FF07E573146EF
:103330003846FCF79CFFFDF73AFA80468946394645
:103340003046FCF742FFFDF732FA06460F46584674
:10335000FDF72DFA844600222B481346CDE90020C4
:1033600060460DF1080C8CE8C00302F003F80E462D
:103370006169074688462068FCF77FFFFDF717FA6A
:103380003A463346FDF79CF8FDF754FA06462069A5
:1033900010F1814F18D04146FDF772FA14D220691E
:1033A000616980F00040FDF761FA0DD2D4E90C01AB
:1033B000FDF78CF96169FCF760FF6168FCF75DFF60
:1033C0002946FCF702FF0546BAF1000F00D00025A0
:1033D000D4E90C01FDF77AF90746D4E90501FCF7B9
:1033E00046FF3946FCF77BFFA168FCF746FF044621
:1033F00029463046FCF7E9FE07B02146BDE8F04F0C
:10340000FCF7E3BE80842E41008066402DE9FF5F1B
:103410004C4C21682068FCF730FF4B4D0290296826
:103420002868FCF72AFF494E824631683068FCF76D
:1034300024FF474F019039683868FCF71EFF009061
:103440008AF000400199FCF712FF0099FCF7BDFEDD
:103450000299FCF7BAFEFDF7AAF989462168804671
:103460002868FCF70AFF396883463068FCF705FFD7
:103470005946FCF7AAFEFDF79AF90122FDF701F97A
:1034800042464B4601F066FAFDF7D4F921688346BF
:103490003068FCF7F2FE396880462868FCF7EDFEDC
:1034A0004146FCF7E4FEFDF782F900224FF040436D
:1034B000FDF706F801F006F8FDF7BCF90390504659
:1034C0000199FCF7D4FE0099FCF7D1FE0299FCF7B4
:1034D0007CFEFDF76CF98946216880463868FCF768
:1034E000CCFE316804462868FCF7C7FE2146FCF78D
:1034F0006CFEFDF75CF90122FDF7C3F842464B462E
:1035000001F028FAFDF796F9DFF8488007464146B2
:103510005846FCF7B2FE104C06464146A06303989D
:10352000FCF7ABFE0546E06341463846FCF7A5FED6
:1035300086F00041E162206480F00040C4E90C5054
:10354000BDE8FF9F04000020080000200C000020C0
:1035500010000020E12E6542980000207047000016
:1035600002480168491C0160FEF7CAB87C000020CF
:1035700030B58FB028216846FCF71CFE14210AA83C
:10358000FCF718FE01210804CDE900100024029484
:1035900002250491CDE907504FF4E01009906846E8
:1035A000FEF732FA00B1FEE70F20CDE90A054FF42D
:1035B0008060CDE90C4002210AA80E94FEF738F98C
:1035C000002800D0FEE70FB030BD00000D480168B4
:1035D00041F00101016041680B4A114041600168FE
:1035E0000A4A11400160016821F4802101604168AC
:1035F00021F4FE0141604FF41F0181600449C003C2
:1036000008607047001002400000FFF8FFFFF6FE60
:1036100008ED00E070B511480068416A104C0025C3
:10362000216045620D48FEF7C9FD01F00FFF0D490D
:103630000860226840F6B8310B488A4203D9056019
:103640000A48057070BD01680829FBD2084B43F891
:10365000212001F10101016070BD00009C020020E9
:10366000D4010020DC000020D00100201B0000203D
:103670008C040020F0B50268164B174C174D4FF024
:103680008047984205D0B84203D0A04201D0A8425A
:1036900003D122F070064A683243984205D0B842FE
:1036A00003D0A04201D0A84203D122F44074CA68DA
:1036B00022434C6922F08002224302608A68C2627F
:1036C0000A688262984201D109690163012141615E
:1036D000F0BD0000002C0140000400400008004044
:1036E00010B501F01F030121046A99408C43046264
:1036F000016A9A401143016210BD10B5846842EA24
:10370000032224F47F440A432243826010BD82686E
:1037100022F070020A4342F0070181607047000006
:1037200030B5026A22F001020262026A43688469CB
:1037300024F073050C682C4322F002058A682A43A2
:103740000A4DA8420BD122F00805CA6823F4407341
:103750002A434D6922F004021D438B692B434360C9
:10376000846149684163026230BD0000002C014061
:1037700030B5026A22F010020262026A436884696C
:103780000D6824F4E64444EA05248D6822F0200202
:1037900042EA05120B4DA8420ED1CD6822F08002FC
:1037A00042EA05124D6923F4406343EA85038D69BB
:1037B00022F0400243EA85034360846149688163E3
:1037C000026230BD002C014030B5026A22F48072E2
:1037D0000262036A4268C46923F4007324F073052B
:1037E0000C682C438D6843EA05230C4DA8420ED18A
:1037F000CD6823F4006343EA05234D6922F4405267
:1038000042EA05128D6923F4806342EA05124260A0
:10381000C4614968C163036230BD0000002C0140EF
:1038200030B5026A22F480520262046A4268C369B7
:103830000D6823F4E64343EA05238D6824F400541D
:1038400044EA0534064DA84204D14D6922F4804271
:1038500042EA85124260C36149680164046230BD76
:10386000002C014010B5036A046A24F001040462CC
:10387000846924F0F00444EA021423F00A020A43A3
:103880008461026210BD000070B5046A24F0010476
:1038900004628469056A0F4EB04208D0B0F1804FCF
:1038A00005D00D4EB04202D00C4EB04203D124F0F0
:1038B0000304144301E044F001041A0724F0F00467
:1038C00044EA126225F00A0301F00A0119438261F9
:1038D000016270BD002C014000040040000800405F
:1038E00010B5036A23F0100303628369046A23F4AA
:1038F000704343EA023224F0A00343EA01118261DB
:10390000016210BD30B5046A24F0100404628469B9
:10391000056A24F4407444EA022222F470444FF60B
:10392000FF7202EA03322243A02425F0A00304EA36
:10393000011119438261016230BD00002DE9F0419F
:10394000044600680169E26821F4405111430161B5
:103950002169A0680843616908432168CA6841F287
:103960000C639A430243CA6020684169A26921F44A
:103970004071114341611E49206864253226884206
:1039800002D1FDF7FBFF01E0FDF7E8FF00EBC0010E
:1039900001EB001160686FF018078000B1FBF0F2D6
:1039A000B2FBF5F2B1FBF0F37A4303EB8202B1FB19
:1039B000F0F306EB0212B2FBF5F2B3FBF5F302F003
:1039C000F00202EB0312B1FBF0F3B1FBF0F0B0FB3D
:1039D000F5F0784303EB800006EB0010B0FBF5F048
:1039E000216800F00F0010448860BDE8F0810000FD
:1039F000003801402DE9F041984617460E4604462E
:103A0000069D1DE0681C1BD02DB1FDF733FAA0EB1D
:103A10000800A84214D92068C16821F4D071C1609F
:103A20002068416921F001014161202084F83900BA
:103A300084F83A00002084F838000320BDE8F081C3
:103A40002068006836EA000004D00020B842D9D0CF
:103A50000020F3E70120F9E7FEE700000FB4054B73
:103A600010B503A9044A029800F094F910BC5DF85F
:103A700014FB0000CD4D0008E8010020490050EA89
:103A8000C12018BF04204A0D18BF40F0010040F2C9
:103A9000FF72B2EB515F08BF40F00200012808BF7F
:103AA000052070474100080218BF04200A0E18BF05
:103AB00040F001004FF07F4232EA010108BF40F0C0
:103AC0000200012808BF052070470907090E0028D9
:103AD00004DB00F1E02080F80014704700F00F00D4
:103AE00000F1E02080F8141D70472DE9F0414F1ED1
:103AF00000EBC7010446D1E9000115461E4637F028
:103B000006020DD02A463346FCF7DAFC7F1E04EB92
:103B1000C703D3E90023FCF72CFC37F00602F1D1F0
:103B2000022F25D0042F13D0062F18BFBDE8F08137
:103B30002A463346FCF7C4FCD4E90A23FCF719FCF7
:103B40002A463346FCF7BCFCD4E90823FCF711FCF9
:103B50002A463346FCF7B4FCD4E90623FCF709FCFB
:103B60002A463346FCF7ACFCD4E90423FCF701FCFD
:103B70002A463346FCF7A4FCD4E90223FCF7F9FB00
:103B80002A463346FCF79CFCD4E90023BDE8F0410B
:103B9000FCF7EFBB0122FCF774BDFCF7EABB002287
:103BA000134610461146FCF7FDBC0000024A0020F7
:103BB0001107FCF766BD000001FDFFFF00214FF07B
:103BC0007E50FCF78CBBFCF700BB00210846FCF7DD
:103BD00086BB61214FF0E040FCF7BFBB6FF05E0198
:103BE0000807FCF7BABB02E008C8121F08C1002A88
:103BF000FAD170477047002001E001C1121F002A6E
:103C0000FBD170470149086070470000EC010020BB
:103C10002DE9FF5F82B00021DDE90430020DDDF8FF
:103C200040B0034318D044F61050A2F2FF32424392
:103C30001514119801281FD0A5EB0B00401C5FEA5A
:103C4000000A4FF000064E4FDFF83891B04650465C
:103C500015D5CAF1000413E0119801244AA30128E4
:103C600001D16FEA0B010298119AC0E90031C0E955
:103C7000024206B0BDE8F09FCBF10000DFE704464A
:103C80000021404A491842EB0450CDE9001012E0EF
:103C9000E00707D032463B4640464946FCF710FC59
:103CA0008046894632463B4610461946FCF708FCDA
:103CB00006460F466410002CEAD1DDE90401DDE977
:103CC0000023BAF1000F06DAFCF7FAFB42464B4636
:103CD000FCF7F6FB05E0FCF765FC42464B46FCF7BB
:103CE00061FC04460E460022284BFCF78BFD03D8EE
:103CF0004FF0FF30014607E00022254B20463146B9
:103D0000FCF737FBFCF73BFD102409E0002C0ADB35
:103D10000A220023FCF7D4FD039B30321A55641E9F
:103D200050EA0102F2D1641C039AC4F11103144455
:103D3000119A012A03D0012208430DD10AE0084359
:103D400004D000204FF0110B119072E7A3EB0B058C
:103D50006D1E0DE05B4504DD4FF0000205F101052D
:103D600004E003DA4FF00002A5F10105002AECD0CF
:103D700002981199C0E90231C0E9004579E70000D5
:103D8000000014400000F03F300000000000F0434D
:103D90000000E03F2DE9FF4F95B09B46894606465F
:103DA00000250FE2252877D100242746F84A012173
:103DB000059400E0044316F8013F203B01FA03F0AC
:103DC0001042F7D130782A2811D06FF02F033078C5
:103DD000A0F13002092A16D8059A44F0020402EB39
:103DE000820203EB42021044761C0590EFE759F87B
:103DF000042B0592002A03DA504244F40054059043
:103E000044F00204761C30782E2816D116F8010FE3
:103E100044F004042A280DD06FF02F023078A0F16E
:103E20003003092B09D807EB870302EB4303C718BC
:103E3000761CF3E759F8047B761C30786C280FD099
:103E400006DC4C2817D068280DD06A2814D104E06D
:103E5000742810D07A280FD10DE044F400140AE041
:103E600044F4801401E044F440147278824202D198
:103E700004F58014761C761C307866280BD013DC91
:103E8000582877D009DC002875D04528F6D0462878
:103E9000F4D047281AD19DE118E0632835D0642872
:103EA00079D0652812D195E1702873D008DC672895
:103EB000F1D069286FD06E280DD06F2806D1B5E0FB
:103EC00073282CD0752875D0782874D05A46179945
:103ED00090476D1C75E1C4F30250022809D00328F5
:103EE0000DD0D9F8001004280DD00D6009F1040997
:103EF00067E1D9F80010EA17C1E90052F6E7D9F8EE
:103F000000100D80F2E70D70F0E719F8041B8DF832
:103F1000001000208DF80100EA46012003E059F866
:103F200004AB4FF0FF3061074FF0000102D40DE009
:103F300008F101018846B9420FDA8045F8DB1AF82A
:103F400008100029F4D108E008F1010188468142F7
:103F5000FADB1AF808100029F6D105985B46A0EBA9
:103F6000080721463846179A00F094FA284400EBD7
:103F7000080507E04DE029E10DE01AF8010B5A466B
:103F800017999047B8F10108F7D25B4621463846A9
:103F9000179A13E142E00A220092C4F302524FF052
:103FA000000A022A08D059F804CB032A4FEAEC7120
:103FB0000AD00DE029E02AE009F1070121F007020B
:103FC000F2E802C1914609E00FFA8CFC4FEAEC716D
:103FD000042A03D14FFA8CFC4FEAEC71002907DA6E
:103FE0000A460021DCF1000C61EB02012D2202E007
:103FF000220504D52B228DF80420012203E0E207DC
:1040000001D02022F7E7904659E00A2102E0102271
:104010000DE010214FF0000A00910BE010224FF04C
:10402000000A44F004040827009203E008224FF03D
:10403000000A0092C4F30252022A05D059F804CBB8
:104040000021032A08D009E009F1070121F0070245
:10405000F2E802C1914605E01FFA8CFC042A01D166
:104060000CF0FF0C4FF00008220728D5702806D06E
:10407000009B83F0100353EA0A0305D00EE04022B0
:104080008DF80420012208E05CEA010206D030220B
:104090008DF804208DF8050002229046009B83F0E5
:1040A000080353EA0A030AD15CEA010201D162075C
:1040B00005D530228DF804204FF001087F1E5828C6
:1040C00004D034A003900EA802900DE036A0F9E7CA
:1040D00053466046009AFCF7F3FB84460398825CE3
:1040E0000298401E029002705CEA0100F0D1029832
:1040F00006A9081A00F1200A600702D524F48034CA
:1041000000E00127574502DDA7EB0A0000E0002090
:1041100000EB0A01009005984144401A0590E00325
:1041200006D45B462146179A059800F0B3F905447A
:10413000002706E001A85A46C05D179990476D1CFC
:104140007F1C4745F6DBE0030CD55B462146179AFA
:10415000059800F09FF9054404E030205A4617996D
:1041600090476D1C0099481E00900029F5DC08E07E
:10417000029802995A460078491C02911799904773
:104180006D1CBAF10001AAF1010AF1DC65E1000041
:10419000092801003031323334353637383961621D
:1041A00063646566000000003031323334353637E1
:1041B00038394142434445460000000000F058F9B8
:1041C0000544761C307800287FF4ECAD19B0284601
:1041D000BDE8F08F620700D4062709F1070222F03C
:1041E000070CFCE80223E14603F000485FEA080CF4
:1041F00002D00FF2702C0DE05FEA045C02D50FF2E2
:10420000682C07E05FEAC47C02D00FF2602C01E06A
:10421000AFF2700C4FF0FF3823F00043CDF850C0E0
:1042200065280CD006DC452809D046281DD0472833
:104230003DD13DE0662818D067287ED138E00021C6
:10424000112F01DB112000E0781CCDE9000106A947
:104250000EA8FFF7DDFCDDE90F010E9A03910021A6
:10426000009207F1010A04914DE04FF000400097E1
:10427000CDE9011006A90EA8FFF7CAFCDDE90F027F
:1042800003920E9B11990022DDF80CA0009304927A
:1042900011B9791C00EB010AB7EB0A0004D4C0F194
:1042A000FF3007F1010A0490AAEB0700019044E0F7
:1042B000012F00DA01270021112F01DD112000E07C
:1042C0003846CDE9000106A90EA8FFF7A1FCDDE9FB
:1042D0000F010E9A0391002104910092BA46210722
:1042E0000CD40399514500DA8A46BAF1010F05DD75
:1042F000009AAAF10101515C302908D0B84202DAD3
:1043000010F1040F06DA0121CDE9011015E0AAF140
:104310000101E9E7002805DC049901440491AAEBB6
:10432000000102E0411C514500DD8A460499401A13
:10433000401C01904FF000400290200704D40198E7
:10434000504501DBCDF8048000208DF84F00029825
:104350000DF14F07B0F1004F25D02B200E900298A1
:104360004FF0020800280CDA404202902D200E90F7
:1043700007E00A210298FCF78DFA3031029007F825
:10438000011DB8F10001A8F10108F2DC0298002833
:10439000EFD1791E0E980870307800F0200040F0C0
:1043A000450007F8020D12A8C01B00F10708149879
:1043B000007800B1012000EB0A01019801EBE071E7
:1043C00005984144401A401E0590E00306D45B4620
:1043D0002146179A059800F05DF805441498007876
:1043E00018B15A46179990476D1CE00324D55B46D7
:1043F0002146179A059800F04DF805441CE00498F2
:10440000002807DBDDE90301884203DD0098405CFA
:10441000179901E0179930205A469047049805F102
:104420000105401C04900198401E019004D12E20EB
:104430005A46179990476D1CBAF10001AAF1010A7A
:10444000DDDC05E017F8010B5A46179990476D1C03
:10445000B8F10001A8F10108F4DC5B462146179A87
:104460000598ABE62D0000002B00000020000000A6
:104470002DE9F041044600251E461746880404D461
:1044800005E039462020B0476D1C641EF9D528464A
:10449000BDE8F0812DE9F041044600251E46904616
:1044A000C80301D5302700E02027880404D505E0A3
:1044B00041463846B0476D1C641EF9D52846BDE814
:1044C000F08100002DE9F04D8D4F21F0004A86B0BB
:1044D00005460C46BA452ADBAAEB070028430AD05A
:1044E0008848824501DC1AD1CDB106B02846BDE826
:1044F000F04DFFF74FBB844A844B2846FBF7E0FFA3
:1045000007460E46824A834B28462146FBF7D8FFD2
:1045100006B03A463346BDE8F04DFBF72ABF01200E
:10452000FFF770FB06B0BDE8F04DFFF738BB7A48E7
:10453000824542DABAF1795F0BDA2846FFF79EFA34
:10454000042808BFFFF732FB284606B02146BDE825
:10455000F08D2A460B461046FBF7B2FF8346024613
:104560006E480E460B4606217844FFF7BEFA5A46BF
:104570003346FBF7A5FF804669488A465A463346CC
:1045800004217844FFF7B1FA5A463346FBF798FF07
:1045900000223B46FBF7EDFE02460B4640465146E5
:1045A000FCF700F82A462346FBF78AFF06B02A46A6
:1045B0002346BDE8F04DFBF7DCBE284624F0004161
:1045C00000223D463B46FBF778FF4FF0FF32FCF7F9
:1045D00058F80646024653480F460B4606217844D3
:1045E000FFF783FA32463B46FBF76AFFCDE900014D
:1045F0004D4832463B4604217844FFF776FA32466E
:104600003B46FBF75DFF00222B46FBF7B2FE8346DD
:1046100002913046394601F06FFF804643480D460F
:10462000504517DCDDE900015A46029BFBF7BAFF53
:1046300042462B46FBF744FF42462B46FBF799FECA
:104640000122FCF71EF8304A304BFBF733FF304AAB
:10465000304B4CE04FF0000A52460B464046FBF709
:1046600088FECDE9031052462B4610461946FBF74B
:1046700027FF32463B46FBF720FFDDE90332FBF71D
:1046800091FF06460F46DDE900015A46029BFBF703
:1046900089FF83460091012230463946FBF7F1FF3E
:1046A000194A1A4BFBF709FF06460F4601224046FE
:1046B0002946FBF7E6FF5A46009BFBF701FF32460F
:1046C0003B46FBF7F7FE06460F46012250462946B9
:1046D000FBF7D7FF0E4DDFF858802A464346FBF71D
:1046E000ECFE32463B46FBF7E8FE2A464346FBF724
:1046F000E4FE002CD8BF81F0004106B0BDE8F08D8B
:104700000000F03F0000F07F075C143326A6913CC8
:10471000182D4454FB21F93F0000E03FCC2000005D
:10472000E2200000562000006C2000003333EF3FF1
:10473000FB21E93F2DE9F84F04460D4621F00040EA
:1047400000917349814211DC7249884201DC06D133
:104750002CB120462946BDE8F84FFFF71BBA6E483A
:10476000002DCCBF6D496E49BDE8F88F6D4981427F
:1047700011DD6D498142D8BF4FF0FF366DDD204617
:104780002946FFF77BF9042808BFFFF70FFA2046F8
:104790002946BDE8F88F6549654F25F000458142FF
:1047A00033DD6449814219DD002632464FF08043F3
:1047B00020462946FBF7DDFD80468A460122204639
:1047C0002946FBF75EFF00223B46FBF773FE42469D
:1047D0005346FBF7E7FE04460D463EE00126002265
:1047E000BA463B4620462946FBF7C3FD80460F46A6
:1047F0000022534620462946FBF75CFE42463B46D4
:10480000FBF7D0FE04460D4627E04B4981421BDDF5
:10481000DFF828A102260022534620462946FBF74E
:104820004FFE00223B46FBF7A4FD80460F460022C8
:10483000534620462946FBF73DFE42463B46FBF7E2
:10484000B1FE04460D4608E0032622462B46002012
:104850003B49FBF7A7FE04460D4622462B46104671
:104860001946FBF72DFE8B46824602460B46FBF7A8
:1048700027FE07460246334888460B460621784401
:10488000FFF733F952465B46FBF71AFE82462E4885
:104890008B463A46434605217844FFF726F93A46C7
:1048A0004346FBF70DFE02460B46002E5046594686
:1048B0000CDAFBF75EFD22462B46FBF701FE01B04A
:1048C00022462B46BDE8F04FFBF7F7BDFBF751FD45
:1048D00022462B46FBF7F4FD1C4A7A4402EBC60342
:1048E000D3E90023FBF7E6FD22462B46FBF7E2FD6A
:1048F000174A7A4402EBC603D3E90023FBF7DDFD38
:10490000009A002AB8BF81F00041BDE8F88F00008E
:10491000000010440000F07F182D4454FB21F93FA3
:10492000FB21F9BF0000DC3F0000203E0000F33F08
:104930000000F03F0000E63F008003400000F83F29
:104940000000F0BFAE1F00006C1F00000A1F000037
:10495000D21E00002DE9F04D9446CCF1000423F066
:1049600000464CEA0404524F46EAD4749A468846FC
:1049700021F00042BC4206D8454240EA050442EA22
:10498000D474BC4204D9BDE8F04D6246FFF705B9C6
:10499000AAF14055A5F17F6555EA0C040BD002241D
:1049A00004EAAA74434DDFF810E144EAD87452EAED
:1049B000000B04D00CE0BDE8F04DFFF7BBBE002CAF
:1049C00014BF012CBDE8F08D022C30D0032C32D066
:1049D00056EA0C0B0AD0BE4220D1BA4209D126F0C9
:1049E000804622F080423346114617E000291ADB48
:1049F00025E0DFF8C8B0FB44002C04BFDBE9000170
:104A0000BDE8F08D012C02BFDBE9000181F000411F
:104A1000BDE8F08D022C0AD0032C0CD0BA4212D182
:104A2000B8F1000F0BDA23482549BDE8F08D284680
:104A30002449BDE8F08D28467146BDE8F08D1D483B
:104A40002149BDE8F08D921B12153C2AC4BF1948BC
:104A50001D490EDCBAF1000FBEBF12F13C0F002061
:104A6000014606DB6246FBF79DFD21F00041FFF7A2
:104A700061FE002C08BFBDE8F08D012C04BF81F061
:104A80000041BDE8F08D114A114B022C07D0FBF715
:104A900011FD2A46BDE8F04D0A4BFBF70BBDFBF7B5
:104AA00009FD2A46BDE8F04D064BFBF706BD0000A8
:104AB0000000F07F182D4454FB2109C0661E000041
:104AC000FB21F9BFFB210940FB21F93F075C1433AF
:104AD00026A6A13C38B51A498820642508700A46E4
:104AE0000123EC2117480095FCF736FC04461823F7
:104AF000154AEC2113480095FCF728FB124A104B8D
:104B000040EA04011E3B1088D880508818819088A4
:104B10005881D08898811089D881508918829089CD
:104B20005882D0899882108AD882508A1883908AB5
:104B30005883D08A9883BDE8384004A0FEF78EBF22
:104B400036000020F00100201C0400205374617422
:104B500075733A2025690D0A0000000070B56420C5
:104B6000FCF772F832230522EC211B48FCF742FACD
:104B70001A4D01004FF400540BD019A0FEF76EFF40
:104B8000002221462846FCF76FF96420FCF75CF808
:104B9000FEE702235722F421762000F023F906468F
:104BA00002231022F521762000F01CF930430DD0AD
:104BB000014613A0FEF752FF002221462846FCF7CB
:104BC00053F9BDE870406420FCF73EB8BDE8704082
:104BD00012A0FEF743BF0000F001002000100140CA
:104BE0000A4572726F7220617420626D7020636F6B
:104BF0006E6E656374696F6E3A2025690A00000065
:104C00000A4572726F7220617420626D7020736544
:104C10007475703A2025690A00000000424D50204A
:104C20007365747570207375636365737366756CF3
:104C3000210A00002DE9F05F8346544AC8178918FD
:104C4000A1FB012340F1FF30514C00FB0133B4F9CB
:104C5000165001FB0038A2FB0537EE1708FB05755F
:104C600002FB0659B4F914504FF0000AA1FB057C71
:104C7000EE1700FB05C501FB06556E0446EAD73664
:104C80007F04FB1846EB09061AEB0309B4F9103050
:104C9000B4F91250A2FB037C46EBC5054FEAE3765C
:104CA00008FB03C302FB0632B4F90E304FEA1726A5
:104CB000A1FB03C800FB03804FEAE37701FB070079
:104CC0004FEA003146EA02664FEA0C3041EA1C51D5
:104CD000301841EB2222001C42F50043A289A0FBC0
:104CE000027603FB026200FB0A204210C31752EA5D
:104CF000030048D0CBF58010C117C907C60741EAA9
:104D00005001B6EB090640F63547A6FB070C61EBF0
:104D1000050101FB07C1002506FB0511FBF702FA9F
:104D2000B4F91C50420B42EAC142A2FB057C4B1372
:104D3000EE1703FB05C502FB0655A7FB026C05FB3E
:104D400002C207FB0323720E42EAC3125D16B4F9D6
:104D50001A30A3FB007CDE1706FB00C603FB0166CE
:104D6000FB0C801843EA46336941C01841EBE64129
:104D70004FEA102040EA0160B4F918104FEA01111F
:104D80004018BDE8F09F0020FBE70000000CFEFF8C
:104D90001800002030B50C4AC410D388B2F908506E
:104DA000C3EB2010A4EB43044043B2F90A206C4348
:104DB0000013E412504304EBA030086000EB8000C5
:104DC0008030001230BD00001800002013B54FF6EF
:104DD000FF73012269460248FDF768FC00981CBD7C
:104DE0005C0300202DE9F04F85B00026DFF87880C5
:104DF0001E4D400014460F464FF47A7B4FF0640975
:104E00004FF0010ACDF80C0088F8007088F80140D6
:104E10000223154ACDF800B015480399FCF79CFA17
:104E200010B114A0FEF71AFECDE9005A01233A464C
:104E3000CDF808900E480399FCF724FB01462B7827
:104E40003A4610A0FEF70AFE2878A04203D10020BF
:104E500005B0BDE8F08F761C042ED5DB0498A04287
:104E6000F6D00120F4E70000360000201C040020EA
:104E7000F0010020693263207478206572726F72CD
:104E80000D0A00005374617475733A2025692C2053
:104E9000616464726573733A2025692C20646174BF
:104EA000613A2025690D0A0010B504464FF0FF3124
:104EB000FBF753FA0849A1EB64042146FBF7DDF93F
:104EC0002146FBF7DAF94FF07F51FBF7D3F9214682
:104ED000BDE81040FBF7D1B9DF59375F1CB5FCF7CF
:104EE00017FCFEF745FBFDF777FED348D1490024B8
:104EF0000160D249C0E901144FF48041C0E9034187
:104F000044618461C4610462FBF7BAFF00B1FEE74B
:104F1000CC48CB490C250160CB49C0E90114C460E1
:104F2000C0E904458461C461FDF715FB00B1FEE7EB
:104F3000FDF7C2FEFDF7E0FEC2484FF08041803829
:104F4000C0E9001444F2B461C0E9024104610821DF
:104F50008461FDF720FA00B1FEE7BA48BB49803012
:104F60004FF4E1360160C0E90164C460C0E9044562
:104F70008461C461FDF7EFFA00B1FEE7FDF704FFBD
:104F8000B048B34940300160C0E90164C460C0E981
:104F900004458461C461FDF7DEFA00B1FEE7DFF885
:104FA000B4924E46D6E91401FBF744FCAA4F386090
:104FB000D6E91601FBF73EFC7860D6E91801FBF74D
:104FC00039FC09F18005B860D5E90601FBF732FC30
:104FD000DFF888828246C7E90308D6E91A01FBF7A1
:104FE00029FC38373860D6E91C01FBF723FC7860D0
:104FF000D6E91E01FBF71EFCC7F81080C7E9020ABC
:10500000D5E90001FBF716FC07F138063060D5E959
:105010000201FBF70FFC7060D5E90401FBF70AFC05
:10502000C6F81080C6E9020A8D484FF47A77006806
:10503000B0FBF7F0401EB0F1807F09D24FF0E021C5
:105040004861884AF02082F8140D8C6107200861BD
:105050007C4800214038FDF75BFA7A48042140384B
:10506000FDF756FA774808214038FDF751FA7548A0
:105070000C214038FDF74CFA6F480021AC30FDF7A9
:1050800072F800F0E3F9734E803EB06500F0DEF98F
:10509000F06500F0FFFDFFF761FDFFF71BFD00F07D
:1050A0008DFEDFF8B4A1BB46AAF16C0A3078002867
:1050B0007ED000F0CBF9CAF800005746012220212B
:1050C0006948FBF7D1FE347000F058FC00F0BEF9DF
:1050D0007860707850B9D6E91C01CDE90001D9E9B2
:1050E0000312F36ED9F80800FDF7AAFEFEF78EF959
:1050F00000F0ACF9BA46B86000F0C6F8307930B9C3
:10510000D5E914010022594BFBF764FB01D20127BA
:1051100000E00027D5E91401FBF78CFB8046D5E9B8
:105120000E01FBF787FB02464B4843460097C846F3
:105130003830D9F82C10FEF7CFF8FBF738FBC5E96B
:105140001801D5E91401FBF775FB0190D5E91001B1
:10515000FBF770FB02460097019B3F48D8F83010E0
:10516000FEF7BAF8FBF723FBC5E91601D5E91401F0
:10517000FBF760FB0190D5E91201FBF75BFB0246F0
:1051800035480097019B7030D8F83410FEF7A4F82A
:10519000FBF70DFBC5E91A0100F058F95746CAF8AC
:1051A0000C0000F053F93066B06EA0F2C31000E0BE
:1051B00025E03B280ED200F049F90146D8F844001A
:1051C000081A2B49884205D22046347100F052F962
:1051D000012204E00120307100F04CF900224FF46C
:1051E00000512448FBF740FE706D401C706500F0D4
:1051F0002DF93861002220211B48FBF735FEB16DE7
:10520000706E411A594503D9716DB166C6E91540F2
:10521000F16D411AFA297FF649AFF06500F016F9F1
:10522000D5E90C2314A0FEF719FC042001F08AF93B
:105230003CE7000000540040F0010020801A060006
:10524000003801405C03002080841E0000480040BC
:105250000044004098000020B004002000002041DD
:10526000E40100200FE000E0000C014000002440B9
:10527000A086010000100140414C5449545544455A
:105280003A2025660D0A00002DE9F04F2F4D89B018
:10529000E868FBF729FA2E4B0022CDE906232D4BB7
:1052A000DFF8BCB0CDE904232B4BCDE902232B4B17
:1052B000CDE900235B4600F089F804460E46686895
:1052C000FBF712FA224B0022CDE90623214BCDE950
:1052D0000423214BCDE90223204BCDE900235B467B
:1052E00000F074F8074681F000482868FBF7FCF9E5
:1052F0001C4B0022CDE906231B4BCDE90423164BA2
:10530000CDE90223154BCDE900235B4600F05EF8A2
:10531000814681F0004AA868FBF7E6F90022134BAA
:10532000CDE90422CDE906230B4BCDE902230B4B3B
:10533000CDE900235B4600F049F80D4AC2E91401AB
:10534000383282E8D00709B0BDE8F08F8C04002025
:1053500000003E4000003EC000809F400078974023
:1053600000208F4000006940000069C00080664056
:10537000180100202DE9FF5F9046DDE912010EAA19
:105380009A4692E8900A4A465B46FBF793F8054630
:105390000E464246534620463946FBF78BF80746F1
:1053A0000C46DDE9000142465346FBF783F83A46D6
:1053B0002346FBF7F7F82A463346FBF781F804B09B
:1053C0004A465B46BDE8F05FFAF7D3BF2DE9FF5FC1
:1053D00086B00646DDE91445DDE918AB0F46DDE988
:1053E0001A0152465B46FAF7C4FF4FF0FF32FBF753
:1053F00048F98046894622462B4630463946FBF717
:10540000E9F908D28DE8300CCDE90489DDE90823FB
:105410003046394614E022462B4630463946FBF7E3
:10542000F1F90FD8DDE91A01CDE90401CDE90289CE
:10543000DDE91601CDE9000122462B46304639460A
:10544000FFF798FF0AB0BDE8F09F00004FF0E020A2
:1054500041698069081A4821B0FBF1F10448406EA7
:1054600000EB4002C2EBC01001EBC000704700002F
:10547000180000202DE9F047FE4D86B08046D5E9A2
:10548000140105F18004C5E91E01C4E90001C4E965
:105490000201D5E91623F44EDFF8D093DFF8D0A34C
:1054A000FBF708F800221346C5E91C01FBF792F947
:1054B0000AD2D5E91E01D5E91C23FAF7FBFFC5E99D
:1054C0001E010020014614E0D5E91C2300203146CE
:1054D000FBF780F90FD2D5E91C2300203146FAF7FB
:1054E000E9FFD5E91E23FAF744FFC5E91E01DE49AD
:1054F0000020C5E91C01D5E91E01D5E91623FAF7FC
:1055000038FF00221346C5E91E01FBF763F90AD2F2
:10551000703595E80F00703DFAF7CCFFC5E91C0126
:105520000020014614E0D5E91E2300203146FBF798
:1055300051F90FD2D5E91E2300203146FAF7BAFF00
:10554000D5E91C23FAF715FFC5E91C01C64900205F
:10555000C5E91E01D5E91623D4E90001FAF709FFD0
:1055600000221346C4E90001FBF734F90AD2D4E95A
:105570000201D4E90023FAF79DFFC4E902010020EB
:10558000014614E0D4E9002300203146FBF722F95C
:105590000FD2D4E9002300203146FAF78BFFD4E97B
:1055A0000223FAF7E6FEC4E90201AF490020C4E98C
:1055B0000001D5E91623D4E90201FAF77BFF0022A6
:1055C0001346C4E90201FBF705F908D294E80F007D
:1055D000FAF770FFC4E900010020014614E0D4E9A5
:1055E000022300203146FBF7F5F80FD2D4E902235D
:1055F00000203146FAF75EFFD4E90023FAF7B9FE3E
:10560000C4E9000198490020C4E90201D5E91C0160
:10561000D5E91823FAF7ADFE00221346C5E91C01AF
:10562000FBF7D8F80AD2D5E91C23D4E90201FAF72E
:1056300041FFC4E902010020014614E0D5E91C2322
:1056400000203146FBF7C6F80FD2D5E91C23002015
:105650003146FAF72FFFD4E90223FAF78AFEC4E9AC
:10566000020181490020C5E91C01D5E91823D4E9CC
:105670000201FAF71FFF00221346C4E90201FBF7FB
:10568000A9F80AD2D4E90223D5E91C01FAF712FFDE
:10569000C5E91C010020014614E0D4E902230020E2
:1056A0003146FBF797F80FD2D4E9022300203146A8
:1056B000FAF700FFD5E91C23FAF75BFEC5E91C01E8
:1056C00069490020C4E90201D5E91E01D5E9182382
:1056D000FAF74FFE00221346C5E91E01FBF77AF8E0
:1056E0000AD2D5E91E23D4E90001FAF7E3FEC4E9A2
:1056F00000010020014614E0D5E91E2300203146B8
:10570000FBF768F80FD2D5E91E2300203146FAF7DF
:10571000D1FED4E90023FAF72CFEC4E90001524976
:105720000020C5E91E01D5E91823D4E90001FAF7E4
:10573000C1FE00221346C4E90001FBF74BF80AD270
:10574000D4E90023D5E91E01FAF7B4FEC5E91E012C
:105750000020014614E0D4E9002300203146FBF785
:1057600039F80FD2D4E9002300203146FAF7A2FE1F
:10577000D5E91E23FAF7FDFDC5E91E013A490020CF
:10578000C4E90001D5E91A27D5E91C0116463B46B4
:10579000FAF7EFFDC5E91C01D5E91E0132463B468B
:1057A000FAF788FEC5E91E01D4E9000132463B46FE
:1057B000FAF7DFFDC4E90001D4E9020132463B46B5
:1057C000FAF778FE2A4B0022C4E90201CDE904234E
:1057D000264BCDE90223244BCDE900231346FFF7E6
:1057E000C9FDC4E9020122490020CDE904011F4995
:1057F0000246CDE902011C490346CDE90001D5E985
:105800001C01FFF7B7FDC5E91C0119490020CDE9CE
:10581000040116490246CDE9020113490346CDE9C8
:105820000001D4E90001FFF7A5FDC4E9000110491A
:105830000020CDE904010D490246CDE902010A49E3
:105840000346CDE90001D5E91E01FFF793FDC5E947
:105850001E01D4E9020100224E464B46FAF7BAFF78
:105860000AD20020014910E0008066400094D14037
:105870000094E14018010020D4E9020100225346BF
:10588000FAF7C0FF03D239490020C4E90201D5E983
:105890001C0100223346FAF79DFF02D20020344952
:1058A00008E0D5E91C0100225346FAF7ABFF03D20A
:1058B0002E490020C5E91C01D4E90001002233462D
:1058C000FAF788FF02D20020294908E0D4E9000154
:1058D00000225346FAF796FF03D224490020C4E978
:1058E0000001D5E91E0100223346FAF773FF02D208
:1058F00000201F4908E0D5E91E0100225346FAF7AF
:1059000081FF03D219490020C5E91E01B8F1000F3B
:1059100006D1D5E914010022164BFAF75BFF09D234
:1059200013490020C5E91C01C5E91E01C4E90001B5
:10593000C4E90201D5E91C01FAF708FF0E4E3168EF
:105940004863D5E91E01FAF701FF31688863D4E99D
:105950000001FAF7FBFE3168C863D4E90201FAF7E7
:10596000F5FE3168086406B0BDE8F0870094E140B8
:105970000094D140000024401C0300202DE9F04F8A
:10598000B4498BB03B200870B34C642014210094C0
:10599000CDE9011001233B22D021A4F50B70FBF7C8
:1059A00071FD18B101200BB0BDE8F08FAA490020AD
:1059B00011F1180134F8102052BA21F81020401CBF
:1059C0000728F7DBA44E1836B6F90000FAF770FE88
:1059D000A04D623568610A90B6F90200FAF768FED8
:1059E000A8610690B6F90400FAF762FEE861099032
:1059F000B6F90800FAF75CFE81462862B6F90A009B
:105A0000FAF756FE83466862B6F90C00FAF750FEC4
:105A10000746A862A07BE17B000340EA0110217CDD
:105A20004FF0010840EA11100490607CA17C000353
:105A300040EA0110E17CA5F1800440EA11100790D2
:105A4000266DB6F5FA7F05D2761C266584F80180AE
:105A50000420A8E740F2DC50864212D24846FAF70A
:105A60005CFEA16A0844A0625846FAF756FEE16A55
:105A70000844E0623846FAF750FE216B0844206380
:105A8000E2E700206070A06A4FF47A7690FBF6F0AF
:105A9000FAF70EFE4946FAF7EDFB82462862E06A05
:105AA00090FBF6F0FAF704FE5946FAF7E3FB83465B
:105AB0006862206B90FBF6F0FAF7FAFD3946FAF7C8
:105AC000D9FBA8628146616B0A98FAF77EFB216CCC
:105AD000FAF7D3FB68618046A16B0698FAF775FB6D
