:020000040800F2
:10000000E009002001010008D93A00086B2C000823
:10001000D73A00088F0B00083542000800000000A6
:10002000000000000000000000000000393D000852
:10003000D30B000800000000DB3A00083D3D00083B
:100040001B0100081B0100081B0100081B01000820
:100050001B0100081B0100081B0100081B01000810
:100060001B010008D50B00081B0100081B0100083C
:100070001B0100081B0100081B0100081B010008F0
:10008000910B00089D0B00081B0100081B010008D4
:100090001B0100081B0100081B010008E50B0008FC
:1000A0001B0100081B0100081B010008F13D0008AE
:1000B0001B0100081B0100081B0100081B010008B0
:1000C0001B0100081B0100081B0100081B010008A0
:1000D0001B0100081B0100081B0100081B01000890
:1000E0001B0100081B0100081B010008DFF80CD0F1
:1000F00000F010FD004800476D570008E00900209F
:100100000648804706480047FEE7FEE7FEE7FEE7B1
:10011000FEE7FEE7FEE7FEE7FEE7FEE7A93D000893
:10012000ED0000082DE9F0410024061B254671F181
:10013000000605DA01240027D0EB070067EB010178
:10014000161E73F1000605DA0027D2EB070201251F
:1001500067EB030300F0E0FA86460E4617469C461E
:10016000AC4204D00025D0EB050E65EB010624B1AE
:100170000020D2EB000760EB030C704631463A4694
:100180006346BDE8F081202A04DB203A21FA02F020
:100190000021704721FA02F3D040C2F120029140C1
:1001A000084319467047D2B201E000F8012B491EFE
:1001B000FBD270470022F6E710B513460A46044604
:1001C0001946FFF7F0FF204610BDF0B480EA0102A7
:1001D000D40F4200B2EB410F02D20246084611464C
:1001E0004A0042D0C30DDDB2C1F3C752AD1A202D73
:1001F00035DAC1F3160141F4000204B15242C5F1EF
:10020000200602FA06F12A411044B3EBD05F23D056
:10021000C4B1012DA0EBC35009DCF0BC4FF000428B
:1002200002EAC352DBB200F5000000F0D0BA400091
:1002300000F1807000EBC350A0F1807040EAD170F3
:10024000490009E0490841EAC071A0EBC35000F53C
:100250000000400800EBC350F0BC00F0AFBA6142B0
:10026000012202EB4101001BF6E7F0BC704781F070
:100270000041AAE780F00040A7E780EA010210B53C
:1002800002F00043400022D04A001FD0010E01EBD3
:100290001261C0F35600C2F3560240F4000042F46B
:1002A0000002A0FB022000047F39140400D0401C8F
:1002B00050EA124001D44000491EC2B20C0604EBC1
:1002C000D010401C4008802A02D003E0002010BD5E
:1002D00020F00100002900DA0020184310BD30B4DE
:1002E00080EA010202F0004530F0004221F00040B7
:1002F00013D090B1C30DD40DC2F31601C0F3160094
:10030000E41A41F4000140F400027D34914201D32B
:10031000641C00E04900002C02DA30BC0020704769
:100320004FF400000023914201D3891A034340088F
:100330004FEA4101F7D151B1914202D14FF0004152
:1003400005E002D24FF0010101E06FF0010103EB83
:10035000C450284430BC00F031BA420005D0C0F38C
:10036000C7525242914201DC0020704700EBC1505D
:1003700070472DE9FE4F804681EA0300C00F0C460E
:10038000009021F0004123F00045B8EB0200A941A4
:1003900005D24046214690461C460B46024623F0B5
:1003A0000040104347D0270DC7F30A00C3F30A519A
:1003B0000290401A019040286BDAC3F3130040F416
:1003C000801B0098924620B10023D2EB030A63EB16
:1003D0000B0B01985946C0F14002504600F0CDF990
:1003E00006460D4650465946019A00F0D5F910EBE5
:1003F00008006141002487EA115284EAE7731A4336
:1004000040D0009A62B3019A012A4FEA075215DCE4
:10041000001B61EB02014FF0004202EA0752CDE9F6
:100420000042001C41F5801132462B4600F00CFAC8
:1004300003B0BDE8F08F40462146F9E7001B61EBB1
:100440000201001C41F5801300185B412018A2F541
:10045000001747EB030140EAD570B6196D4111E072
:100460006D084FEA360645EAC0754FEA0752001B91
:1004700061EB0201001C41F5801149084FEA300090
:100480000019514132462B4603B0BDE8F04F00F051
:10049000CCB90098012240000023D0EB020263EBAC
:1004A000E073009821464FEAE074B8EB000061EB7E
:1004B0000401E9E783F000435BE781F0004158E77E
:1004C0002DE9FE4F81EA030404F0004421F00041CD
:1004D00000944FF0000B23F0004350EA01045ED07B
:1004E00052EA03045BD0C3F30A54C1F30A552C4407
:1004F000A4F2F3340194A0FB0254C1F3130141F4BC
:100500008011C3F3130343F4801301FB024400FB87
:10051000034E840A970A44EA815447EA8357A4FBAE
:10052000076802958D0A05FB07854FEA932C04FBAB
:100530000C542705029D4FEA065847EA1637B5EBDB
:1005400008056EEB070C870E920E47EA811742EA08
:100550008312A7FB0201B6EB0B0164EB00042B0D29
:1005600043EA0C335E1844EB1C50DA465146E7FB75
:100570000201C5F313044FEA0B3343EA14534FEA65
:100580000432019C43EA0603A4F10C040294009C8B
:10059000CDE900B400F058F903B0BDE8F08F0020B9
:1005A0000146F9E770B521F0004303430CD0C1F3D5
:1005B0000A550024D5EB040564EB0403D617AD1AE5
:1005C000B34102DB0020014670BD201841EB02510F
:1005D00070BDC10F80EAE0700844CA07962300216D
:1005E00000F0F5B896230022114600F0F0B830B4C0
:1005F000044696230800214604D0B62330BC0022CE
:1006000000F0E5B820460021F8E700F0004220F0B5
:100610000040C10DC0F3160040F400007F2901DA4C
:1006200000207047962903DCC1F19601C84001E023
:1006300096398840002AF4D04042704720F00040AC
:10064000C10DC0F3160040F400007F2901DA00203C
:100650007047962903DCC1F19601C840704796396E
:100660008840704700F0004230F000400AD0C10DD1
:1006700001F56071C0F3160042EA0151C20840075B
:100680001143704700200146704701F0004330B429
:1006900021F0004150EA010206D00A0DA2F5607275
:1006A000C1F31301002A02DC30BC00207047440F64
:1006B00044EAC104C100E01830BC00EBC25000F0B5
:1006C0007DB80000002801DBC0F10040002901DBFB
:1006D000C1F1004181427047002801DBC0F10040B8
:1006E000002901DBC1F100418842704730B50B465B
:1006F000014600202022012409E021FA02F59D4252
:1007000005D303FA02F5491B04FA02F52844151E25
:10071000A2F10102F1DC30BD2DE9F05F05460020B9
:1007200092469B4688460646814640241BE0284662
:10073000414647462246FFF726FD53465A46C01A11
:10074000914110D311461846224600F016F82D1A92
:1007500067EB01084F4622460120002100F00DF80A
:1007600017EB00094E41201EA4F10104DFDC4846CE
:1007700031462A464346BDE8F09F202A04DB203A52
:1007800000FA02F1002070479140C2F1200320FAE4
:1007900003F3194390407047202A06DBCB17203A19
:1007A00041FA02F043EAE07306E041FA02F3D04076
:1007B000C2F1200291400843194670470029A8BFA2
:1007C0007047401C490008BF20F00100704710B47A
:1007D000B0FA80FC00FA0CF050EA010404BF10BC2F
:1007E000704749B1CCF1200421FA04F411FA0CF15C
:1007F00018BF012121430843A3EB0C01CB1D4FEA95
:1008000000614FEA102042BF002010BC704700EB8F
:10081000C35010440029A4BF10BC7047401C4900BD
:1008200008BF20F0010010BC704710B5141E73F112
:10083000000408DA401C41F1000192185B411A43A0
:1008400001D120F0010010BD2DE9F04D92469B46EC
:1008500011B1B1FA81F202E0B0FA80F22032904692
:10086000FFF78BFF04460F4640EA0A0041EA0B01FE
:1008700053465A46084313D0114653EA010019D093
:10088000C8F140025046FFF77EFC05460E46504632
:1008900059464246FFF771FF084305D0012004E0A6
:1008A00020463946BDE8F08D0020054346EAE07653
:1008B0002C4337430A986305E40AA0EB08000022A2
:1008C000FD0A44EA47540A3002D500200146E9E710
:1008D000010510196941DDE9084500196941BDE8C4
:1008E000F04DA2E72DE9F04D81EA030404F0004B3E
:1008F00021F0004514464FF0000A23F0004150EA71
:10090000050220D054EA01021DD0C5F30A57024661
:10091000C5F31303C1F31300C1F30A5640F4801565
:1009200043F48013A7EB0608101BD64608F2FD38E7
:1009300073EB050002D308F1010801E092185B4156
:10094000B8F1000F03DA00200146BDE8F08D002069
:100950004FF48011064684460EE0171B73EB050723
:1009600005D3121B63EB050306434CEA010C49084F
:100970004FEA300092185B4150EA0107EDD152EA8C
:10098000030012D082EA040083EA0501084305D07F
:10099000101BAB4106D20122002306E000224FF0DB
:1009A000004302E06FF0010253101AEB06004CEB1B
:1009B000085110EB0A0041EB0B01BDE8F04DFFF7C9
:1009C00034BF2DE9F04D00231A461B1A8A4103DB80
:1009D00000200146BDE8F08DC1F30A52C1F31301B6
:1009E00041F480154FF0000BD10702D100186D4182
:1009F000521E0027044640F2FF11384601EB620AFE
:100A00003E468046024600204FF48011FFF7BBFBB4
:100A1000C2197141BB1846EB0100B4EB030C75EB36
:100A2000000C04D3E41A65EB000517460E462419A2
:100A300008F101006D4180463428E3DDF91946EBE9
:100A40000600091BA84103D24FF0FF32134601E014
:100A5000002213461BEB070046EB0A51BDE8F04DA0
:100A6000FFF7E3BEC1F30A52C1F3130140F2FF33B3
:100A700041F480119A4202DA00200146704740F2A8
:100A800033439A42A2F2334202DC5242FFF77BBB6D
:100A9000FFF773BE10B500F0004420F00040C20D17
:100AA000C0F3160040F400007F2A07DA7D2A00DA3E
:100AB0007D22763A00FA02F1002008E0962A09DC4D
:100AC000A2F1760100FA01F1C2F19602D040FFF7DF
:100AD00075FE01E0963A9040002C00D0404210BDD7
:100AE00030B5041E71F1000404DB4FF000444042B5
:100AF00064EB0101141E73F1000405DB1C464FF08A
:100B00000043524263EB0403994208BF904230BD58
:100B100000207047064C074D06E0E06840F00103F6
:100B200094E8070098471034AC42F6D3FFF7E2FA96
:100B3000B06D0008D06D000870B58C1810F8015B1E
:100B400015F0070301D110F8013B2A1106D110F866
:100B5000012B03E010F8016B01F8016B5B1EF9D16A
:100B60002B0705D40023521E0DD401F8013BFAE7F0
:100B700010F8013BCB1A921C03E013F8015B01F85B
:100B8000015B521EF9D5A142D8D3002070BDFEE70B
:100B9000014800F047B8000098050020014800F027
:100BA00041B800005405002030B590F840500124B1
:100BB000AC40C56B6C60046863604368102B0368CD
:100BC00003D099600068C26030BD9A600068C1605F
:100BD00030BD7047024901200870082000F034B988
:100BE0001A00002010B505F053F809490A4B0860B7
:100BF00008490A68821A1A600860084901200870CA
:100C0000000200F021F9BDE8104005F0CFBB000064
:100C100094010020900100206C00002018000020AA
:100C2000FEE700002DE9F05FC16B0C6801680B68FE
:100C3000D0F840C0042202FA0CF2494DDFF824A19A
:100C4000494E4A4FDFF828B1DFF828E122422CD084
:100C50005A072AD50A68920603D40A6822F00402C9
:100C60000A600168A94201D1042219E0514501D16D
:100C7000402215E0B14202D14FF4806210E0B94247
:100C800002D14FF480420BE0594502D14FF480224B
:100C900006E0714502D14FF4800201E04FF080621E
:100CA0002F4908394A60C16A3BE04FF0020808FA50
:100CB0000CF818EA040F4FF000094FF0010235D08C
:100CC0005FEA837832D50B689B0605D40B6823F066
:100CD0000A030B6080F821200168A94201D1022299
:100CE00019E0514501D1202215E0B14202D14FF463
:100CF000007210E0B94202D14FF400520BE05945A6
:100D000002D14FF4003206E0714502D14FF40012D7
:100D100001E04FF00072124908394A6080F82090D3
:100D2000816A00291AD0BDE8F05F0847082505FA56
:100D30000CF5254212D01B0710D50B6823F00E03CB
:100D40000B6090F84010C36B02FA01F159608263A6
:100D500080F8212080F82090016BE2E7BDE8F09F49
:100D6000080002401C0002403000024044000240E3
:100D7000580002406C00024030B528B308C813493F
:100D800014221944B1FBF2F18900C1631049816357
:100D9000022141771A6843F6F0718A43D0E90014C2
:100DA0002143D0E902452C4321430469214344698E
:100DB00021438469214311431960002141630122C9
:100DC00042770177084630BD012030BDF8FFFDBFF6
:100DD0000000024070B5044690F82000002501286C
:100DE0000CD0012084F8200094F821600020012E0E
:100DF00006D084F820000225284670BD022070BD70
:100E0000022684F82160A0632068066826F00106A7
:100E100006602046FFF7C8FEE06A002820680168E7
:100E200002D041F00E0106E021F0040101602068CB
:100E3000016841F00A0101602068016841F0010188
:100E40000160D9E770470000044910B50A68024202
:100E500002D00860FFF7F6FF10BD00001404014047
:100E60002DE9F84FDFF8B891002409F1040A0AF1DE
:100E7000040B23460F270BF1040EC9E00125A54002
:100E80002A40AA427DD1674ED1F804C0ACEB0608D7
:100E9000B44532D014DCBCF1030F3AD009DCBCF10C
:100EA000000F2AD0BCF1010F1CD0BCF1020F31D1D0
:100EB0001DE0BCF1110F17D0BCF1120F2AD119E0BF
:100EC000B8F5881F19D006DCB8F5803F15D0B8F505
:100ED000801F1FD111E0B8F5001F0ED0B8F5041F18
:100EE00018D10AE0CB6815E0CB681B1D12E0CB6877
:100EF00008330FE0CB680C330CE08B682BB1012B6F
:100F00004FF0080303D0456104E0042302E00561CB
:100F100000E00023FF2A01D8064601E000F10406A4
:100F20004FEA840501D9A5F12005D6F8008007FA1B
:100F300005FC28EA0C0803FA05F548EA0508C6F896
:100F400000804D68ED0062D5374DAE6946F0010670
:100F5000AE61AD6924F0030605F001050095334D3F
:100F600006EB050CDCF80850A607360F07FA06F862
:100F700025EA0805DFF8B880404503D14FF00008A6
:100F800017E044E0DFF8AC80404502D14FF00108A3
:100F90000FE0DFF8A480404502D14FF0020808E0DE
:100FA000DFF89880404502D14FF0030801E04FF090
:100FB000040808FA06F848EA0508CCF808804D68E5
:100FC000D9F80060ED034D4601D5164300E0964385
:100FD0002E604D68DAF80060AD03554601D5164322
:100FE00000E096432E604D68DBF80060ED025D4640
:100FF00001D5164300E096432E604D68DEF8006090
:10100000AD02754601D5164300E096432E60641C80
:101010000D682A46E5407FF431AFBDE8F88F000047
:1010200000040140000011100010024000000140C7
:1010300000080140000C0140001001400014014074
:101040000AB1016170470904FBE7000001488068AC
:1010500070470000A00100207047000070B5040038
:101060001BD094F83D00002520B984F83C50204660
:1010700000F06AFD242084F83D002068016821F01A
:101080000101016000F0ECFE4D4A6168914201D817
:101090004C4900E04C49884201D2012070BD4B49C7
:1010A0002368B0FBF1F15E6826F03F060E435E60F8
:1010B0006368934206D94FF4967359434FF47A7399
:1010C000B1FBF3F12368491C1E6A26F03F06314349
:1010D00019626168914210D84900401EB0FBF1F2DC
:1010E000521CC2F30B02042A01D2042022E0B0FBFE
:1010F000F1F0401CC0F30B001CE0A368F3B301EB5C
:10110000C10202EB0116421EB2FBF6F2521C42F47F
:101110008042120549D093B301EBC10202EB0111E9
:10112000401EB0FBF1F0401CC0F30B0040F48040C7
:1011300040F400402168CA694CF6FF739A4310439B
:10114000C861D4E90701084321680A6822F0C00297
:1011500010430860D4E9030101432068826848F223
:10116000FF339A4311438160D4E9050108432168A4
:10117000CA6822F0FF021043C86001E00EE016E0EA
:101180002068016841F0010101602564202084F895
:101190003D00256384F83E50002070BD01EB410600
:1011A000421EB2FBF6F2521CB3E70120C2E701EB8C
:1011B0004101401EB0FBF1F0401CC0F30B00B7E74B
:1011C000A086010080841E0000093D0040420F00FF
:1011D0002DE9FF4F81B089460446FFF737FF0546EA
:1011E00094F83D004FF0010820287AD119230122FC
:1011F0004B492046009501F07FFF002871D194F8FB
:101200003C0001286DD0012084F83C002068016872
:10121000C90703D1016841F001010160206801683C
:1012200021F400610160242084F83D00002626643A
:101230003C48E0624FF0011B20272068016841F420
:10124000807101600095002259462046049B01F000
:1012500053FF002856D1216809F0FE000861FFF70E
:10126000F5FE2168054648694969C0F34000C1F3AD
:1012700080214FF0A00A0FE0FFF7E8FE411B049821
:10128000814200D808B984F83DA0216848694969BD
:10129000C0F34000C1F3802194F83D20A02A02D081
:1012A00008B90029E8D084F83D7020684169C94335
:1012B000890717D4016841F4007101602068416911
:1012C00080691923012216492046009501F014FF78
:1012D000C0B984F83D7084F83C60002005B0BDE8DA
:1012E000F08F1BE0016841F40071016021686FF428
:1012F000806048611923012209492046009501F0C8
:10130000FBFE08B10120E9E7039808F101088045D8
:1013100093D384F83D7084F83C60F3E70220DDE766
:10132000020010000000FFFF704700002DE9F84F99
:101330001F4690468A460446DDF82890FFF786FE51
:10134000054694F83D00202879D1192301227749D8
:101350002046009501F0D0FE0028F5D194F83C001D
:1013600001286CD0012084F83C0020680168C9077E
:1013700003D1016841F0010101602068016821F496
:1013800000610160222084F83D00102084F83E00B6
:1013900000262664C4F824806785608D2085644813
:1013A000E0622B464A465146204601F012FD0028D5
:1013B0007ED1208D5F4F68B1012814D002282068AB
:1013C00001681ED041F48061016020684169806934
:1013D00000909DE02068416981690091016841F4B5
:1013E0000071016094E02068016821F4806101606F
:1013F00072B62068416981690091016841F4007109
:101400000AE041F40061016072B6206841698169B7
:101410000091016821F48061016062B678E00328E0
:1014200050D801280CD002284B464FF00002394614
:10143000204600950FD001F05FFEC8BB10E073E0BE
:101440002A464946204601F0D6FE88BB206800693E
:10145000616A087053E001F04FFE48BB72B61AE0B3
:101460002068016821F48061016072B6206800691B
:10147000616A0870606A401C6062208D401E208591
:10148000608D401E60854B460022394620460095FF
:1014900001F032FE60B92068016841F4007101601A
:1014A00020680069616A0870606A401C606200E040
:1014B0000EE0218D491E2185618D491E618562B630
:1014C00021681AE02A464946204601F094FE10B1F0
:1014D0000120BDE8F88F20680069616A0870606AC1
:1014E000401C6062218D491E2185618D491E6185E8
:1014F00021684A69D24352070AD409690170606AB7
:10150000401C6062208D401E2085608D401E6085DD
:10151000208D002883D1202084F83D0084F83E608F
:1015200084F83C600020D4E70220D2E702001000DB
:101530000000FFFF040001002DE9F84F1F46904610
:101540008A460446DDF82890FFF780FD054694F8AA
:101550003D0020287FD119230122404920460095D3
:1015600001F0CAFD002876D194F83C00012872D021
:10157000012084F83C0020680168C90703D1016894
:1015800041F0010101602068016821F400610160FF
:10159000212084F83D00102084F83E0000262664B7
:1015A000C4F824806785608D20852D48E0622B4635
:1015B0004A465146204601F077FC90B920684169BF
:1015C0008069009036E02A464946204601F046FEF2
:1015D00050B1206C042804D12068016841F40071E6
:1015E00001600120BDE8F88F606A21680078086119
:1015F000606A401C6062618D491E6185218D491EB3
:1016000089B2218522685369DB435B070BD451B152
:1016100000781061606A401C6062608D401E6085C9
:10162000208D401E20852A464946204601F03EFD79
:101630000028CED1208D0028C5D154F83D0B01687B
:1016400041F400710160202004F81E09E6776677F6
:101650000020C7E7FFE70220C4E7000002001000F7
:101660000000FFFF0149012048707047180000206A
:101670002DE9FF4F83B09A46DDE911979346044662
:10168000DDF84080FFF7E2FC054694F83D00202895
:101690006FD1192301227B492046009501F02CFDD2
:1016A0000028F5D194F83C00012862D0012084F88C
:1016B0003C0020680168C90703D1016841F00101BD
:1016C00001602168086820F400600860222084F826
:1016D0003D00402084F83E0000262664C4F82480A3
:1016E000A4F82A90608D20856748E062CDE90075F6
:1016F00053465A462046049901F01AFC00287DD131
:10170000208DDFF8888168B1012814D0022820D00C
:101710002068016841F48061016020684169806946
:101720000090A0E02068416981690091016841F45E
:101730000071016097E02068016821F48061016018
:1017400072B62068416981690091016841F40071B5
:101750000CE02168086840F40060086072B62068F8
:10176000416981690091016821F48061016062B67C
:1017700079E084E003284FD801280BD002283B46AB
:101780004FF000024146204600950ED001F0B4FC17
:10179000A0BB0FE02A463946204601F02CFD68BB6D
:1017A00020680069616A087054E001F0A5FC28BB5C
:1017B00072B61AE02068016821F48061016072B697
:1017C00020680069616A0870606A401C6062208D50
:1017D000401E2085608D401E60853B4600224146AC
:1017E0002046009501F088FC40B92068016841F46A
:1017F0000071016020680069616A00E012E0087011
:10180000606A401C6062218D491E2185618D491EE0
:10181000618562B621681BE02A463946204601F000
:10182000EAFC18B1012007B0BDE8F08F206800691C
:10183000616A0870606A401C6062218D491E2185C2
:10184000618D491E618521684A69D24352070AD4D5
:1018500009690170606A401C6062208D401E20850D
:10186000608D401E6085208D002883D1202084F863
:101870003D0084F83E6084F83C600020D3E70220FD
:10188000D1E70000020010000000FFFF040001008B
:101890002DE9FF4F83B09A46DDE910989346044640
:1018A000FFF7D4FB00250646009594F83D0020285C
:1018B0007DD1554846F2A81120270068B0FBF1F011
:1018C00000EBC00101EB001000900098401E00905A
:1018D00010D020688069C0438007F6D594F83C009A
:1018E000012864D0012084F83C0020680168C90701
:1018F0000AD00DE044F8305F6773A573206940F0AB
:101900002000206125736BE0016841F00101016056
:101910002068016821F400610160222084F83D0004
:10192000402084F83E002564C4F82490A4F82A805E
:10193000608D20853548E062208D4FF02308B8B3D4
:10194000A16B33488862A16B32480863A06BC56203
:10195000A06B45632168238D1031626AA06BFFF78D
:1019600039FA58B184F83D7084F83E5054F8400F6D
:1019700040F0100044F80409257031E0CDE90086FC
:1019800053465A462046049901F0D2FA40BB208DB6
:101990000128206816D0416841F4805141602068D8
:1019A00041698169009184F83C50416801E029E077
:1019B0000DE041F4807141602068416841F40061AC
:1019C00041601DE0016821F480610160E7E7CDE935
:1019D000008653465A462046049901F0A9FA18B1E8
:1019E000012007B0BDE8F08F20684169816900914E
:1019F000016841F40071016084F83D7084F83C5046
:101A00000020EEE70220ECE7AC0100200000FFFF21
:101A10009F2C00086D2C00082DE9FF4F83B09A46DB
:101A2000DDE9119793460446DDF84080FFF70EFB91
:101A3000054694F83D0020287FD119230122404912
:101A40002046009501F058FB002876D194F83C0020
:101A5000012872D0012084F83C0020680168C90781
:101A600003D1016841F0010101602068016821F49F
:101A700000610160212084F83D00402084F83E0090
:101A800000262664C4F82480A4F82A90608D20855E
:101A90002C48E062CDE9007553465A462046049929
:101AA00001F0BAFA70B930E02A463946204601F012
:101AB000D5FB58B1206C042804D12068016841F49A
:101AC00000710160012007B0BDE8F08F606A2168F5
:101AD00000780861606A401C6062218D491E89B2ED
:101AE0002185628D521E628522685369DB435B0744
:101AF0000BD469B100781061606A401C6062208D6F
:101B0000401E2085608D401E6085208D0028CBD131
:101B10002A463946204601F0C9FA0028CAD154F8AD
:101B20003D0B016841F400710160202004F81E099A
:101B3000E67766770020C6E7FFE70220C3E70000EC
:101B4000020010000000FFFFF0B585B0002406463B
:101B5000009401940294039400682349884240D180
:101B6000224DA86940F00800A861A869694600F004
:101B700008000490C02000901220019003200390E0
:101B80001B48FFF76DF9E86940F40010E861E86967
:101B9000194D00F4001004901648C5E90004802790
:101BA000C5E902472C616C61AC612846EC61FFF726
:101BB000E3F808B1FFF734F8B5636E620D480F4DD6
:101BC000143801C5102091C50C4845F810496C61C6
:101BD000AC61EC61FFF7D0F808B1FFF721F875634D
:101BE0006E6205B0F0BD00000054004000100240DD
:101BF000000C0140800002405405002098050020A0
:101C000070477047024881680278114481607047CC
:101C1000A0010020074810B5016841F010010160E3
:101C2000032000F075F8002000F006F800F024F81A
:101C3000002010BD0020024070B50D4D04464FF449
:101C40007A712878B1FBF0F00A490968B1FBF0F02D
:101C500000F064FB48B9102C07D200222146501E28
:101C600000F036F800206C6070BD012070BD0000EF
:101C7000A0010020AC0100200C4808B5816941F0AA
:101C800001018161816901F001010091C16941F0A7
:101C90008051C161C06900F08050009004484168E3
:101CA00021F0E06141F00071416008BD0010024088
:101CB00000000140002809DB00F01F0201219140D3
:101CC0004009800000F1E020C0F8001170470000DA
:101CD000F0B40E4B1B680C46C3F30223C3F1070597
:101CE000042D00D90425191D072901D2002300E085
:101CF000DB1E012606FA05F1491E214099409E404F
:101D0000761E16403143F0BC02F0CDBA0CED00E077
:101D1000064900F0070208684FF6FF03184040EA42
:101D20000220034A10430860704700000CED00E0F9
:101D30000000FA052DE9F0470F46050061D0434E3B
:101D4000306800F00700B84209D2306820F0070080
:101D500038433060306800F00700B84251D128683D
:101D60003B4C810712D5400703D5606840F4E06022
:101D700060602878000703D5606840F460506060B8
:101D80006068A96820F0F000084360602878C00708
:101D900028D06868012810D02168022810D089074F
:101DA00000292EDA616821F0030101436160FFF729
:101DB0004DF9804641F288390DE021688903EFE74B
:101DC0008901EDE7FFF742F9A0EB0801494502D987
:101DD0000320BDE8F0876068696800F00C00B0EB94
:101DE000810FEFD1306800F00700B8420BD930689E
:101DF00020F0070038433060306800F00700B84238
:101E000001D00120E5E72878400705D56068E9683A
:101E100020F4E060084360602878000706D5606819
:101E2000296920F4605040EAC100606000F038F891
:101E30006168084AC1F30311515CC8400649086053
:101E400006480068FFF7F8FE0020C2E700200240C5
:101E500000100240686B0008AC010020A4010020C3
:101E60000448054900684968044AC1F30221515CED
:101E7000C8407047AC01002000100240786B000899
:101E80000448054900684968044AC1F3C221515C0D
:101E9000C8407047AC01002000100240786B000879
:101EA00012A185B00FC98DE80F0014A0144A006874
:101EB00004905168134801F00C03042B10D0082B38
:101EC0000ED1C1F38343C9031DF803000AD551683D
:101ED00004AAC1F34041515C0A4A5043B0FBF1F0FF
:101EE00005B0704708494843FAE7000002030405BB
:101EF000060708090A0B0C0D0E0F10100102000056
:101F00000010024000127A0000093D002DE9F84F50
:101F1000040070D02078C04DC00749D06868C0F375
:101F20008100012807D06868C0F38100022809D128
:101F30006868C00306D52868800339D56068002822
:101F4000E7D035E06068B0F5803F0BD010B1B0F558
:101F5000A02F11D0286820F480302860286820F451
:101F6000802002E0286840F480302860606890B1EA
:101F7000FFF76CF806460AE0286840F480202860E5
:101F8000F0E700BFFFF762F8801B642873D8286869
:101F90008003F7D50CE0FFF759F8064605E000BFCF
:101FA000FFF754F8801B6428F0D828688003F7D422
:101FB00020789A4E80074FF001094FF0000839D57C
:101FC000686810F00C0F07D06868C0F38100022821
:101FD00009D16868C00306D42868800714D5206931
:101FE000012808D110E02069B0B1C6F80090FFF7D1
:101FF0002DF8074605E00AE1FFF728F8C01B022884
:10200000C4D828688007F7D52868616920F0F800EF
:1020100040EAC10028600DE0C6F80080FFF716F81E
:10202000074604E0FFF712F8C01B022823D82868EF
:102030008007F7D4207800072CD57948A169D9B159
:10204000C0F80090FFF702F8074604E0FEF7FEFF35
:10205000C01B02280FD8686A8007F7D571484FF473
:10206000FA510068B0FBF1F0009000BF0098411EEB
:102070000091FAD20EE080E0C0F80080FEF7E6FFA3
:10208000074604E0FEF7E2FFC01B022875D8686A25
:102090008007F7D42078400760D5E8690027C000A2
:1020A00008D4E86940F08050E861E869012700F051
:1020B000805000905C480168C90513D401688346CC
:1020C00041F480710160FEF7C1FF824606E000BF67
:1020D000FEF7BCFFA0EB0A0064284ED8DBF8000036
:1020E000C005F5D5E06801280AD008B1052813D04D
:1020F000286A20F001002862286A20F0040002E02B
:10210000286A40F001002862E06841F2883B98B1FB
:10211000FEF79CFF82460BE0286A40F0040028622C
:10212000EEE700BFFEF792FFA0EB0A0159455AD82F
:10213000286A8007F6D50CE0FEF788FF824605E0A6
:10214000FEF784FFA0EB0A0159454CD8286A8007A6
:10215000F6D41FB1E86920F08050E861E06988B3E7
:102160006968C1F38101022944D00228C6F8608061
:1021700004D0FEF76BFF044638E034E0FEF766FF5C
:10218000074604E0FEF762FFC01B02282BD8286830
:102190008001F7D4206AB0F5803F05D16868A16856
:1021A00020F4003008436860D4E9080108436968F6
:1021B00021F4741108436860C6F86090FEF746FF8A
:1021C000044606E025E000BFFEF740FF001B0228A2
:1021D00009D828688001F7D51BE000BFFEF736FF5D
:1021E000001B022802D90320BDE8F88F286880016F
:1021F000F4D40EE00128F7D06868226A00F4803138
:10220000914204D1616A00F47010884201D001202B
:10221000EAE70020E8E70000001002400000424228
:1022200080044242AC0100200070004070B5040000
:1022300005D00025A56294F8510010B106E00120F8
:1022400070BD84F85050204600F02EF8022084F82B
:1022500051002068016821F040010160D4E90101CA
:102260000843D4E903121143084361690843218BF1
:1022700001F400710843E1690843216A0843A16A37
:10228000084321680860A069042101EA1040216820
:1022900048602068C16921F40061C1616565012061
:1022A00084F85100002070BD30B585B00024009442
:1022B00001940294039400681549884225D1154879
:1022C000C16941F48041C161C16901F48041049157
:1022D000816941F00801816180690F4D00F00800BB
:1022E00004904FF4204000900220019003200390BE
:1022F00069462846FEF7B4FD4FF48040CDE900045E
:10230000694628460294FEF7ABFD05B030BD0000DB
:102310000038004000100240000C014010B5401E83
:10232000B0F1807F01D3012010BD4FF0E024606147
:102330000F21601701F0B7FF0020A0610720206186
:10234000002010BD7047704770B590F83C20012AFE
:1023500019D0012400F83C4F0222427050F83C3C56
:102360005A689D6822F070060A684968324325F071
:10237000800529435A6050F83C2C9160447000213C
:102380000170084670BD022070BD10B5040003D076
:1023900094F83D0010B107E0012010BD002084F842
:1023A0003C00204600F00CF8022084F83D00211D7E
:1023B000206801F04DFD012084F83D00002010BD93
:1023C00000B585B000210091019102910391184A56
:1023D0000168184891421FD1816941F4006181610F
:1023E000816901F400610491816941F00401816116
:1023F0008069694600F004000490901500900E4832
:10240000FEF72EFD002211461B20FFF761FC1B206A
:10241000FFF750FC05B000BD084A9142FAD1C169EE
:1024200041F00201C161C06900F002000490F1E7CF
:10243000002C014000100240000801400004004050
:1024400070B5044690F83C00012817D0012584F8A7
:102450003C50022084F83D002068826822F0770218
:1024600022F47F4282600868502830D00DDC20289A
:102470004DD005DC98B310283BD148E0022070BD58
:10248000302844D0402834D139E0602828D0702842
:1024900006D0B0F5805F2CD0B0F5005F29D10AE0FE
:1024A000CB68D1E90121206801F015FD2068816821
:1024B00041F0770109E0CB68D1E90121206801F002
:1024C0000AFD2068816841F48041816011E0CA689A
:1024D0004968206801F0B4FD5021206807E016E04B
:1024E000CA684968206801F0E9FD6021206801F0B0
:1024F000FCFC84F83D50002084F83C0070BDCA68A4
:102500004968206801F09CFD40212068EFE72268BF
:1025100001461046EBE770472DE9F041044690F87C
:102520003C000D4601283BD0012684F83C60022087
:1025300084F83D009AB3042A44D02068082A53D076
:10254000D5E90027E968036A23F480530362D0F8D1
:102550001CC0036A2CF4407C4CEA07274FF6FF7C32
:1025600027F470470CEA01313943770323F4005311
:1025700007EA02321A43C16102622068C16921F48C
:102580004061C1612068C169AA6841EA0221C16154
:1025900084F83D60002084F83C00BDE8F08101E053
:1025A0000220FAE7D5E90012EB68206801F05AFD35
:1025B0002068816921F00C01816120688169AA6825
:1025C00011430FE0D5E90012EB68206801F088FDA7
:1025D0002068816921F44061816120688169AA686D
:1025E00041EA02218161D3E7D5E9002C2F7B016A02
:1025F00021F480710162C169036A21F0030141EA9B
:102600000C0121F0F00C39074FF400774CEA11610E
:1026100023F4007307EA02221A43C16102622068B0
:10262000C16921F00C01C1612068C169AA68114328
:10263000ADE710B5040003D094F83D0010B107E0F9
:10264000012010BD002084F83C00204600F00CF86A
:10265000022084F83D00211D206801F0F9FB0120D3
:1026600084F83D00002010BD704710B50268044694
:1026700031B1042908D008291AD00C2908D11BE04F
:10268000D06840F0020002E0D06840F00400D06062
:102690000122206801F012FC2068816801F0070126
:1026A000062903D0016841F001010160002010BD3E
:1026B000D06840F00800EAE7D06840F01000E6E794
:1026C00070B50446006801694FF00005C9438907E9
:1026D00015D4C168C943890711D4E91E01610120DD
:1026E0002077206880698007204602D0FFF713FF1B
:1026F00004E000F0D1F8204600F08AF92577206840
:102700000169C943490717D4C168C943490713D4AC
:102710006FF004010161022020772068806910F4C5
:10272000407F204602D0FFF7F6FE04E000F0B4F848
:10273000204600F06DF9257720680169C943090733
:1027400016D4C168C943090712D46FF008010161AA
:10275000042020772068C0698007204602D0FFF758
:10276000DAFE04E000F098F8204600F051F92577F1
:1027700020680169C943C90617D4C168C943C9069D
:1027800013D46FF010010161082020772068C06920
:1027900010F4407F204602D0FFF7BDFE04E000F0B9
:1027A0007BF8204600F034F9257720680169C94399
:1027B000C90708D1C168C943C90704D1891E01618D
:1027C000204600F043F920680169C943090609D48D
:1027D000C168C943090605D46FF080010161204634
:1027E000FFF7B0FD20680169C943490609D4C168F3
:1027F000C943490605D46FF040010161204600F04D
:102800002BF920680169C94389060BD4C168C94303
:10281000890607D46FF0200101612046BDE87040B1
:10282000FFF791BD70BD000010B586B0002100918A
:1028300001910291039100681349884221D1134804
:10284000816941F004018161816901F00401049111
:10285000816941F0080181618069022400F008006B
:102860000490C020CDE90004694609480394FEF7AE
:10287000F7FA0320CDE90004694606480394FEF701
:10288000EFFA06B010BD0000000400400010024046
:1028900000080140000C0140704770B50D4604006F
:1028A00003D094F83D0010B107E0012070BD002076
:1028B00084F83C00204600F015F8022084F83D0022
:1028C000211D206801F0C4FA2068016821F0080188
:1028D00001602068016829430160012084F83D00FF
:1028E000002070BD08B50068B0F1804F08D10548E0
:1028F000C16941F00101C161C06900F001000090AF
:1029000008BD00000010024070B5044690F83C007D
:102910000D4601280DD0012684F83C60022084F881
:102920003D0042B1042A18D0082A2AD00C2A4DD1E1
:1029300039E0022070BD206801F0E0FA206881696A
:1029400041F0080181612068816921F00401816101
:10295000206881692A69114311E0206801F0F6FAC4
:102960002068816941F4006181612068816921F4F6
:1029700080618161206881692A6941EA022181615F
:1029800024E0206801F00EFB2068C16941F00801D5
:10299000C1612068C16921F00401C1612068C16979
:1029A0002A69114311E0206801F028FB2068C16901
:1029B00041F40061C1612068C16921F48061C16195
:1029C0002068C1692A6941EA0221C16184F83D6039
:1029D000002084F83C0070BD10B5040003D094F8CA
:1029E0003D0010B107E0012010BD002084F83C003C
:1029F000204600F00CF8022084F83D00211D2068DC
:102A000001F026FA012084F83D00002010BD704737
:102A10007047000010B504460068012201F04EFA2C
:102A200009492068884203D1416C41F40041416466
:102A30002068816801F00701062903D0016841F090
:102A400001010160002010BD002C0140014901205E
:102A5000C870704718000020704770B5040004D09B
:102A600094F83900002510B106E0012070BD84F80B
:102A70003850204600F022F8242084F839002068DD
:102A8000C16821F40051C160204601F045FB206877
:102A9000016921F4904101612068416921F02A0116
:102AA00041612068C16841F40051C160E5632020A4
:102AB00084F8390084F83A00002070BDF0B585B084
:102AC000002400940194029403940368324F02207E
:102AD00032490322324D4602BB421AD18B6943F47C
:102AE00080438B618B6903F4804304938B6943F0CB
:102AF00004038B618969039201F0040104910102CE
:102B0000CDE9001069462846FEF7AAF9CDE9006430
:102B10001CE0244FBB4220D1CB6943F40033CB618E
:102B2000CB6903F4003304938B6943F004038B6196
:102B30008969039201F0040104910421CDE9001098
:102B400069462846FEF78CF9082022E069462846A7
:102B50000294FEF785F905B0F0BD134DAB42FAD1F2
:102B6000CB6943F48023CB61CB6903F480230493C6
:102B70008B6943F008038B6189690C4D01F00801F2
:102B8000CDE90321CDE9006069462846FEF768F9E2
:102B9000E814CDE90004D9E70038014000100240F4
:102BA000000801400044004000480040000C014083
:102BB0002DE9F843044690F839001F4616460D46A5
:102BC000202850D1A5B19EB194F8380001284AD0F0
:102BD000012084F838004FF00008C4F83C80212020
:102BE00084F83900FEF732FAA6848146E68426E0AE
:102BF0000120BDE8F883E08C401EE084A0684B46CD
:102C0000B0F5805F4FF000024FF080012046009742
:102C100003D001F0DDFAE8B90DE001F0D9FAC8B946
:102C200028882168C0F308004860206908B16D1C3D
:102C300005E0AD1C03E0216815F8010B4860E08C4D
:102C40000028D8D14B46002240212046009701F0B1
:102C5000BFFA08B10320CCE7202084F8390084F8BB
:102C600038800020C5E70220C3E7FEE710B5406AC0
:102C70000021426B9162826B91620268136823F4B7
:102C8000806313604185202280F83D2080F83E104B
:102C9000016C41F010010164FEF7DEF910BD2DE971
:102CA000F041446A94F83D2094F83E60E16A20685F
:102CB000436823F440734360636B00204FF02205A8
:102CC0009862A36B9862212333EA02070CD035EA9D
:102CD000020701D1202E07D094F83E20002A21D0EF
:102CE000628D012A20D024E021684E6826F4006617
:102CF0004E6060852820292A02D02A2A07D00CE0BD
:102D0000236384F83D002046FEF77BFF05E0256342
:102D100084F83D002046FEF773FF2068416841F4C7
:102D200040714160BDE8F0812268136823F480633C
:102D300013602268536823F44073536011F5803F99
:102D400006D0082904D0B1F12A4F01D0202904D19E
:102D500021680A6842F400720A6021684A6822F415
:102D600080524A6021684A6822F400624A606085A5
:102D7000216C19B12046FEF76FF9D3E7202184F8C2
:102D80003D1094F83E1084F83E00402905D01220F2
:102D900020632046FEF7C8FAC4E720632046FEF70A
:102DA00061FCBFE701684A69D24352050FD46FF452
:102DB00080624A61002140F8301F202242738173F3
:102DC000026942F004020261017301207047002091
:102DD00070472DE9F84F0446C06A1E4692460D46DC
:102DE00021680A6842F480620A60082807D0012836
:102DF00005D010F5803F02D0206B112804D1206847
:102E0000016841F4807101604FF0011853460022BF
:102E100041462046009600F06FF9F0BB206908F1AA
:102E20000109B0F5804F0FD00620216800EAD517C0
:102E300047F0F00008613346524608F1070120468A
:102E400000F08EF948BB03E0E8B240F001001BE05F
:102E50002168E8B20861334652464946204600F0F0
:102E60007FF9D0B92068416981690091016841F416
:102E7000807101605346002241462046009600F0D2
:102E80003BF950B947F0F1002168086133465246DA
:102E90004946204600F064F900E001E0002800D037
:102EA0000120BDE8F88F0000F8B50446C06A1E4650
:102EB0000D461746082807D0012805D010F5803F99
:102EC00002D0206B122804D12068016841F480717F
:102ED0000160134600224FF001112046009600F0D9
:102EE0000BF908BB2069B0F5804F0ED00620216891
:102EF00000EAD51040F0F000086133463A460B492D
:102F0000204600F02DF978B902E005F0FE0000E05F
:102F1000E8B221680861054933463A46891F2046D0
:102F200000F01EF9002800D00120F8BD08000100C3
:102F30002DE9F84F0446006889460B9D01689846C4
:102F4000174641F4806101602068016841F4807196
:102F5000016000954FF0011A0022514620460A9B5D
:102F600000F0CAF8002853D1216809F0FE0008617A
:102F70000AF1010B2B46594620460A9A00F0F0F858
:102F8000F0BB20684169806900902A4620460A9972
:102F900000F064F940B1206C042839D12068016840
:102FA00041F40071016033E0FEB2B8F1010F09D0C5
:102FB0002168380A08612A4620460A9900F04EF92D
:102FC0000028E8D1206806612A4620460A9900F0C8
:102FD00045F90028DFD12068016841F48071016063
:102FE00000950022514620460A9B00F085F838B92A
:102FF000216809F0FF0040F0010008612B4600E065
:1030000006E0594620460A9A00F0AAF8002800D0A7
:103010000120BDE8F88F00002DE9F8430446006860
:103020000D46DDE9089701689846164641F480711F
:1030300001604B4600224FF001112046009700F03E
:103040005BF8E0B9216805F0FE0008613B464A469E
:103050001549204600F084F888B9206841698069E4
:1030600000903A464946204600F0F8F850B1206CEE
:10307000042804D12068016841F400710160012036
:10308000BDE8F883F5B2B8F1010F09D02168300A24
:1030900008613A464946204600F0E0F80028E6D1AB
:1030A000206805610020EBE70200010070B51646BC
:1030B0000D4604460DE02046FFF774FE08B10120DE
:1030C00070BD681C05D0FDF7C1FF801BA84207D862
:1030D00035B120684069C0434007ECD4002070BD82
:1030E000002044F8300F20216173A073216941F062
:1030F000200121612073E2E72DE9F0471E4690464A
:103100000D460446C1F30747DDF8209008E0701C27
:1031100006D0FDF79BFFA0EB0900B0420FD876B1B7
:103120002068012F18D0806925EA00000004000CF7
:1031300014D000214145EAD00020BDE8F0870020EE
:1031400044F8300F20216173A073216941F0200100
:10315000216120730120F0E74069E5E70121E9E7FB
:103160002DE9F0479A4691460E46044600254FF059
:103170002008C1F3074725E020684069C0434005A7
:1031800014D42068016841F40071016021686FF473
:1031900080604861256384F83D8084F83E50206C4F
:1031A00040F00400206484F83C501FE0B9F1FF3F78
:1031B00008D0FDF74BFFA0EB0A0149450CD8B9F147
:1031C000000F09D02068012F13D0806926EA000083
:1031D0000004000C0BD0CFE744F8305F84F80D807A
:1031E000A573206940F02000206125730120BDE80F
:1031F000F0874069EAE72DE9F041002590460E4648
:103200000446202717E04069C043C0060CD454F898
:10321000301B6FF01000486144F810596777A577AC
:10322000206A2062257717E0FDF710FFA0EB080069
:10323000B04208D83EB120684169C9434906E2D48A
:103240000020BDE8F08144F8305F6773A573206902
:1032500040F02000206125730120F2E770B516468A
:103260000D4604460DE02046FFF79CFD08B1012005
:1032700070BD681C05D0FDF7E9FE801BA84207D889
:1032800035B120684069C0430006ECD4002070BD11
:10329000002044F8300F20216173A073216941F0B0
:1032A000200121612073E2E770B50C4664230A22F5
:1032B000D021FDF78DFF0600A078617840EAC110AB
:1032C000C2B2E07862F3070560F30F2520796179D7
:1032D0004FEAC01040EA8110A17940EA4110E1793B
:1032E00040EA0110217A40EA010060F3174506D058
:1032F000217832461AA000F09FFF304670BD20783A
:10330000052300EB40002530C1B2682002F0B0F97F
:1033100006462078C5F3072200EB40002630C1B2F4
:103320000523682002F0A4F906432078C5F307427C
:1033300000EB40002730C1B20523682002F098F965
:10334000217850EA060506D02B460A4610A000F068
:1033500073FF284670BD1AA000F06EFF002070BDFC
:103360000A536C6176652025692073657475703A1F
:10337000204572726F72206174206D707520636FCA
:103380006E6E656374696F6E3A2025690A000000ED
:103390000A536C6176652025692073657475703AEF
:1033A000204572726F7220617420736C61766520A3
:1033B00025692073657475703A2025690A0000003C
:1033C000536C617665202569207365747570207370
:1033D00075636365737366756C210A002DE9F041AE
:1033E00086B00024314800940194029403948169CA
:1033F00041F010018161816901F01001049181693E
:1034000041F020018161816901F02001049181690D
:1034100041F004018161816901F004010491816935
:1034200041F0080181618069214F00F008004FF4EC
:1034300000550490002229463846FDF701FEDFF8CA
:103440007480002230214046FDF7FAFD00950226E7
:1034500001250396CDE9015469463846FDF700FD84
:103460004FF4847000901448CDE901046946404649
:10347000FDF7F6FC3020CDE90005CDE902466946AE
:103480004046FDF7EDFC002211460920FEF720FC26
:103490000920FEF70FFC002211461720FEF718FC4A
:1034A0001720FEF707FC06B0BDE8F08100100240CF
:1034B00000100140000C0140000011100E4810B532
:1034C0000C4901604FF48271416000218160C1604C
:1034D0004FF400720161C0E905120822C0E907211A
:1034E000416281620A21C162FEF7A0FE002800D07D
:1034F000FEE710BD003800400C02002010B58AB075
:10350000002421480494059406940794089409948F
:103510000094019402941B49039401604721C0E97F
:1035200001144FF6FF71C0E9031444618461FEF792
:103530002CFF00B1FEE74FF48050049004A912481C
:10354000FEF77EFF00B1FEE70F48FFF772F800B10B
:10355000FEE7089408A90C480994FEF7F5FE00B1AF
:10356000FEE70120CDE900400F20CDE90240002216
:1035700069460548FEF7D0FF002800D0FEE70AB0F4
:1035800010BD0000002C01406402002010B58EB078
:1035900000240794089409940A940B941C2168460B
:1035A0000C94FCF707FE2648244901600321C0E97A
:1035B000011448F60451C0E903148461FEF7E5FEE6
:1035C00000B1FEE74FF48050079007A91C48FEF7B2
:1035D00037FF00B1FEE71A48FFF7FEF900B1FEE73A
:1035E0000B940BA916480C94FEF7AEFE00B1FEE753
:1035F0006020CDE90004029400226946104804943A
:10360000FFF782F900B1FEE7042269460C48FFF794
:103610007BF900B1FEE7082269460948FFF774F913
:1036200000B1FEE70C2269460548FFF76DF900B1CD
:10363000FEE70348FFF7F8F80EB010BD00040040A5
:10364000E40200202DE9FF4FFF4C97B081469A46D7
:1036500019992069FCF711FE06461899E068FCF7F5
:103660000CFE0546A068494680F00040FCF705FEC8
:103670002946FCF7FCFD3146FCF7F9FD4FF0FF371A
:103680003946FCF76AFE804618992069FCF7F5FD7B
:1036900006461999E068FCF7F0FD61680546484662
:1036A000FCF7EBFD2946FCF790FD3146FCF7DFFD0A
:1036B0003946FCF752FE216906464846FCF7DDFD17
:1036C00083461999A068FCF7D8FD054618996068EB
:1036D000FCF7D3FD2946FCF7CAFD5946FCF775FDFA
:1036E0003946FCF73AFEE16805464846FCF7C5FD59
:1036F00083461899A068FCF7C0FD81461999606857
:10370000FCF7BBFD4946FCF760FD5946FCF7AFFDF1
:103710003946FCF722FE07461AF0FF4F07D12498DE
:1037200010F0FF4F03D1259810F0FF4F7ED0259960
:103730000846FCF7A2FD249983460846FCF79DFD48
:10374000814651460846FCF798FD4946FCF73DFD89
:103750005946FCF73AFD01F0EFFF8146014650461D
:10376000FCF78BFD1A9049462498FCF786FD2490BF
:1037700049462598FCF781FD834601216068FCF7E6
:10378000ECFD14900121A068FCF7E7FD12900121E7
:10379000E068FCF7E2FD139001212069FCF7DDFDF4
:1037A000159002216068FCF7D8FD02900221A06804
:1037B000FCF7D3FD05900221E068FCF7CEFD0490F4
:1037C0000321A068FCF7C9FD03900321E068FCF722
:1037D000C4FD0C9061686068FCF74FFD1090A16813
:1037E000A068FCF74AFD0190E168E068FCF745FD40
:1037F000009021692069FCF740FD099024991298F6
:10380000FCF73BFD0D90DDE90110FCF736FD82462B
:103810001A991398FCF731FD814600990298FCF73C
:103820002CFD4946FCF7D1FC514600E0EEE0FCF7E8
:10383000CCFC0D99FCF71BFD029059460598FCF74E
:103840001CFD0A9000990398FCF717FD0D90019953
:103850000398FCF712FD824624991498FCF70DFD9D
:103860000E9002211098FCF778FD1690A168FCF7E5
:1038700004FD81461A991598FCF7FFFC11900999EF
:103880000598FCF7FAFC1199FCF7F1FC4946FCF7A6
:103890009CFC0E99FCF7EBFC0599FCF7E8FC514603
:1038A000FCF793FC0D99FCF790FC0A99FCF78DFC52
:1038B000824659460498FCF7E0FC814600990C9832
:1038C000FCF7DBFC0A9001990C98FCF7D6FC0C90F5
:1038D00024991598FCF7D1FC0E9009990498FCF7EF
:1038E000CCFC0F901A991498FCF7C7FC83461698E5
:1038F000E168FCF7C2FC5946FCF767FC0F99FCF73E
:1039000064FC0E99FCF7B3FC0499FCF7B0FC0C992D
:10391000FCF75BFC0A99FCF758FC4946FCF755FCA0
:10392000834624991398FCF7A8FC0590022100987F
:10393000FCF713FD2169FCF7A0FC81461A99129847
:10394000FCF79BFC009002210198FCF706FD216921
:10395000FCF793FC0099FCF78AFC4946FCF735FC20
:103960000599FCF784FC81460146FCF786FC594624
:1039700005900846FCF781FC514600900846FCF78C
:103980007CFC02990A900846FCF777FC0A99FCF740
:103990001CFC0099FCF719FC0599FCF716FC01F0DA
:1039A000CBFE014600900298FCF767FC029050465F
:1039B0000099FCF762FC824658460099FCF75DFCD2
:1039C000834648460099FCF758FC814602992068D6
:1039D000FCF753FC4146FCF74DFC804651462068FD
:1039E000FCF74BFC3146FCF745FC0646594620687F
:1039F000FCF743FC2946FCF73DFC05464946206898
:103A0000FCF73BFC3946FCF735FC07460F480068DD
:103A1000FCF7E8FD0E49FCF762FC81464146FCF7E5
:103A20002CFC6168FCF7D1FB606048463146FCF72E
:103A300024FCA168FCF7C9FBA06048462946FCF7B6
:103A40001CFCE16806E00000000000206C00002083
:103A500000247449FCF7B9FBE06048463946FCF79E
:103A60000CFC2169FCF7B1FB206121692069FCF79E
:103A700004FCE1680746E068FCF7FFFBA168064626
:103A8000A068FCF7FAFB616805466068FCF7F5FB87
:103A90002946FCF79AFB3146FCF797FB3946FCF7C1
:103AA00094FB01F049FE054601466068FCF7E5FB22
:103AB00060602946A068FCF7E0FBA0602946E0684A
:103AC000FCF7DBFBE06029462069FCF7D6FB2061B0
:103AD0001BB0BDE8F08FFEE7704770472DE9F84F47
:103AE0009A4604460B46DDF828904069A0610025FF
:103AF00011461846FCF7BBFB6061D4E90801C4E934
:103B00000A0102F0C5F80021C4E90801D4E90A233A
:103B1000801A61EB0301FCF76AFD2E49FCF7DFFB1D
:103B20002063E6684FF07E5731463846FCF79FFB2E
:103B3000804639463046FCF748FB0346264A0021BA
:103B40005046CDF8008002F05BF8616907460E46EA
:103B50002068FCF792FB3946FCF78FFB074620698B
:103B600010F1814F15D03146FCF7B6FD11D2206916
:103B7000616980F00040FCF7A5FD0AD2216B606905
:103B8000FCF77BFB6168FCF778FB2946FCF71DFB23
:103B90000546B9F1000F00D00025D4E90501FCF776
:103BA00066FB266B3146FCF79AFBA168FCF765FBC8
:103BB00004463046FCF756FD02460B4607A000F0CF
:103BC0003BFB29463846FCF700FB2146BDE8F84F91
:103BD000FCF7FBBA002474490000344325660A0050
:103BE0002DE9FF5F4E4C21682068FCF746FB4D4DE8
:103BF000029029682868FCF740FB4B4E82463168EA
:103C00003068FCF73AFB494F019039683868FCF797
:103C100034FB00908AF000400199FCF728FB0099E2
:103C2000FCF7D3FA0299FCF7D0FAFCF71BFD8946A2
:103C3000216880462868FCF720FB39688346306895
:103C4000FCF71BFB5946FCF7C0FAFCF70BFD012201
:103C5000FCF7A8FC42464B4601F06AFAFCF715FD5A
:103C6000216883463068FCF708FB3968804628687D
:103C7000FCF703FB4146FCF7FAFAFCF7F3FC0022E1
:103C80004FF04043FCF71CFC01F00AF8FCF7FDFC88
:103C9000039050460199FCF7EAFA0099FCF7E7FA1D
:103CA0000299FCF792FAFCF7DDFC89462168804610
:103CB0003868FCF7E2FA316804462868FCF7DDFA58
:103CC0002146FCF782FAFCF7CDFC0122FCF76AFCE6
:103CD00042464B4601F02CFAFCF7D7FCDFF8508047
:103CE000064641465846FCF7C8FA124C054641467E
:103CF00020600398FCF7C1FA0746606041463046F1
:103D0000FCF7BBFA0146A060A4F1800285F00040F8
:103D1000C2E91D0781F00040D067BDE8FF9F0000A9
:103D200004000020080000200C00002010000020EB
:103D3000E12E65421801002070470000024801682A
:103D4000491C0160FDF75EBF8400002030B58FB0D4
:103D500028216846FCF72EFA14210AA8FCF72AFA53
:103D600001210804CDE900100024029402250491E9
:103D7000CDE907504FF4E01009906846FEF7C6F809
:103D800000B1FEE70F20CDE90A054FF48060CDE9D0
:103D90000C4002210AA80E94FDF7CCFF002800D0A9
:103DA000FEE70FB030BD00000D48016841F0010191
:103DB000016041680B4A1140416001680A4A1140A4
:103DC0000160016821F480210160416821F4FE0155
:103DD00041604FF41F0181600449C00308607047CF
:103DE000001002400000FFF8FFFFF6FE08ED00E0C3
:103DF00070B511480068416A104C00252160456289
:103E00000D48FEF75DFC01F043FF0D490860226894
:103E100040F6B8310B488A4203D905600A4805705C
:103E200070BD01680829FBD2084B43F8212001F13D
:103E30000101016070BD0000640200209C010020AF
:103E400034010020980100201B0000207404002091
:103E5000F0B50268164B174C174D4FF0804798424B
:103E600005D0B84203D0A04201D0A84203D122F02D
:103E700070064A683243984205D0B84203D0A04247
:103E800001D0A84203D122F44074CA6822434C698D
:103E900022F08002224302608A68C2620A6882625B
:103EA000984201D10969016301214161F0BD00001F
:103EB000002C0140000400400008004010B501F053
:103EC0001F030121046A99408C430462016A9A40ED
:103ED0001143016210BD10B5846842EA032224F444
:103EE0007F440A432243826010BD826822F0700240
:103EF0000A4342F0070181607047000030B5026A52
:103F000022F001020262026A4368846924F07305A8
:103F10000C682C4322F002058A682A430A4DA84205
:103F20000BD122F00805CA6823F440732A434D6977
:103F300022F004021D438B692B434360846149686E
:103F40004163026230BD0000002C014030B5026ABE
:103F500022F010020262026A436884690D6824F448
:103F6000E64444EA05248D6822F0200242EA051264
:103F70000B4DA8420ED1CD6822F0800242EA051214
:103F80004D6923F4406343EA85038D6922F04002C2
:103F900043EA85034360846149688163026230BDFE
:103FA000002C014030B5026A22F480720262036A7A
:103FB0004268C46923F4007324F073050C682C4331
:103FC0008D6843EA05230C4DA8420ED1CD6823F439
:103FD000006343EA05234D6922F4405242EA051288
:103FE0008D6923F4806342EA05124260C461496826
:103FF000C163036230BD0000002C014030B5026A8D
:1040000022F480520262046A4268C3690D6823F494
:10401000E64343EA05238D6824F4005444EA05345A
:10402000064DA84204D14D6922F4804242EA85122D
:104030004260C36149680164046230BD002C0140E4
:1040400010B5036A046A24F001040462846924F050
:10405000F00444EA021423F00A020A438461026273
:1040600010BD000070B5046A24F001040462846984
:10407000056A0F4EB04208D0B0F1804F05D00D4E0A
:10408000B04202D00C4EB04203D124F003041443DA
:1040900001E044F001041A0724F0F00444EA12623B
:1040A00025F00A0301F00A0119438261016270BD23
:1040B000002C0140000400400008004010B5036AD5
:1040C00023F0100303628369046A23F4704343EA14
:1040D000023224F0A00343EA01118261016210BDA3
:1040E00030B5046A24F0100404628469056A24F47B
:1040F000407444EA022222F470444FF6FF7202EA4E
:1041000003322243A02425F0A00304EA011119433D
:104110008261016230BD00002DE9F0410446006873
:104120000169E26821F44051114301612169A068ED
:104130000843616908432168CA6841F20C639A43E5
:104140000243CA6020684169A26921F440711143A9
:1041500041611E49206864253226884202D1FDF75C
:104160008FFE01E0FDF77CFE00EBC00101EB0011CA
:1041700060686FF018078000B1FBF0F2B2FBF5F257
:10418000B1FBF0F37A4303EB8202B1FBF0F306EBF1
:104190000212B2FBF5F2B3FBF5F302F0F00202EB10
:1041A0000312B1FBF0F3B1FBF0F0B0FBF5F0784394
:1041B00003EB800006EB0010B0FBF5F0216800F087
:1041C0000F0010448860BDE8F08100000038014015
:1041D0002DE9F041984617460E460446069D1DE01F
:1041E000681C1BD02DB1FCF731FFA0EB0800A842E2
:1041F00014D92068C16821F4D071C1602068416978
:1042000021F001014161202084F8390084F83A004E
:10421000002084F838000320BDE8F08120680068A1
:1042200036EA000004D00020B842D9D00020F3E7DD
:104230000120F9E7FEE700000FB4054B10B503A914
:10424000044A029800F094F910BC5DF814FB0000D9
:104250008D550008B0010020490050EAC12018BF68
:1042600004204A0D18BF40F0010040F2FF72B2EB8B
:10427000515F08BF40F00200012808BF05207047C9
:104280004100080218BF04200A0E18BF40F00100C8
:104290004FF07F4232EA010108BF40F002000128DE
:1042A00008BF052070470907090E002804DB00F14C
:1042B000E02080F80014704700F00F0000F1E020CB
:1042C00080F8141D70472DE9F0414F1E00EBC70127
:1042D0000446D1E9000115461E4637F006020DD00E
:1042E0002A463346FCF7ECF87F1E04EBC703D3E9FC
:1042F0000023FCF73EF837F00602F1D1022F25D05B
:10430000042F13D0062F18BFBDE8F0812A4633468C
:10431000FCF7D6F8D4E90A23FCF72BF82A463346F3
:10432000FCF7CEF8D4E90823FCF723F82A463346F5
:10433000FCF7C6F8D4E90623FCF71BF82A463346F7
:10434000FCF7BEF8D4E90423FCF713F82A463346F9
:10435000FCF7B6F8D4E90223FCF70BF82A463346FB
:10436000FCF7AEF8D4E90023BDE8F041FCF701B852
:104370000122FCF717B9FBF7FCBF002213461046D9
:104380001146FCF7AFBA0000024A00201107FCF703
:1043900009B9000001FDFFFF00214FF07E50FBF73F
:1043A0009EBFFBF712BF00210846FBF798BF6121B3
:1043B0004FF0E040FBF7D1BF6FF05E010807FBF75D
:1043C000CCBF02E008C8121F08C1002AFAD170470A
:1043D0007047002001E001C1121F002AFBD1704785
:1043E0000149086070470000B40100202DE9FF5F1B
:1043F00082B00021DDE90430020DDDF840B0034356
:1044000018D044F61050A2F2FF324243151411980E
:1044100001281FD0A5EB0B00401C5FEA000A4FF0FB
:1044200000064E4FDFF83891B046504615D5CAF118
:10443000000413E0119801244AA3012801D16FEA76
:104440000B010298119AC0E90031C0E9024206B09E
:10445000BDE8F09FCBF10000DFE704460021404AB1
:10446000491842EB0450CDE9001012E0E00707D0F4
:1044700032463B4640464946FCF722F8804689468C
:1044800032463B4610461946FCF71AF806460F46D8
:104490006410002CEAD1DDE90401DDE90023BAF162
:1044A000000F06DAFCF70CF842464B46FCF708F81A
:1044B00005E0FCF717FA42464B46FCF713FA0446B0
:1044C0000E460022284BFCF70BFB03D84FF0FF30C1
:1044D000014607E00022254B20463146FBF749FF05
:1044E000FCF7C0FA102409E0002C0ADB0A220023A2
:1044F000FCF712F9039B30321A55641E50EA010290
:10450000F2D1641C039AC4F111031444119A012AD4
:1045100003D0012208430DD10AE0084304D0002053
:104520004FF0110B119072E7A3EB0B056D1E0DE020
:104530005B4504DD4FF0000205F1010504E003DAFC
:104540004FF00002A5F10105002AECD00298119964
:10455000C0E90231C0E9004579E7000000001440DD
:104560000000F03F300000000000F0430000E03F9A
:104570002DE9FF4F95B09B468946064600250FE280
:10458000252877D100242746F84A0121059400E028
:10459000044316F8013F203B01FA03F01042F7D123
:1045A00030782A2811D06FF02F033078A0F1300234
:1045B000092A16D8059A44F0020402EB820203EBA2
:1045C00042021044761C0590EFE759F8042B05923F
:1045D000002A03DA504244F40054059044F00204E7
:1045E000761C30782E2816D116F8010F44F00404FA
:1045F0002A280DD06FF02F023078A0F13003092B5C
:1046000009D807EB870302EB4303C718761CF3E7CF
:1046100059F8047B761C30786C280FD006DC4C28C7
:1046200017D068280DD06A2814D104E0742810D05F
:104630007A280FD10DE044F400140AE044F4801409
:1046400001E044F440147278824202D104F58014EF
:10465000761C761C307866280BD013DC582877D06F
:1046600009DC002875D04528F6D04628F4D0472824
:104670001AD19DE118E0632835D0642879D06528E7
:1046800012D195E1702873D008DC6728F1D0692831
:104690006FD06E280DD06F2806D1B5E073282CD0CE
:1046A000752875D0782874D05A46179990476D1C94
:1046B00075E1C4F30250022809D003280DD0D9F8BF
:1046C000001004280DD00D6009F1040967E1D9F844
:1046D0000010EA17C1E90052F6E7D9F800100D8082
:1046E000F2E70D70F0E719F8041B8DF800100020B8
:1046F0008DF80100EA46012003E059F804AB4FF0C1
:10470000FF3061074FF0000102D40DE008F1010114
:104710008846B9420FDA8045F8DB1AF808100029FC
:10472000F4D108E008F1010188468142FADB1AF869
:1047300008100029F6D105985B46A0EB0807214632
:104740003846179A00F094FA284400EB080507E071
:104750004DE029E10DE01AF8010B5A4617999047F0
:10476000B8F10108F7D25B4621463846179A13E1A3
:1047700042E00A220092C4F302524FF0000A022AD9
:1047800008D059F804CB032A4FEAEC710AD00DE0A7
:1047900029E02AE009F1070121F00702F2E802C14D
:1047A000914609E00FFA8CFC4FEAEC71042A03D120
:1047B0004FFA8CFC4FEAEC71002907DA0A46002117
:1047C000DCF1000C61EB02012D2202E0220504D590
:1047D0002B228DF80420012203E0E20701D02022E1
:1047E000F7E7904659E00A2102E010220DE010217F
:1047F0004FF0000A00910BE010224FF0000A44F045
:1048000004040827009203E008224FF0000A0092F7
:10481000C4F30252022A05D059F804CB0021032A1E
:1048200008D009E009F1070121F00702F2E802C10E
:10483000914605E01FFA8CFC042A01D10CF0FF0C14
:104840004FF00008220728D5702806D0009B83F07F
:10485000100353EA0A0305D00EE040228DF804202D
:10486000012208E05CEA010206D030228DF8042023
:104870008DF8050002229046009B83F0080353EA5E
:104880000A030AD15CEA010201D1620705D5302290
:104890008DF804204FF001087F1E582804D034A062
:1048A00003900EA802900DE036A0F9E7534660464B
:1048B000009AFBF731FF84460398825C0298401E01
:1048C000029002705CEA0100F0D1029806A9081A71
:1048D00000F1200A600702D524F4803400E00127AB
:1048E000574502DDA7EB0A0000E0002000EB0A01BB
:1048F000009005984144401A0590E00306D45B46B9
:104900002146179A059800F0B3F90544002706E000
:1049100001A85A46C05D179990476D1C7F1C4745FA
:10492000F6DBE0030CD55B462146179A059800F0AC
:104930009FF9054404E030205A46179990476D1CB2
:104940000099481E00900029F5DC08E002980299C1
:104950005A460078491C0291179990476D1CBAF18C
:104960000001AAF1010AF1DC65E10000092801005B
:1049700030313233343536373839616263646566D5
:104980000000000030313233343536373839414297
:10499000434445460000000000F058F90544761CE9
:1049A000307800287FF4ECAD19B02846BDE8F08FD0
:1049B000620700D4062709F1070222F0070CFCE881
:1049C0000223E14603F000485FEA080C02D00FF230
:1049D000702C0DE05FEA045C02D50FF2682C07E052
:1049E0005FEAC47C02D00FF2602C01E0AFF2700CE1
:1049F0004FF0FF3823F00043CDF850C065280CD0AD
:104A000006DC452809D046281DD047283DD13DE089
:104A1000662818D067287ED138E00021112F01DBED
:104A2000112000E0781CCDE9000106A90EA8FFF7CF
:104A3000DDFCDDE90F010E9A03910021009207F1E0
:104A4000010A04914DE04FF000400097CDE90110BC
:104A500006A90EA8FFF7CAFCDDE90F0203920E9B20
:104A600011990022DDF80CA00093049211B9791C71
:104A700000EB010AB7EB0A0004D4C0F1FF3007F1E4
:104A8000010A0490AAEB0700019044E0012F00DA2C
:104A900001270021112F01DD112000E03846CDE96A
:104AA000000106A90EA8FFF7A1FCDDE90F010E9A8F
:104AB0000391002104910092BA4621070CD4039976
:104AC000514500DA8A46BAF1010F05DD009AAAF1D4
:104AD0000101515C302908D0B84202DA10F1040F0C
:104AE00006DA0121CDE9011015E0AAF10101E9E79B
:104AF000002805DC049901440491AAEB000102E0BE
:104B0000411C514500DD8A460499401A401C019021
:104B10004FF000400290200704D40198504501DB7B
:104B2000CDF8048000208DF84F0002980DF14F075A
:104B3000B0F1004F25D02B200E9002984FF00208C4
:104B400000280CDA404202902D200E9007E00A2146
:104B50000298FBF7CBFD3031029007F8011DB8F148
:104B60000001A8F10108F2DC02980028EFD1791EBB
:104B70000E980870307800F0200040F0450007F8EB
:104B8000020D12A8C01B00F107081498007800B1AC
:104B9000012000EB0A01019801EBE0710598414406
:104BA000401A401E0590E00306D45B462146179A42
:104BB000059800F05DF805441498007818B15A463D
:104BC000179990476D1CE00324D55B462146179A40
:104BD000059800F04DF805441CE00498002807DB18
:104BE000DDE90301884203DD0098405C179901E08C
:104BF000179930205A469047049805F10105401C4A
:104C000004900198401E019004D12E205A46179915
:104C100090476D1CBAF10001AAF1010ADDDC05E044
:104C200017F8010B5A46179990476D1CB8F100010F
:104C3000A8F10108F4DC5B462146179A0598ABE61B
:104C40002D0000002B000000200000002DE9F041A5
:104C5000044600251E461746880404D405E039465C
:104C60002020B0476D1C641EF9D52846BDE8F081B0
:104C70002DE9F041044600251E469046C80301D5A3
:104C8000302700E02027880404D505E04146384657
:104C9000B0476D1C641EF9D52846BDE8F0810000C0
:104CA0002DE9F04D8D4F21F0004A86B005460C46A7
:104CB000BA452ADBAAEB070028430AD08848824578
:104CC00001DC1AD1CDB106B02846BDE8F04DFFF7A2
:104CD0004FBB844A844B2846FBF7F2FB07460E463F
:104CE000824A834B28462146FBF7EAFB06B03A4648
:104CF0003346BDE8F04DFBF73CBB0120FFF770FBEE
:104D000006B0BDE8F04DFFF738BB7A48824542DA7D
:104D1000BAF1795F0BDA2846FFF79EFA042808BF3C
:104D2000FFF732FB284606B02146BDE8F08D2A4643
:104D30000B461046FBF7C4FB834602466E480E4600
:104D40000B4606217844FFF7BEFA5A463346FBF776
:104D5000B7FB804669488A465A4633460421784460
:104D6000FFF7B1FA5A463346FBF7AAFB00223B464F
:104D7000FBF7FFFA02460B4640465146FBF7B2FDF1
:104D80002A462346FBF79CFB06B02A462346BDE88D
:104D9000F04DFBF7EEBA284624F0004100223D46D4
:104DA0003B46FBF78AFB4FF0FF32FBF7FBFB064667
:104DB000024653480F460B4606217844FFF783FA14
:104DC00032463B46FBF77CFBCDE900014D483246BD
:104DD0003B4604217844FFF776FA32463B46FBF720
:104DE0006FFB00222B46FBF7C4FA83460291304644
:104DF000394601F093FE804643480D46504517DC86
:104E0000DDE900015A46029BFBF76CFD42462B464A
:104E1000FBF756FB42462B46FBF7ABFA0122FBF7AA
:104E2000C1FB304A304BFBF745FB304A304B4CE07E
:104E30004FF0000A52460B464046FBF79AFACDE97E
:104E4000031052462B4610461946FBF739FB3246F3
:104E50003B46FBF732FBDDE90332FBF743FD064639
:104E60000F46DDE900015A46029BFBF73BFD8346F6
:104E70000091012230463946FBF794FB194A1A4B40
:104E8000FBF71BFB06460F46012240462946FBF76F
:104E900089FB5A46009BFBF713FB32463B46FBF768
:104EA00009FB06460F46012250462946FBF77AFBCE
:104EB0000E4DDFF858802A464346FBF7FEFA32468D
:104EC0003B46FBF7FAFA2A464346FBF7F6FA002C74
:104ED000D8BF81F0004106B0BDE8F08D0000F03F82
:104EE0000000F07F075C143326A6913C182D445433
:104EF000FB21F93F0000E03F381E00004E1E00007D
:104F0000C21D0000D81D00003333EF3FFB21E93FF5
:104F10002DE9F84F04460D4621F0004000917349F9
:104F2000814211DC7249884201DC06D12CB1204655
:104F30002946BDE8F84FFFF71BBA6E48002DCCBFDD
:104F40006D496E49BDE8F88F6D49814211DD6D49AB
:104F50008142D8BF4FF0FF366DDD20462946FFF76E
:104F60007BF9042808BFFFF70FFA20462946BDE861
:104F7000F88F6549654F25F00045814233DD64496E
:104F8000814219DD002632464FF0804320462946F3
:104F9000FBF7EFF980468A46012220462946FBF7B7
:104FA00001FB00223B46FBF785FA42465346FBF7DE
:104FB00099FC04460D463EE001260022BA463B46D7
:104FC00020462946FBF7D5F980460F460022534676
:104FD00020462946FBF76EFA42463B46FBF782FC29
:104FE00004460D4627E04B4981421BDDDFF828A12E
:104FF00002260022534620462946FBF761FA00228A
:105000003B46FBF7B6F980460F4600225346204642
:105010002946FBF74FFA42463B46FBF763FC044642
:105020000D4608E0032622462B4600203B49FBF7AD
:1050300059FC04460D4622462B4610461946FBF7FE
:105040003FFA8B46824602460B46FBF739FA074683
:105050000246334888460B4606217844FFF733F969
:1050600052465B46FBF72CFA82462E488B463A4660
:10507000434605217844FFF726F93A464346FBF7B5
:105080001FFA02460B46002E504659460CDAFBF733
:1050900070F922462B46FBF713FA01B022462B4645
:1050A000BDE8F04FFBF709BAFBF763F922462B4640
:1050B000FBF706FA1C4A7A4402EBC603D3E9002345
:1050C000FBF7F8F922462B46FBF7F4F9174A7A4426
:1050D00002EBC603D3E90023FBF7EFF9009A002A9D
:1050E000B8BF81F00041BDE8F88F00000000104417
:1050F0000000F07F182D4454FB21F93FFB21F9BF3C
:105100000000DC3F0000203E0000F33F0000F03FC5
:105110000000E63F008003400000F83F0000F0BFC1
:105120001A1D0000D81C0000761C00003E1C000068
:105130002DE9F04D9446CCF1000423F000464CEAF2
:105140000404524F46EAD4749A46884621F000423D
:10515000BC4206D8454240EA050442EAD474BC4247
:1051600004D9BDE8F04D6246FFF705B9AAF14055F4
:10517000A5F17F6555EA0C040BD0022404EAAA7459
:10518000434DDFF810E144EAD87452EA000B04D032
:105190000CE0BDE8F04DFFF7BBBE002C14BF012CA6
:1051A000BDE8F08D022C30D0032C32D056EA0C0B27
:1051B0000AD0BE4220D1BA4209D126F0804622F060
:1051C00080423346114617E000291ADB25E0DFF85C
:1051D000C8B0FB44002C04BFDBE90001BDE8F08D42
:1051E000012C02BFDBE9000181F00041BDE8F08D38
:1051F000022C0AD0032C0CD0BA4212D1B8F1000F05
:105200000BDA23482549BDE8F08D28462449BDE83E
:10521000F08D28467146BDE8F08D1D482149BDE856
:10522000F08D921B12153C2AC4BF19481D490EDC93
:10523000BAF1000FBEBF12F13C0F0020014606DBA1
:105240006246FBF74FFB21F00041FFF761FE002CA7
:1052500008BFBDE8F08D012C04BF81F00041BDE81E
:10526000F08D114A114B022C07D0FBF723F92A4687
:10527000BDE8F04D0A4BFBF71DB9FBF71BF92A46B9
:10528000BDE8F04D064BFBF718B900000000F07FB9
:10529000182D4454FB2109C0D21B0000FB21F9BF8B
:1052A000FB210940FB21F93F075C143326A6A13CF2
:1052B00038B51A498820642508700A460123EC2174
:1052C00017480095FCF738F904461823154AEC21D5
:1052D00013480095FCF72AF8124A104B40EA0401E3
:1052E000243B1088D8805088188190885881D088B5
:1052F00098811089D8815089188290895882D089E4
:105300009882108AD882508A1883908A5883D08ACB
:105310009883BDE8384004A0FEF78EBF3C00002013
:10532000B8010020E40300205374617475733A20BF
:1053300025690D0A0000000070B564230A22EC21E3
:105340001148FBF745FF040002D001460FA011E011
:1053500005235722F421762000F08AF9054605231B
:105360001022F521762000F083F950EA050405D0DB
:10537000214611A0FEF760FF204670BD17A0FEF782
:105380005BFF002070BD0000B80100200A424D50B4
:105390002073657475703A204572726F7220617463
:1053A00020626D7020636F6E6E656374696F6E3A14
:1053B0002025690A000000000A424D5020736574E0
:1053C00075703A204572726F7220617420626D7040
:1053D0002073657475703A2025690A00424D50208B
:1053E0007365747570207375636365737366756C2C
:1053F000210A00002DE9F05F8346544AC817891836
:10540000A1FB012340F1FF30514C00FB0133B4F903
:10541000165001FB0038A2FB0537EE1708FB057597
:1054200002FB0659B4F914504FF0000AA1FB057CA9
:10543000EE1700FB05C501FB06556E0446EAD7369C
:105440007F04FB1846EB09061AEB0309B4F9103088
:10545000B4F91250A2FB037C46EBC5054FEAE37694
:1054600008FB03C302FB0632B4F90E304FEA1726DD
:10547000A1FB03C800FB03804FEAE37701FB0700B1
:105480004FEA003146EA02664FEA0C3041EA1C510D
:10549000301841EB2222001C42F50043A289A0FBF8
:1054A000027603FB026200FB0A204210C31752EA95
:1054B000030048D0CBF58010C117C907C60741EAE1
:1054C0005001B6EB090640F63547A6FB070C61EB29
:1054D000050101FB07C1002506FB0511FAF722FEB5
:1054E000B4F91C50420B42EAC142A2FB057C4B13AB
:1054F000EE1703FB05C502FB0655A7FB026C05FB77
:1055000002C207FB0323720E42EAC3125D16B4F90E
:105510001A30A3FB007CDE1706FB00C603FB016606
:10552000FB0C801843EA46336941C01841EBE64161
:105530004FEA102040EA0160B4F918104FEA011157
:105540004018BDE8F09F0020FBE70000000CFEFFC4
:105550001800002030B50C4AC410D388B2F90850A6
:10556000C3EB2010A4EB43044043B2F90A206C4380
:105570000013E412504304EBA030086000EB8000FD
:105580008030001230BD00001800002013B54FF627
:10559000FF73012269460248FDF70AFB00981CBD13
:1055A0002403002070B564230A223C211548FBF730
:1055B0000FFE040002D0014613A019E005231822B3
:1055C00000211E2000F054F8044605230422012186
:1055D0001E2000F04DF840EA0405052300220221B8
:1055E0001E2000F045F850EA050405D0214611A020
:1055F000FEF722FE204670BD17A0FEF71DFE00201C
:1056000070BD0000B80100200A484D432073657446
:1056100075703A204572726F7220617420686D63F4
:1056200020636F6E6E656374696F6E3A2025690A38
:10563000000000000A484D432073657475703A20DD
:105640004572726F7220617420686D632073657497
:1056500075703A2025690A00484D432073657475BA
:1056600070207375636365737366756C210A00003F
:105670002DE9FF430024642585B01F468946012695
:105680004FEA400829E007A8CDE9000601234A4671
:10569000414602951648FCF7BFF910B115A0FEF778
:1056A000CBFD03A8CDE9000601234A4641460295F9
:1056B0000F48FBF7DDFF01469DF80C304A4611A06C
:1056C000FEF7BAFD9DF80C009DF81C10884203D12E
:1056D000002009B0BDE8F083641CBC42D3DB9DF818
:1056E0000C009DF81C108842F3D00120F1E7000067
:1056F000B8010020693263207478206572726F727D
:105700000D0A00005374617475733A2025692C20CA
:10571000616464726573733A2025692C2064617436
:1057200061206174207468652061646472657373BC
:105730003A2025690D0A000010B504464FF0FF31EC
:10574000FAF70BFE0849A1EB64042146FAF795FD30
:105750002146FAF792FD4FF07F51FAF78BFD214673
:10576000BDE81040FAF789BDDF59375F1CB5FCF77B
:1057700051FAFEF7EBFAFDF731FEE448416941F0DA
:10578000010141614069002200F0010000901146D2
:105790001020FCF79DFA1020FCF78CFA002211462D
:1057A0001120FCF795FA1120FCF784FAD948D84962
:1057B00000260160D849C0E901164FF48041C0E9D4
:1057C000036146618661C6610662FBF747FC00B172
:1057D000FEE7D348D1490C240160D249C0E9011643
:1057E000C660C0E904648661C661FDF736F900B1A0
:1057F000FEE7FDF763FEFDF781FEC9484FF08041EB
:105800008038C0E9001644F2B461C0E90261066163
:1058100008218661FDF741F800B1FEE7C048C249A2
:1058200080304FF4E13580E86200C660C0E904646E
:105830008661C661FDF711F900B1FEE7FDF7A6FE2E
:10584000B748BA49403080E86200C660C0E90464E5
:105850008661C661FDF701F900B1FEE7B44D4FF076
:10586000010A294685F801A081F805A081F803A066
:10587000A1F5A474AF49606F04F180090860204667
:10588000AD4A806F48602046B046C06F8860D9F846
:105890001830C1E903323831D9F800700F60D9F8F7
:1058A00004704F60D9F808708F60C1E90332383155
:1058B000D9F80C700F60D9F810704F60D9F8140047
:1058C0000A61C1E902039B481E22B1300123067020
:1058D000C671467182700322C270867101224270C5
:1058E000027106220272093831460370C17141719A
:1058F00076238370F723C370817101214170017198
:1059000002728E484FF47A760068B0FBF6F0401EC3
:10591000B0F1807F0AD24FF0E0214861884AF02040
:1059200082F8140DC1F81880072008617C48002116
:105930004038FDF76FF87A4804214038FDF76AF8DF
:10594000774808214038FDF765F875480C21403844
:10595000FDF760F86F480021AC30FCF786FE00F0E0
:1059600097F9206600F094F9606600F03FFD6870DA
:1059700030B100224FF400517248FBF761FBFEE7A3
:10598000FFF710FE6871FFF7D7FCE870FFF790FC97
:10599000687908B1687828B966495E48B131FDF781
:1059A00083FC6871E87808B1687828B9614959487A
:1059B000A831FDF779FCE87000F0D4FA18B185F849
:1059C00005A085F803A0DFF86CB1ABF16C0B607833
:1059D000002870D000F05CF9CBF800005E46012290
:1059E00020215948FBF72CFB84F8008084F80180C3
:1059F00000F016FB00F04CF97060287860B948465A
:105A0000D0E90E12CDE90012D9E91512D9F83430D7
:105A1000D9F85000FDF716FEFEF7E2F800F038F96D
:105A2000B346B06000F094F8207928B9404848386F
:105A300081694148814201DA012700E000273C4E9C
:105A40000097483E3B48B369F2683830D9F8741083
:105A5000FEF744F870620097B36932693548D9F8A7
:105A60007810FEF73BF830620097D6E905233148FD
:105A7000D9F84C107030FEF731F8B06200F008F938
:105A80005E46CBF80C0000F003F9A066206FA0F290
:105A9000C3103B2810D200F0FBF825494839C969EA
:105AA000401A2A49884207D2404684F8048000F010
:105AB00003F9012206E015E0504684F804A000F046
:105AC000FBF800224FF400511E48FBF7B9FAE06DD5
:105AD000401CE06500F0DCF83061002220211A480B
